{"contracts/CommuntyBoard.sol":{"CommunityBountyBoard":{"abi":[{"inputs":[],"stateMutability":"nonpayable","type":"constructor"},{"anonymous":false,"inputs":[{"indexed":true,"internalType":"uint256","name":"bountyId","type":"uint256"},{"indexed":true,"internalType":"address","name":"creator","type":"address"}],"name":"BountyCanceled","type":"event"},{"anonymous":false,"inputs":[{"indexed":true,"internalType":"uint256","name":"bountyId","type":"uint256"},{"indexed":false,"internalType":"uint256","name":"winnerCount","type":"uint256"}],"name":"BountyCompleted","type":"event"},{"anonymous":false,"inputs":[{"indexed":true,"internalType":"uint256","name":"bountyId","type":"uint256"},{"indexed":true,"internalType":"address","name":"creator","type":"address"},{"indexed":false,"internalType":"string","name":"title","type":"string"},{"indexed":false,"internalType":"uint256","name":"reward","type":"uint256"}],"name":"BountyCreated","type":"event"},{"anonymous":false,"inputs":[{"indexed":true,"internalType":"uint256","name":"bountyId","type":"uint256"},{"indexed":true,"internalType":"uint256","name":"submissionId","type":"uint256"},{"indexed":true,"internalType":"address","name":"voter","type":"address"},{"indexed":false,"internalType":"bool","name":"approve","type":"bool"}],"name":"BountyVoted","type":"event"},{"anonymous":false,"inputs":[{"indexed":true,"internalType":"address","name":"previousOwner","type":"address"},{"indexed":true,"internalType":"address","name":"newOwner","type":"address"}],"name":"OwnershipTransferred","type":"event"},{"anonymous":false,"inputs":[{"indexed":true,"internalType":"uint256","name":"bountyId","type":"uint256"},{"indexed":true,"internalType":"uint256","name":"submissionId","type":"uint256"},{"indexed":true,"internalType":"address","name":"winner","type":"address"},{"indexed":false,"internalType":"uint256","name":"amount","type":"uint256"},{"indexed":false,"internalType":"string","name":"txHash","type":"string"}],"name":"PayoutSent","type":"event"},{"anonymous":false,"inputs":[{"indexed":true,"internalType":"uint256","name":"bountyId","type":"uint256"},{"indexed":true,"internalType":"address","name":"submitter","type":"address"},{"indexed":false,"internalType":"string","name":"ipfsProofHash","type":"string"},{"indexed":false,"internalType":"string","name":"txHash","type":"string"}],"name":"ProofSubmitted","type":"event"},{"anonymous":false,"inputs":[{"indexed":true,"internalType":"address","name":"user","type":"address"},{"indexed":false,"internalType":"uint256","name":"newReputation","type":"uint256"}],"name":"ReputationUpdated","type":"event"},{"anonymous":false,"inputs":[{"indexed":true,"internalType":"uint256","name":"bountyId","type":"uint256"},{"indexed":true,"internalType":"uint256","name":"submissionId","type":"uint256"},{"indexed":true,"internalType":"address","name":"submitter","type":"address"}],"name":"SubmissionRejected","type":"event"},{"stateMutability":"payable","type":"fallback"},{"inputs":[],"name":"BLOCKS_PER_DAY","outputs":[{"internalType":"uint256","name":"","type":"uint256"}],"stateMutability":"view","type":"function"},{"inputs":[],"name":"TOTAL_VOTES","outputs":[{"internalType":"uint256","name":"","type":"uint256"}],"stateMutability":"view","type":"function"},{"inputs":[{"internalType":"uint256","name":"","type":"uint256"}],"name":"bounties","outputs":[{"internalType":"uint256","name":"id","type":"uint256"},{"internalType":"address","name":"creator","type":"address"},{"internalType":"string","name":"title","type":"string"},{"internalType":"string","name":"description","type":"string"},{"internalType":"string","name":"proofRequirements","type":"string"},{"internalType":"uint256","name":"reward","type":"uint256"},{"internalType":"uint256","name":"deadline","type":"uint256"},{"internalType":"bool","name":"completed","type":"bool"},{"internalType":"uint256","name":"winnerCount","type":"uint256"},{"internalType":"uint256","name":"submissionCount","type":"uint256"}],"stateMutability":"view","type":"function"},{"inputs":[],"name":"bountyCount","outputs":[{"internalType":"uint256","name":"","type":"uint256"}],"stateMutability":"view","type":"function"},{"inputs":[{"internalType":"uint256","name":"_bountyId","type":"uint256"}],"name":"completeBounty","outputs":[],"stateMutability":"nonpayable","type":"function"},{"inputs":[{"internalType":"string","name":"_title","type":"string"},{"internalType":"string","name":"_description","type":"string"},{"internalType":"string","name":"_proofRequirements","type":"string"},{"internalType":"uint256","name":"_reward","type":"uint256"},{"internalType":"uint256","name":"_deadline","type":"uint256"}],"name":"createBounty","outputs":[{"internalType":"uint256","name":"","type":"uint256"}],"stateMutability":"payable","type":"function"},{"inputs":[{"internalType":"uint256","name":"_bountyId","type":"uint256"},{"internalType":"uint256","name":"_submissionId","type":"uint256"}],"name":"getPayoutTxHash","outputs":[{"internalType":"string","name":"","type":"string"}],"stateMutability":"view","type":"function"},{"inputs":[{"internalType":"uint256","name":"_bountyId","type":"uint256"},{"internalType":"uint256","name":"_submissionId","type":"uint256"}],"name":"getSubmission","outputs":[{"internalType":"address","name":"submitter","type":"address"},{"internalType":"string","name":"ipfsProofHash","type":"string"},{"internalType":"uint256","name":"timestamp","type":"uint256"},{"internalType":"bool","name":"approved","type":"bool"},{"internalType":"uint256","name":"approvalCount","type":"uint256"},{"internalType":"uint256","name":"rejectCount","type":"uint256"},{"internalType":"bool","name":"isWinner","type":"bool"},{"internalType":"uint256","name":"rewardAmount","type":"uint256"},{"internalType":"string","name":"txHash","type":"string"},{"internalType":"string","name":"payoutTxHash","type":"string"}],"stateMutability":"view","type":"function"},{"inputs":[{"internalType":"uint256","name":"_bountyId","type":"uint256"}],"name":"getSubmissionCount","outputs":[{"internalType":"uint256","name":"","type":"uint256"}],"stateMutability":"view","type":"function"},{"inputs":[{"internalType":"uint256","name":"_bountyId","type":"uint256"},{"internalType":"uint256","name":"_submissionId","type":"uint256"}],"name":"getSubmissionTxHash","outputs":[{"internalType":"string","name":"","type":"string"}],"stateMutability":"view","type":"function"},{"inputs":[{"internalType":"address","name":"_user","type":"address"}],"name":"getUserBounties","outputs":[{"internalType":"uint256[]","name":"","type":"uint256[]"}],"stateMutability":"view","type":"function"},{"inputs":[{"internalType":"address","name":"_user","type":"address"}],"name":"getUserSubmissions","outputs":[{"internalType":"uint256[]","name":"","type":"uint256[]"}],"stateMutability":"view","type":"function"},{"inputs":[{"internalType":"uint256","name":"","type":"uint256"},{"internalType":"address","name":"","type":"address"}],"name":"hasSubmitted","outputs":[{"internalType":"bool","name":"","type":"bool"}],"stateMutability":"view","type":"function"},{"inputs":[{"internalType":"uint256","name":"_bountyId","type":"uint256"},{"internalType":"uint256","name":"_submissionId","type":"uint256"},{"internalType":"address","name":"_user","type":"address"}],"name":"hasVotedOnSubmission","outputs":[{"internalType":"bool","name":"","type":"bool"}],"stateMutability":"view","type":"function"},{"inputs":[],"name":"owner","outputs":[{"internalType":"address","name":"","type":"address"}],"stateMutability":"view","type":"function"},{"inputs":[{"internalType":"uint256","name":"","type":"uint256"},{"internalType":"uint256","name":"","type":"uint256"}],"name":"payoutTxHashes","outputs":[{"internalType":"string","name":"","type":"string"}],"stateMutability":"view","type":"function"},{"inputs":[],"name":"renounceOwnership","outputs":[],"stateMutability":"nonpayable","type":"function"},{"inputs":[{"internalType":"uint256","name":"_bountyId","type":"uint256"},{"internalType":"uint256","name":"_submissionId","type":"uint256"},{"internalType":"uint256","name":"_rewardAmount","type":"uint256"}],"name":"setSubmissionReward","outputs":[],"stateMutability":"payable","type":"function"},{"inputs":[{"internalType":"uint256","name":"","type":"uint256"},{"internalType":"uint256","name":"","type":"uint256"}],"name":"submissionTxHashes","outputs":[{"internalType":"string","name":"","type":"string"}],"stateMutability":"view","type":"function"},{"inputs":[{"internalType":"uint256","name":"_bountyId","type":"uint256"},{"internalType":"string","name":"_ipfsProofHash","type":"string"}],"name":"submitProof","outputs":[],"stateMutability":"nonpayable","type":"function"},{"inputs":[{"internalType":"address","name":"newOwner","type":"address"}],"name":"transferOwnership","outputs":[],"stateMutability":"nonpayable","type":"function"},{"inputs":[{"internalType":"address","name":"","type":"address"}],"name":"userReputation","outputs":[{"internalType":"uint256","name":"","type":"uint256"}],"stateMutability":"view","type":"function"},{"inputs":[{"internalType":"uint256","name":"_bountyId","type":"uint256"},{"internalType":"uint256","name":"_submissionId","type":"uint256"},{"internalType":"bool","name":"_approve","type":"bool"}],"name":"voteOnSubmission","outputs":[],"stateMutability":"nonpayable","type":"function"},{"stateMutability":"payable","type":"receive"}],"evm":{"bytecode":{"linkReferences":{},"object":"60806040523480156200001157600080fd5b5062000032620000266200003f60201b60201c565b6200004760201b60201c565b600180819055506200010b565b600033905090565b60008060009054906101000a900473ffffffffffffffffffffffffffffffffffffffff169050816000806101000a81548173ffffffffffffffffffffffffffffffffffffffff021916908373ffffffffffffffffffffffffffffffffffffffff1602179055508173ffffffffffffffffffffffffffffffffffffffff168173ffffffffffffffffffffffffffffffffffffffff167f8be0079c531659141344cd1fd0a4f28419497f9722a3daafe3b4186f6b6457e060405160405180910390a35050565b613b9c806200011b6000396000f3fe6080604052600436106101445760003560e01c80637b7e41dc116100b6578063ab5158831161006f578063ab51588314610494578063b7ed7071146104bf578063dc2f874414610505578063e503bb051461054b578063f2fde38b14610588578063fc40d6e7146105b15761014b565b80637b7e41dc146103385780637be24cb8146103755780638da5cb5b146103b257806391e4d9ea146103dd578063a57d38061461041a578063a7b8614d146104575761014b565b80634bdf9084116101085780634bdf90841461021657806360b8ab571461023f5780636591a1851461027c5780636bb987fe146102b9578063715018a6146102e457806377016ea3146102fb5761014b565b8063139005ab1461014d5780631524e11b146101765780632af00510146101a6578063395c2a0c146101cf5780633e362c96146101eb5761014b565b3661014b57005b005b34801561015957600080fd5b50610174600480360381019061016f9190612611565b6105ee565b005b610190600480360381019061018b9190612784565b610789565b60405161019d9190612862565b60405180910390f35b3480156101b257600080fd5b506101cd60048036038101906101c8919061287d565b610a06565b005b6101e960048036038101906101e491906128d9565b610da1565b005b3480156101f757600080fd5b506102006113e4565b60405161020d9190612862565b60405180910390f35b34801561022257600080fd5b5061023d60048036038101906102389190612964565b6113ea565b005b34801561024b57600080fd5b50610266600480360381019061026191906129b7565b61180a565b6040516102739190612a7f565b60405180910390f35b34801561028857600080fd5b506102a3600480360381019061029e9190612aff565b6118c1565b6040516102b09190612bea565b60405180910390f35b3480156102c557600080fd5b506102ce611958565b6040516102db9190612862565b60405180910390f35b3480156102f057600080fd5b506102f961195e565b005b34801561030757600080fd5b50610322600480360381019061031d91906129b7565b611972565b60405161032f9190612a7f565b60405180910390f35b34801561034457600080fd5b5061035f600480360381019061035a91906129b7565b611a29565b60405161036c9190612a7f565b60405180910390f35b34801561038157600080fd5b5061039c60048036038101906103979190612611565b611ad6565b6040516103a99190612862565b60405180910390f35b3480156103be57600080fd5b506103c7611af6565b6040516103d49190612c1b565b60405180910390f35b3480156103e957600080fd5b5061040460048036038101906103ff91906129b7565b611b1f565b6040516104119190612a7f565b60405180910390f35b34801561042657600080fd5b50610441600480360381019061043c9190612c36565b611bcc565b60405161044e9190612c85565b60405180910390f35b34801561046357600080fd5b5061047e60048036038101906104799190612aff565b611bfb565b60405161048b9190612bea565b60405180910390f35b3480156104a057600080fd5b506104a9611c92565b6040516104b69190612862565b60405180910390f35b3480156104cb57600080fd5b506104e660048036038101906104e191906129b7565b611c97565b6040516104fc9a99989796959493929190612ca0565b60405180910390f35b34801561051157600080fd5b5061052c60048036038101906105279190612611565b611eaa565b6040516105429a99989796959493929190612d51565b60405180910390f35b34801561055757600080fd5b50610572600480360381019061056d9190612aff565b6120c3565b60405161057f9190612862565b60405180910390f35b34801561059457600080fd5b506105af60048036038101906105aa9190612aff565b6120db565b005b3480156105bd57600080fd5b506105d860048036038101906105d39190612e02565b61215f565b6040516105e59190612c85565b60405180910390f35b60006003600083815260200190815260200160002090508060070160009054906101000a900460ff1615610657576040517f08c379a000000000000000000000000000000000000000000000000000000000815260040161064e90612ea1565b60405180910390fd5b8060060154421161069d576040517f08c379a000000000000000000000000000000000000000000000000000000000815260040161069490612f0d565b60405180910390fd5b8060010160009054906101000a900473ffffffffffffffffffffffffffffffffffffffff1673ffffffffffffffffffffffffffffffffffffffff163373ffffffffffffffffffffffffffffffffffffffff161461072f576040517f08c379a000000000000000000000000000000000000000000000000000000000815260040161072690612f9f565b60405180910390fd5b60018160070160006101000a81548160ff021916908315150217905550817fb14e20043c98ef6452108c9d9477c2033a076dcc80324b977bf42bcb130a49a9600060405161077d9190613004565b60405180910390a25050565b60004282116107cd576040517f08c379a00000000000000000000000000000000000000000000000000000000081526004016107c49061306b565b60405180910390fd5b60008311610810576040517f08c379a0000000000000000000000000000000000000000000000000000000008152600401610807906130d7565b60405180910390fd5b823414610852576040517f08c379a000000000000000000000000000000000000000000000000000000000815260040161084990613143565b60405180910390fd5b60006002600081548092919061086790613192565b9190505590506000600360008381526020019081526020016000209050818160000181905550338160010160006101000a81548173ffffffffffffffffffffffffffffffffffffffff021916908373ffffffffffffffffffffffffffffffffffffffff160217905550878160020190805190602001906108e8929190612524565b5086816003019080519060200190610901929190612524565b508581600401908051906020019061091a929190612524565b508481600501819055508381600601819055506000816009018190555060008160080181905550600560003373ffffffffffffffffffffffffffffffffffffffff1673ffffffffffffffffffffffffffffffffffffffff1681526020019081526020016000208290806001815401808255809150506001900390600052602060002001600090919091909150553373ffffffffffffffffffffffffffffffffffffffff16827f64b439309954f148e681118e8f6556d39f6204a461e3307190a6928618ff26558a886040516109f09291906131db565b60405180910390a3819250505095945050505050565b60006003600084815260200190815260200160002090508060070160009054906101000a900460ff1615610a6f576040517f08c379a0000000000000000000000000000000000000000000000000000000008152600401610a6690612ea1565b60405180910390fd5b8060060154421115610ab6576040517f08c379a0000000000000000000000000000000000000000000000000000000008152600401610aad90613257565b60405180910390fd5b60008251118015610ac957506064825111155b610b08576040517f08c379a0000000000000000000000000000000000000000000000000000000008152600401610aff906132c3565b60405180910390fd5b6009600084815260200190815260200160002060003373ffffffffffffffffffffffffffffffffffffffff1673ffffffffffffffffffffffffffffffffffffffff16815260200190815260200160002060009054906101000a900460ff1615610ba6576040517f08c379a0000000000000000000000000000000000000000000000000000000008152600401610b9d9061332f565b60405180910390fd5b6000816009016000815480929190610bbd90613192565b919050559050600082600a0160008381526020019081526020016000209050338160000160006101000a81548173ffffffffffffffffffffffffffffffffffffffff021916908373ffffffffffffffffffffffffffffffffffffffff16021790555083816001019080519060200190610c37929190612524565b50428160020181905550600081600401819055506000816005018190555060008160060160006101000a81548160ff0219169083151502179055506000816007018190555060016009600087815260200190815260200160002060003373ffffffffffffffffffffffffffffffffffffffff1673ffffffffffffffffffffffffffffffffffffffff16815260200190815260200160002060006101000a81548160ff021916908315150217905550600660003373ffffffffffffffffffffffffffffffffffffffff1673ffffffffffffffffffffffffffffffffffffffff1681526020019081526020016000208590806001815401808255809150506001900390600052602060002001600090919091909150553373ffffffffffffffffffffffffffffffffffffffff16857fc0b04028e7b044e610e837c16aa829c3ac6eda886999b98be29a1449db09701486604051610d929190613375565b60405180910390a35050505050565b610da96121df565b60006003600085815260200190815260200160002090508060010160009054906101000a900473ffffffffffffffffffffffffffffffffffffffff1673ffffffffffffffffffffffffffffffffffffffff163373ffffffffffffffffffffffffffffffffffffffff1614610e52576040517f08c379a0000000000000000000000000000000000000000000000000000000008152600401610e499061341c565b60405180910390fd5b8060070160009054906101000a900460ff1615610ea4576040517f08c379a0000000000000000000000000000000000000000000000000000000008152600401610e9b90612ea1565b60405180910390fd5b80600601544211610eea576040517f08c379a0000000000000000000000000000000000000000000000000000000008152600401610ee1906134ae565b60405180910390fd5b80600901548310610f30576040517f08c379a0000000000000000000000000000000000000000000000000000000008152600401610f279061351a565b60405180910390fd5b60008211610f73576040517f08c379a0000000000000000000000000000000000000000000000000000000008152600401610f6a906130d7565b60405180910390fd5b8060050154821115610fba576040517f08c379a0000000000000000000000000000000000000000000000000000000008152600401610fb1906135ac565b60405180910390fd5b813414610ffc576040517f08c379a0000000000000000000000000000000000000000000000000000000008152600401610ff390613143565b60405180910390fd5b600081600a01600085815260200190815260200160002090508060030160009054906101000a900460ff16611066576040517f08c379a000000000000000000000000000000000000000000000000000000000815260040161105d9061363e565b60405180910390fd5b60008160070154146110ad576040517f08c379a00000000000000000000000000000000000000000000000000000000081526004016110a4906136d0565b60405180910390fd5b82816007018190555060008160000160009054906101000a900473ffffffffffffffffffffffffffffffffffffffff1673ffffffffffffffffffffffffffffffffffffffff16846040516111009061371e565b60006040518083038185875af1925050503d806000811461113d576040519150601f19603f3d011682016040523d82523d6000602084013e611142565b606091505b5050905080611186576040517f08c379a000000000000000000000000000000000000000000000000000000000815260040161117d9061377f565b60405180910390fd5b8383600501600082825461119a919061379f565b9250508190555060006001905060005b846009015481101561121457600085600a01600083815260200190815260200160002090508060030160009054906101000a900460ff1680156111f1575060008160070154145b15611200576000925050611214565b50808061120c90613192565b9150506111aa565b50801561135f576000846005015411156113085760008460010160009054906101000a900473ffffffffffffffffffffffffffffffffffffffff1673ffffffffffffffffffffffffffffffffffffffff1685600501546040516112769061371e565b60006040518083038185875af1925050503d80600081146112b3576040519150601f19603f3d011682016040523d82523d6000602084013e6112b8565b606091505b50509050806112fc576040517f08c379a00000000000000000000000000000000000000000000000000000000081526004016112f39061381f565b60405180910390fd5b60008560050181905550505b60018460070160006101000a81548160ff021916908315150217905550867fb14e20043c98ef6452108c9d9477c2033a076dcc80324b977bf42bcb130a49a96001604051611356919061387a565b60405180910390a25b8260000160009054906101000a900473ffffffffffffffffffffffffffffffffffffffff1673ffffffffffffffffffffffffffffffffffffffff1686887fc9a6981a3706821e95d9ad05f7921dede8f51b4b7a31dca8c009f6c08615714d886040516113cb9190613895565b60405180910390a4505050506113df61222f565b505050565b60025481565b600060036000858152602001908152602001600020905080600901548310611447576040517f08c379a000000000000000000000000000000000000000000000000000000000815260040161143e9061351a565b60405180910390fd5b600081600a01600085815260200190815260200160002090508160070160009054906101000a900460ff16156114b2576040517f08c379a00000000000000000000000000000000000000000000000000000000081526004016114a990612ea1565b60405180910390fd5b8060080160003373ffffffffffffffffffffffffffffffffffffffff1673ffffffffffffffffffffffffffffffffffffffff16815260200190815260200160002060009054906101000a900460ff1615611541576040517f08c379a00000000000000000000000000000000000000000000000000000000081526004016115389061390f565b60405180910390fd5b8060000160009054906101000a900473ffffffffffffffffffffffffffffffffffffffff1673ffffffffffffffffffffffffffffffffffffffff163373ffffffffffffffffffffffffffffffffffffffff1614156115d4576040517f08c379a00000000000000000000000000000000000000000000000000000000081526004016115cb9061397b565b60405180910390fd5b60018160080160003373ffffffffffffffffffffffffffffffffffffffff1673ffffffffffffffffffffffffffffffffffffffff16815260200190815260200160002060006101000a81548160ff02191690831515021790555082156116a45780600401600081548092919061164990613192565b91905055503373ffffffffffffffffffffffffffffffffffffffff1684867f3034d93886b61476962b74389d189a2c2ea99062e19c9c6226ffbaaacdca114460016040516116979190612c85565b60405180910390a4611779565b8060050160008154809291906116b990613192565b91905055503373ffffffffffffffffffffffffffffffffffffffff1684867f3034d93886b61476962b74389d189a2c2ea99062e19c9c6226ffbaaacdca114460006040516117079190612c85565b60405180910390a48060000160009054906101000a900473ffffffffffffffffffffffffffffffffffffffff1673ffffffffffffffffffffffffffffffffffffffff1684867f0c85652d2ac95894ed3aa3311d30cef8a307693957451a95f4b7ace387907c2a60405160405180910390a45b8060050154816004015411156117c85760018160060160006101000a81548160ff02191690831515021790555060018160030160006101000a81548160ff021916908315150217905550611803565b60008160060160006101000a81548160ff02191690831515021790555060008160030160006101000a81548160ff0219169083151502179055505b5050505050565b6060600760008481526020019081526020016000206000838152602001908152602001600020805461183b906139ca565b80601f0160208091040260200160405190810160405280929190818152602001828054611867906139ca565b80156118b45780601f10611889576101008083540402835291602001916118b4565b820191906000526020600020905b81548152906001019060200180831161189757829003601f168201915b5050505050905092915050565b6060600560008373ffffffffffffffffffffffffffffffffffffffff1673ffffffffffffffffffffffffffffffffffffffff16815260200190815260200160002080548060200260200160405190810160405280929190818152602001828054801561194c57602002820191906000526020600020905b815481526020019060010190808311611938575b50505050509050919050565b611c2081565b611966612238565b61197060006122b6565b565b606060086000848152602001908152602001600020600083815260200190815260200160002080546119a3906139ca565b80601f01602080910402602001604051908101604052809291908181526020018280546119cf906139ca565b8015611a1c5780601f106119f157610100808354040283529160200191611a1c565b820191906000526020600020905b8154815290600101906020018083116119ff57829003601f168201915b5050505050905092915050565b6008602052816000526040600020602052806000526040600020600091509150508054611a55906139ca565b80601f0160208091040260200160405190810160405280929190818152602001828054611a81906139ca565b8015611ace5780601f10611aa357610100808354040283529160200191611ace565b820191906000526020600020905b815481529060010190602001808311611ab157829003601f168201915b505050505081565b600060036000838152602001908152602001600020600901549050919050565b60008060009054906101000a900473ffffffffffffffffffffffffffffffffffffffff16905090565b6007602052816000526040600020602052806000526040600020600091509150508054611b4b906139ca565b80601f0160208091040260200160405190810160405280929190818152602001828054611b77906139ca565b8015611bc45780601f10611b9957610100808354040283529160200191611bc4565b820191906000526020600020905b815481529060010190602001808311611ba757829003601f168201915b505050505081565b60096020528160005260406000206020528060005260406000206000915091509054906101000a900460ff1681565b6060600660008373ffffffffffffffffffffffffffffffffffffffff1673ffffffffffffffffffffffffffffffffffffffff168152602001908152602001600020805480602002602001604051908101604052809291908181526020018280548015611c8657602002820191906000526020600020905b815481526020019060010190808311611c72575b50505050509050919050565b600381565b60006060600080600080600080606080600360008d8152602001908152602001600020600901548b10611cff576040517f08c379a0000000000000000000000000000000000000000000000000000000008152600401611cf69061351a565b60405180910390fd5b611d098c8c61237a565b809a50819b50829c50505050611d1f8c8c612472565b809750819850829950505050611d358c8c6124cb565b8094508195505050600760008d815260200190815260200160002060008c81526020019081526020016000208054611d6c906139ca565b80601f0160208091040260200160405190810160405280929190818152602001828054611d98906139ca565b8015611de55780601f10611dba57610100808354040283529160200191611de5565b820191906000526020600020905b815481529060010190602001808311611dc857829003601f168201915b50505050509150600860008d815260200190815260200160002060008c81526020019081526020016000208054611e1b906139ca565b80601f0160208091040260200160405190810160405280929190818152602001828054611e47906139ca565b8015611e945780601f10611e6957610100808354040283529160200191611e94565b820191906000526020600020905b815481529060010190602001808311611e7757829003601f168201915b505050505090509295989b9194979a5092959850565b60036020528060005260406000206000915090508060000154908060010160009054906101000a900473ffffffffffffffffffffffffffffffffffffffff1690806002018054611ef9906139ca565b80601f0160208091040260200160405190810160405280929190818152602001828054611f25906139ca565b8015611f725780601f10611f4757610100808354040283529160200191611f72565b820191906000526020600020905b815481529060010190602001808311611f5557829003601f168201915b505050505090806003018054611f87906139ca565b80601f0160208091040260200160405190810160405280929190818152602001828054611fb3906139ca565b80156120005780601f10611fd557610100808354040283529160200191612000565b820191906000526020600020905b815481529060010190602001808311611fe357829003601f168201915b505050505090806004018054612015906139ca565b80601f0160208091040260200160405190810160405280929190818152602001828054612041906139ca565b801561208e5780601f106120635761010080835404028352916020019161208e565b820191906000526020600020905b81548152906001019060200180831161207157829003601f168201915b5050505050908060050154908060060154908060070160009054906101000a900460ff1690806008015490806009015490508a565b60046020528060005260406000206000915090505481565b6120e3612238565b600073ffffffffffffffffffffffffffffffffffffffff168173ffffffffffffffffffffffffffffffffffffffff161415612153576040517f08c379a000000000000000000000000000000000000000000000000000000000815260040161214a90613a6e565b60405180910390fd5b61215c816122b6565b50565b600060036000858152602001908152602001600020600a01600084815260200190815260200160002060080160008373ffffffffffffffffffffffffffffffffffffffff1673ffffffffffffffffffffffffffffffffffffffff16815260200190815260200160002060009054906101000a900460ff1690509392505050565b60026001541415612225576040517f08c379a000000000000000000000000000000000000000000000000000000000815260040161221c90613ada565b60405180910390fd5b6002600181905550565b60018081905550565b61224061251c565b73ffffffffffffffffffffffffffffffffffffffff1661225e611af6565b73ffffffffffffffffffffffffffffffffffffffff16146122b4576040517f08c379a00000000000000000000000000000000000000000000000000000000081526004016122ab90613b46565b60405180910390fd5b565b60008060009054906101000a900473ffffffffffffffffffffffffffffffffffffffff169050816000806101000a81548173ffffffffffffffffffffffffffffffffffffffff021916908373ffffffffffffffffffffffffffffffffffffffff1602179055508173ffffffffffffffffffffffffffffffffffffffff168173ffffffffffffffffffffffffffffffffffffffff167f8be0079c531659141344cd1fd0a4f28419497f9722a3daafe3b4186f6b6457e060405160405180910390a35050565b6000606060008060036000878152602001908152602001600020600a01600086815260200190815260200160002090508060000160009054906101000a900473ffffffffffffffffffffffffffffffffffffffff168160010182600201548180546123e4906139ca565b80601f0160208091040260200160405190810160405280929190818152602001828054612410906139ca565b801561245d5780601f106124325761010080835404028352916020019161245d565b820191906000526020600020905b81548152906001019060200180831161244057829003601f168201915b50505050509150935093509350509250925092565b60008060008060036000878152602001908152602001600020600a01600086815260200190815260200160002090508060030160009054906101000a900460ff1681600401548260050154935093509350509250925092565b600080600060036000868152602001908152602001600020600a01600085815260200190815260200160002090508060060160009054906101000a900460ff16816007015492509250509250929050565b600033905090565b828054612530906139ca565b90600052602060002090601f0160209004810192826125525760008555612599565b82601f1061256b57805160ff1916838001178555612599565b82800160010185558215612599579182015b8281111561259857825182559160200191906001019061257d565b5b5090506125a691906125aa565b5090565b5b808211156125c35760008160009055506001016125ab565b5090565b6000604051905090565b600080fd5b600080fd5b6000819050919050565b6125ee816125db565b81146125f957600080fd5b50565b60008135905061260b816125e5565b92915050565b600060208284031215612627576126266125d1565b5b6000612635848285016125fc565b91505092915050565b600080fd5b600080fd5b6000601f19601f8301169050919050565b7f4e487b7100000000000000000000000000000000000000000000000000000000600052604160045260246000fd5b61269182612648565b810181811067ffffffffffffffff821117156126b0576126af612659565b5b80604052505050565b60006126c36125c7565b90506126cf8282612688565b919050565b600067ffffffffffffffff8211156126ef576126ee612659565b5b6126f882612648565b9050602081019050919050565b82818337600083830152505050565b6000612727612722846126d4565b6126b9565b90508281526020810184848401111561274357612742612643565b5b61274e848285612705565b509392505050565b600082601f83011261276b5761276a61263e565b5b813561277b848260208601612714565b91505092915050565b600080600080600060a086880312156127a05761279f6125d1565b5b600086013567ffffffffffffffff8111156127be576127bd6125d6565b5b6127ca88828901612756565b955050602086013567ffffffffffffffff8111156127eb576127ea6125d6565b5b6127f788828901612756565b945050604086013567ffffffffffffffff811115612818576128176125d6565b5b61282488828901612756565b9350506060612835888289016125fc565b9250506080612846888289016125fc565b9150509295509295909350565b61285c816125db565b82525050565b60006020820190506128776000830184612853565b92915050565b60008060408385031215612894576128936125d1565b5b60006128a2858286016125fc565b925050602083013567ffffffffffffffff8111156128c3576128c26125d6565b5b6128cf85828601612756565b9150509250929050565b6000806000606084860312156128f2576128f16125d1565b5b6000612900868287016125fc565b9350506020612911868287016125fc565b9250506040612922868287016125fc565b9150509250925092565b60008115159050919050565b6129418161292c565b811461294c57600080fd5b50565b60008135905061295e81612938565b92915050565b60008060006060848603121561297d5761297c6125d1565b5b600061298b868287016125fc565b935050602061299c868287016125fc565b92505060406129ad8682870161294f565b9150509250925092565b600080604083850312156129ce576129cd6125d1565b5b60006129dc858286016125fc565b92505060206129ed858286016125fc565b9150509250929050565b600081519050919050565b600082825260208201905092915050565b60005b83811015612a31578082015181840152602081019050612a16565b83811115612a40576000848401525b50505050565b6000612a51826129f7565b612a5b8185612a02565b9350612a6b818560208601612a13565b612a7481612648565b840191505092915050565b60006020820190508181036000830152612a998184612a46565b905092915050565b600073ffffffffffffffffffffffffffffffffffffffff82169050919050565b6000612acc82612aa1565b9050919050565b612adc81612ac1565b8114612ae757600080fd5b50565b600081359050612af981612ad3565b92915050565b600060208284031215612b1557612b146125d1565b5b6000612b2384828501612aea565b91505092915050565b600081519050919050565b600082825260208201905092915050565b6000819050602082019050919050565b612b61816125db565b82525050565b6000612b738383612b58565b60208301905092915050565b6000602082019050919050565b6000612b9782612b2c565b612ba18185612b37565b9350612bac83612b48565b8060005b83811015612bdd578151612bc48882612b67565b9750612bcf83612b7f565b925050600181019050612bb0565b5085935050505092915050565b60006020820190508181036000830152612c048184612b8c565b905092915050565b612c1581612ac1565b82525050565b6000602082019050612c306000830184612c0c565b92915050565b60008060408385031215612c4d57612c4c6125d1565b5b6000612c5b858286016125fc565b9250506020612c6c85828601612aea565b9150509250929050565b612c7f8161292c565b82525050565b6000602082019050612c9a6000830184612c76565b92915050565b600061014082019050612cb6600083018d612c0c565b8181036020830152612cc8818c612a46565b9050612cd7604083018b612853565b612ce4606083018a612c76565b612cf16080830189612853565b612cfe60a0830188612853565b612d0b60c0830187612c76565b612d1860e0830186612853565b818103610100830152612d2b8185612a46565b9050818103610120830152612d408184612a46565b90509b9a5050505050505050505050565b600061014082019050612d67600083018d612853565b612d74602083018c612c0c565b8181036040830152612d86818b612a46565b90508181036060830152612d9a818a612a46565b90508181036080830152612dae8189612a46565b9050612dbd60a0830188612853565b612dca60c0830187612853565b612dd760e0830186612c76565b612de5610100830185612853565b612df3610120830184612853565b9b9a5050505050505050505050565b600080600060608486031215612e1b57612e1a6125d1565b5b6000612e29868287016125fc565b9350506020612e3a868287016125fc565b9250506040612e4b86828701612aea565b9150509250925092565b7f426f756e747920616c726561647920636f6d706c657465640000000000000000600082015250565b6000612e8b601883612a02565b9150612e9682612e55565b602082019050919050565b60006020820190508181036000830152612eba81612e7e565b9050919050565b7f426f756e747920646561646c696e65206e6f7420726561636865640000000000600082015250565b6000612ef7601b83612a02565b9150612f0282612ec1565b602082019050919050565b60006020820190508181036000830152612f2681612eea565b9050919050565b7f4f6e6c7920626f756e74792063726561746f722063616e20636f6d706c65746560008201527f20626f756e747900000000000000000000000000000000000000000000000000602082015250565b6000612f89602783612a02565b9150612f9482612f2d565b604082019050919050565b60006020820190508181036000830152612fb881612f7c565b9050919050565b6000819050919050565b6000819050919050565b6000612fee612fe9612fe484612fbf565b612fc9565b6125db565b9050919050565b612ffe81612fd3565b82525050565b60006020820190506130196000830184612ff5565b92915050565b7f446561646c696e65206d75737420626520696e20746865206675747572650000600082015250565b6000613055601e83612a02565b91506130608261301f565b602082019050919050565b6000602082019050818103600083015261308481613048565b9050919050565b7f526577617264206d7573742062652067726561746572207468616e2030000000600082015250565b60006130c1601d83612a02565b91506130cc8261308b565b602082019050919050565b600060208201905081810360008301526130f0816130b4565b9050919050565b7f4d7573742073656e642065786163742072657761726420616d6f756e74000000600082015250565b600061312d601d83612a02565b9150613138826130f7565b602082019050919050565b6000602082019050818103600083015261315c81613120565b9050919050565b7f4e487b7100000000000000000000000000000000000000000000000000000000600052601160045260246000fd5b600061319d826125db565b91507fffffffffffffffffffffffffffffffffffffffffffffffffffffffffffffffff8214156131d0576131cf613163565b5b600182019050919050565b600060408201905081810360008301526131f58185612a46565b90506132046020830184612853565b9392505050565b7f426f756e747920646561646c696e652068617320706173736564000000000000600082015250565b6000613241601a83612a02565b915061324c8261320b565b602082019050919050565b6000602082019050818103600083015261327081613234565b9050919050565b7f496e76616c69642070726f6f662068617368206c656e67746800000000000000600082015250565b60006132ad601983612a02565b91506132b882613277565b602082019050919050565b600060208201905081810360008301526132dc816132a0565b9050919050565b7f416c7265616479207375626d697474656420612070726f6f6600000000000000600082015250565b6000613319601983612a02565b9150613324826132e3565b602082019050919050565b600060208201905081810360008301526133488161330c565b9050919050565b50565b600061335f600083612a02565b915061336a8261334f565b600082019050919050565b6000604082019050818103600083015261338f8184612a46565b905081810360208301526133a281613352565b905092915050565b7f4f6e6c7920626f756e74792063726561746f722063616e20736574207265776160008201527f7264730000000000000000000000000000000000000000000000000000000000602082015250565b6000613406602383612a02565b9150613411826133aa565b604082019050919050565b60006020820190508181036000830152613435816133f9565b9050919050565b7f43616e6e6f742073657420726577617264206265666f726520646561646c696e60008201527f6500000000000000000000000000000000000000000000000000000000000000602082015250565b6000613498602183612a02565b91506134a38261343c565b604082019050919050565b600060208201905081810360008301526134c78161348b565b9050919050565b7f496e76616c6964207375626d697373696f6e2049440000000000000000000000600082015250565b6000613504601583612a02565b915061350f826134ce565b602082019050919050565b60006020820190508181036000830152613533816134f7565b9050919050565b7f5265776172642063616e6e6f742065786365656420626f756e747920616d6f7560008201527f6e74000000000000000000000000000000000000000000000000000000000000602082015250565b6000613596602283612a02565b91506135a18261353a565b604082019050919050565b600060208201905081810360008301526135c581613589565b9050919050565b7f43616e206f6e6c79207365742072657761726420666f7220617070726f76656460008201527f207375626d697373696f6e730000000000000000000000000000000000000000602082015250565b6000613628602c83612a02565b9150613633826135cc565b604082019050919050565b600060208201905081810360008301526136578161361b565b9050919050565b7f52657761726420616c72656164792073657420666f722074686973207375626d60008201527f697373696f6e0000000000000000000000000000000000000000000000000000602082015250565b60006136ba602683612a02565b91506136c58261365e565b604082019050919050565b600060208201905081810360008301526136e9816136ad565b9050919050565b600081905092915050565b60006137086000836136f0565b91506137138261334f565b600082019050919050565b6000613729826136fb565b9150819050919050565b7f5472616e73666572206661696c65640000000000000000000000000000000000600082015250565b6000613769600f83612a02565b915061377482613733565b602082019050919050565b600060208201905081810360008301526137988161375c565b9050919050565b60006137aa826125db565b91506137b5836125db565b9250828210156137c8576137c7613163565b5b828203905092915050565b7f52657475726e207472616e73666572206661696c656400000000000000000000600082015250565b6000613809601683612a02565b9150613814826137d3565b602082019050919050565b60006020820190508181036000830152613838816137fc565b9050919050565b6000819050919050565b600061386461385f61385a8461383f565b612fc9565b6125db565b9050919050565b61387481613849565b82525050565b600060208201905061388f600083018461386b565b92915050565b60006040820190506138aa6000830184612853565b81810360208301526138bb81613352565b905092915050565b7f416c726561647920766f74656400000000000000000000000000000000000000600082015250565b60006138f9600d83612a02565b9150613904826138c3565b602082019050919050565b60006020820190508181036000830152613928816138ec565b9050919050565b7f43616e6e6f7420766f7465206f6e206f776e207375626d697373696f6e000000600082015250565b6000613965601d83612a02565b91506139708261392f565b602082019050919050565b6000602082019050818103600083015261399481613958565b9050919050565b7f4e487b7100000000000000000000000000000000000000000000000000000000600052602260045260246000fd5b600060028204905060018216806139e257607f821691505b602082108114156139f6576139f561399b565b5b50919050565b7f4f776e61626c653a206e6577206f776e657220697320746865207a65726f206160008201527f6464726573730000000000000000000000000000000000000000000000000000602082015250565b6000613a58602683612a02565b9150613a63826139fc565b604082019050919050565b60006020820190508181036000830152613a8781613a4b565b9050919050565b7f5265656e7472616e637947756172643a207265656e7472616e742063616c6c00600082015250565b6000613ac4601f83612a02565b9150613acf82613a8e565b602082019050919050565b60006020820190508181036000830152613af381613ab7565b9050919050565b7f4f776e61626c653a2063616c6c6572206973206e6f7420746865206f776e6572600082015250565b6000613b30602083612a02565b9150613b3b82613afa565b602082019050919050565b60006020820190508181036000830152613b5f81613b23565b905091905056fea2646970667358221220f5e479a89f9bea15253a5dd0dc82e345305f3613cd867bb838fda0c9637fbd3764736f6c634300080a0033","opcodes":"PUSH1 0x80 PUSH1 0x40 MSTORE CALLVALUE DUP1 ISZERO PUSH3 0x11 JUMPI PUSH1 0x0 DUP1 REVERT JUMPDEST POP PUSH3 0x32 PUSH3 0x26 PUSH3 0x3F PUSH1 0x20 SHL PUSH1 0x20 SHR JUMP JUMPDEST PUSH3 0x47 PUSH1 0x20 SHL PUSH1 0x20 SHR JUMP JUMPDEST PUSH1 0x1 DUP1 DUP2 SWAP1 SSTORE POP PUSH3 0x10B JUMP JUMPDEST PUSH1 0x0 CALLER SWAP1 POP SWAP1 JUMP JUMPDEST PUSH1 0x0 DUP1 PUSH1 0x0 SWAP1 SLOAD SWAP1 PUSH2 0x100 EXP SWAP1 DIV PUSH20 0xFFFFFFFFFFFFFFFFFFFFFFFFFFFFFFFFFFFFFFFF AND SWAP1 POP DUP2 PUSH1 0x0 DUP1 PUSH2 0x100 EXP DUP2 SLOAD DUP2 PUSH20 0xFFFFFFFFFFFFFFFFFFFFFFFFFFFFFFFFFFFFFFFF MUL NOT AND SWAP1 DUP4 PUSH20 0xFFFFFFFFFFFFFFFFFFFFFFFFFFFFFFFFFFFFFFFF AND MUL OR SWAP1 SSTORE POP DUP2 PUSH20 0xFFFFFFFFFFFFFFFFFFFFFFFFFFFFFFFFFFFFFFFF AND DUP2 PUSH20 0xFFFFFFFFFFFFFFFFFFFFFFFFFFFFFFFFFFFFFFFF AND PUSH32 0x8BE0079C531659141344CD1FD0A4F28419497F9722A3DAAFE3B4186F6B6457E0 PUSH1 0x40 MLOAD PUSH1 0x40 MLOAD DUP1 SWAP2 SUB SWAP1 LOG3 POP POP JUMP JUMPDEST PUSH2 0x3B9C DUP1 PUSH3 0x11B PUSH1 0x0 CODECOPY PUSH1 0x0 RETURN INVALID PUSH1 0x80 PUSH1 0x40 MSTORE PUSH1 0x4 CALLDATASIZE LT PUSH2 0x144 JUMPI PUSH1 0x0 CALLDATALOAD PUSH1 0xE0 SHR DUP1 PUSH4 0x7B7E41DC GT PUSH2 0xB6 JUMPI DUP1 PUSH4 0xAB515883 GT PUSH2 0x6F JUMPI DUP1 PUSH4 0xAB515883 EQ PUSH2 0x494 JUMPI DUP1 PUSH4 0xB7ED7071 EQ PUSH2 0x4BF JUMPI DUP1 PUSH4 0xDC2F8744 EQ PUSH2 0x505 JUMPI DUP1 PUSH4 0xE503BB05 EQ PUSH2 0x54B JUMPI DUP1 PUSH4 0xF2FDE38B EQ PUSH2 0x588 JUMPI DUP1 PUSH4 0xFC40D6E7 EQ PUSH2 0x5B1 JUMPI PUSH2 0x14B JUMP JUMPDEST DUP1 PUSH4 0x7B7E41DC EQ PUSH2 0x338 JUMPI DUP1 PUSH4 0x7BE24CB8 EQ PUSH2 0x375 JUMPI DUP1 PUSH4 0x8DA5CB5B EQ PUSH2 0x3B2 JUMPI DUP1 PUSH4 0x91E4D9EA EQ PUSH2 0x3DD JUMPI DUP1 PUSH4 0xA57D3806 EQ PUSH2 0x41A JUMPI DUP1 PUSH4 0xA7B8614D EQ PUSH2 0x457 JUMPI PUSH2 0x14B JUMP JUMPDEST DUP1 PUSH4 0x4BDF9084 GT PUSH2 0x108 JUMPI DUP1 PUSH4 0x4BDF9084 EQ PUSH2 0x216 JUMPI DUP1 PUSH4 0x60B8AB57 EQ PUSH2 0x23F JUMPI DUP1 PUSH4 0x6591A185 EQ PUSH2 0x27C JUMPI DUP1 PUSH4 0x6BB987FE EQ PUSH2 0x2B9 JUMPI DUP1 PUSH4 0x715018A6 EQ PUSH2 0x2E4 JUMPI DUP1 PUSH4 0x77016EA3 EQ PUSH2 0x2FB JUMPI PUSH2 0x14B JUMP JUMPDEST DUP1 PUSH4 0x139005AB EQ PUSH2 0x14D JUMPI DUP1 PUSH4 0x1524E11B EQ PUSH2 0x176 JUMPI DUP1 PUSH4 0x2AF00510 EQ PUSH2 0x1A6 JUMPI DUP1 PUSH4 0x395C2A0C EQ PUSH2 0x1CF JUMPI DUP1 PUSH4 0x3E362C96 EQ PUSH2 0x1EB JUMPI PUSH2 0x14B JUMP JUMPDEST CALLDATASIZE PUSH2 0x14B JUMPI STOP JUMPDEST STOP JUMPDEST CALLVALUE DUP1 ISZERO PUSH2 0x159 JUMPI PUSH1 0x0 DUP1 REVERT JUMPDEST POP PUSH2 0x174 PUSH1 0x4 DUP1 CALLDATASIZE SUB DUP2 ADD SWAP1 PUSH2 0x16F SWAP2 SWAP1 PUSH2 0x2611 JUMP JUMPDEST PUSH2 0x5EE JUMP JUMPDEST STOP JUMPDEST PUSH2 0x190 PUSH1 0x4 DUP1 CALLDATASIZE SUB DUP2 ADD SWAP1 PUSH2 0x18B SWAP2 SWAP1 PUSH2 0x2784 JUMP JUMPDEST PUSH2 0x789 JUMP JUMPDEST PUSH1 0x40 MLOAD PUSH2 0x19D SWAP2 SWAP1 PUSH2 0x2862 JUMP JUMPDEST PUSH1 0x40 MLOAD DUP1 SWAP2 SUB SWAP1 RETURN JUMPDEST CALLVALUE DUP1 ISZERO PUSH2 0x1B2 JUMPI PUSH1 0x0 DUP1 REVERT JUMPDEST POP PUSH2 0x1CD PUSH1 0x4 DUP1 CALLDATASIZE SUB DUP2 ADD SWAP1 PUSH2 0x1C8 SWAP2 SWAP1 PUSH2 0x287D JUMP JUMPDEST PUSH2 0xA06 JUMP JUMPDEST STOP JUMPDEST PUSH2 0x1E9 PUSH1 0x4 DUP1 CALLDATASIZE SUB DUP2 ADD SWAP1 PUSH2 0x1E4 SWAP2 SWAP1 PUSH2 0x28D9 JUMP JUMPDEST PUSH2 0xDA1 JUMP JUMPDEST STOP JUMPDEST CALLVALUE DUP1 ISZERO PUSH2 0x1F7 JUMPI PUSH1 0x0 DUP1 REVERT JUMPDEST POP PUSH2 0x200 PUSH2 0x13E4 JUMP JUMPDEST PUSH1 0x40 MLOAD PUSH2 0x20D SWAP2 SWAP1 PUSH2 0x2862 JUMP JUMPDEST PUSH1 0x40 MLOAD DUP1 SWAP2 SUB SWAP1 RETURN JUMPDEST CALLVALUE DUP1 ISZERO PUSH2 0x222 JUMPI PUSH1 0x0 DUP1 REVERT JUMPDEST POP PUSH2 0x23D PUSH1 0x4 DUP1 CALLDATASIZE SUB DUP2 ADD SWAP1 PUSH2 0x238 SWAP2 SWAP1 PUSH2 0x2964 JUMP JUMPDEST PUSH2 0x13EA JUMP JUMPDEST STOP JUMPDEST CALLVALUE DUP1 ISZERO PUSH2 0x24B JUMPI PUSH1 0x0 DUP1 REVERT JUMPDEST POP PUSH2 0x266 PUSH1 0x4 DUP1 CALLDATASIZE SUB DUP2 ADD SWAP1 PUSH2 0x261 SWAP2 SWAP1 PUSH2 0x29B7 JUMP JUMPDEST PUSH2 0x180A JUMP JUMPDEST PUSH1 0x40 MLOAD PUSH2 0x273 SWAP2 SWAP1 PUSH2 0x2A7F JUMP JUMPDEST PUSH1 0x40 MLOAD DUP1 SWAP2 SUB SWAP1 RETURN JUMPDEST CALLVALUE DUP1 ISZERO PUSH2 0x288 JUMPI PUSH1 0x0 DUP1 REVERT JUMPDEST POP PUSH2 0x2A3 PUSH1 0x4 DUP1 CALLDATASIZE SUB DUP2 ADD SWAP1 PUSH2 0x29E SWAP2 SWAP1 PUSH2 0x2AFF JUMP JUMPDEST PUSH2 0x18C1 JUMP JUMPDEST PUSH1 0x40 MLOAD PUSH2 0x2B0 SWAP2 SWAP1 PUSH2 0x2BEA JUMP JUMPDEST PUSH1 0x40 MLOAD DUP1 SWAP2 SUB SWAP1 RETURN JUMPDEST CALLVALUE DUP1 ISZERO PUSH2 0x2C5 JUMPI PUSH1 0x0 DUP1 REVERT JUMPDEST POP PUSH2 0x2CE PUSH2 0x1958 JUMP JUMPDEST PUSH1 0x40 MLOAD PUSH2 0x2DB SWAP2 SWAP1 PUSH2 0x2862 JUMP JUMPDEST PUSH1 0x40 MLOAD DUP1 SWAP2 SUB SWAP1 RETURN JUMPDEST CALLVALUE DUP1 ISZERO PUSH2 0x2F0 JUMPI PUSH1 0x0 DUP1 REVERT JUMPDEST POP PUSH2 0x2F9 PUSH2 0x195E JUMP JUMPDEST STOP JUMPDEST CALLVALUE DUP1 ISZERO PUSH2 0x307 JUMPI PUSH1 0x0 DUP1 REVERT JUMPDEST POP PUSH2 0x322 PUSH1 0x4 DUP1 CALLDATASIZE SUB DUP2 ADD SWAP1 PUSH2 0x31D SWAP2 SWAP1 PUSH2 0x29B7 JUMP JUMPDEST PUSH2 0x1972 JUMP JUMPDEST PUSH1 0x40 MLOAD PUSH2 0x32F SWAP2 SWAP1 PUSH2 0x2A7F JUMP JUMPDEST PUSH1 0x40 MLOAD DUP1 SWAP2 SUB SWAP1 RETURN JUMPDEST CALLVALUE DUP1 ISZERO PUSH2 0x344 JUMPI PUSH1 0x0 DUP1 REVERT JUMPDEST POP PUSH2 0x35F PUSH1 0x4 DUP1 CALLDATASIZE SUB DUP2 ADD SWAP1 PUSH2 0x35A SWAP2 SWAP1 PUSH2 0x29B7 JUMP JUMPDEST PUSH2 0x1A29 JUMP JUMPDEST PUSH1 0x40 MLOAD PUSH2 0x36C SWAP2 SWAP1 PUSH2 0x2A7F JUMP JUMPDEST PUSH1 0x40 MLOAD DUP1 SWAP2 SUB SWAP1 RETURN JUMPDEST CALLVALUE DUP1 ISZERO PUSH2 0x381 JUMPI PUSH1 0x0 DUP1 REVERT JUMPDEST POP PUSH2 0x39C PUSH1 0x4 DUP1 CALLDATASIZE SUB DUP2 ADD SWAP1 PUSH2 0x397 SWAP2 SWAP1 PUSH2 0x2611 JUMP JUMPDEST PUSH2 0x1AD6 JUMP JUMPDEST PUSH1 0x40 MLOAD PUSH2 0x3A9 SWAP2 SWAP1 PUSH2 0x2862 JUMP JUMPDEST PUSH1 0x40 MLOAD DUP1 SWAP2 SUB SWAP1 RETURN JUMPDEST CALLVALUE DUP1 ISZERO PUSH2 0x3BE JUMPI PUSH1 0x0 DUP1 REVERT JUMPDEST POP PUSH2 0x3C7 PUSH2 0x1AF6 JUMP JUMPDEST PUSH1 0x40 MLOAD PUSH2 0x3D4 SWAP2 SWAP1 PUSH2 0x2C1B JUMP JUMPDEST PUSH1 0x40 MLOAD DUP1 SWAP2 SUB SWAP1 RETURN JUMPDEST CALLVALUE DUP1 ISZERO PUSH2 0x3E9 JUMPI PUSH1 0x0 DUP1 REVERT JUMPDEST POP PUSH2 0x404 PUSH1 0x4 DUP1 CALLDATASIZE SUB DUP2 ADD SWAP1 PUSH2 0x3FF SWAP2 SWAP1 PUSH2 0x29B7 JUMP JUMPDEST PUSH2 0x1B1F JUMP JUMPDEST PUSH1 0x40 MLOAD PUSH2 0x411 SWAP2 SWAP1 PUSH2 0x2A7F JUMP JUMPDEST PUSH1 0x40 MLOAD DUP1 SWAP2 SUB SWAP1 RETURN JUMPDEST CALLVALUE DUP1 ISZERO PUSH2 0x426 JUMPI PUSH1 0x0 DUP1 REVERT JUMPDEST POP PUSH2 0x441 PUSH1 0x4 DUP1 CALLDATASIZE SUB DUP2 ADD SWAP1 PUSH2 0x43C SWAP2 SWAP1 PUSH2 0x2C36 JUMP JUMPDEST PUSH2 0x1BCC JUMP JUMPDEST PUSH1 0x40 MLOAD PUSH2 0x44E SWAP2 SWAP1 PUSH2 0x2C85 JUMP JUMPDEST PUSH1 0x40 MLOAD DUP1 SWAP2 SUB SWAP1 RETURN JUMPDEST CALLVALUE DUP1 ISZERO PUSH2 0x463 JUMPI PUSH1 0x0 DUP1 REVERT JUMPDEST POP PUSH2 0x47E PUSH1 0x4 DUP1 CALLDATASIZE SUB DUP2 ADD SWAP1 PUSH2 0x479 SWAP2 SWAP1 PUSH2 0x2AFF JUMP JUMPDEST PUSH2 0x1BFB JUMP JUMPDEST PUSH1 0x40 MLOAD PUSH2 0x48B SWAP2 SWAP1 PUSH2 0x2BEA JUMP JUMPDEST PUSH1 0x40 MLOAD DUP1 SWAP2 SUB SWAP1 RETURN JUMPDEST CALLVALUE DUP1 ISZERO PUSH2 0x4A0 JUMPI PUSH1 0x0 DUP1 REVERT JUMPDEST POP PUSH2 0x4A9 PUSH2 0x1C92 JUMP JUMPDEST PUSH1 0x40 MLOAD PUSH2 0x4B6 SWAP2 SWAP1 PUSH2 0x2862 JUMP JUMPDEST PUSH1 0x40 MLOAD DUP1 SWAP2 SUB SWAP1 RETURN JUMPDEST CALLVALUE DUP1 ISZERO PUSH2 0x4CB JUMPI PUSH1 0x0 DUP1 REVERT JUMPDEST POP PUSH2 0x4E6 PUSH1 0x4 DUP1 CALLDATASIZE SUB DUP2 ADD SWAP1 PUSH2 0x4E1 SWAP2 SWAP1 PUSH2 0x29B7 JUMP JUMPDEST PUSH2 0x1C97 JUMP JUMPDEST PUSH1 0x40 MLOAD PUSH2 0x4FC SWAP11 SWAP10 SWAP9 SWAP8 SWAP7 SWAP6 SWAP5 SWAP4 SWAP3 SWAP2 SWAP1 PUSH2 0x2CA0 JUMP JUMPDEST PUSH1 0x40 MLOAD DUP1 SWAP2 SUB SWAP1 RETURN JUMPDEST CALLVALUE DUP1 ISZERO PUSH2 0x511 JUMPI PUSH1 0x0 DUP1 REVERT JUMPDEST POP PUSH2 0x52C PUSH1 0x4 DUP1 CALLDATASIZE SUB DUP2 ADD SWAP1 PUSH2 0x527 SWAP2 SWAP1 PUSH2 0x2611 JUMP JUMPDEST PUSH2 0x1EAA JUMP JUMPDEST PUSH1 0x40 MLOAD PUSH2 0x542 SWAP11 SWAP10 SWAP9 SWAP8 SWAP7 SWAP6 SWAP5 SWAP4 SWAP3 SWAP2 SWAP1 PUSH2 0x2D51 JUMP JUMPDEST PUSH1 0x40 MLOAD DUP1 SWAP2 SUB SWAP1 RETURN JUMPDEST CALLVALUE DUP1 ISZERO PUSH2 0x557 JUMPI PUSH1 0x0 DUP1 REVERT JUMPDEST POP PUSH2 0x572 PUSH1 0x4 DUP1 CALLDATASIZE SUB DUP2 ADD SWAP1 PUSH2 0x56D SWAP2 SWAP1 PUSH2 0x2AFF JUMP JUMPDEST PUSH2 0x20C3 JUMP JUMPDEST PUSH1 0x40 MLOAD PUSH2 0x57F SWAP2 SWAP1 PUSH2 0x2862 JUMP JUMPDEST PUSH1 0x40 MLOAD DUP1 SWAP2 SUB SWAP1 RETURN JUMPDEST CALLVALUE DUP1 ISZERO PUSH2 0x594 JUMPI PUSH1 0x0 DUP1 REVERT JUMPDEST POP PUSH2 0x5AF PUSH1 0x4 DUP1 CALLDATASIZE SUB DUP2 ADD SWAP1 PUSH2 0x5AA SWAP2 SWAP1 PUSH2 0x2AFF JUMP JUMPDEST PUSH2 0x20DB JUMP JUMPDEST STOP JUMPDEST CALLVALUE DUP1 ISZERO PUSH2 0x5BD JUMPI PUSH1 0x0 DUP1 REVERT JUMPDEST POP PUSH2 0x5D8 PUSH1 0x4 DUP1 CALLDATASIZE SUB DUP2 ADD SWAP1 PUSH2 0x5D3 SWAP2 SWAP1 PUSH2 0x2E02 JUMP JUMPDEST PUSH2 0x215F JUMP JUMPDEST PUSH1 0x40 MLOAD PUSH2 0x5E5 SWAP2 SWAP1 PUSH2 0x2C85 JUMP JUMPDEST PUSH1 0x40 MLOAD DUP1 SWAP2 SUB SWAP1 RETURN JUMPDEST PUSH1 0x0 PUSH1 0x3 PUSH1 0x0 DUP4 DUP2 MSTORE PUSH1 0x20 ADD SWAP1 DUP2 MSTORE PUSH1 0x20 ADD PUSH1 0x0 KECCAK256 SWAP1 POP DUP1 PUSH1 0x7 ADD PUSH1 0x0 SWAP1 SLOAD SWAP1 PUSH2 0x100 EXP SWAP1 DIV PUSH1 0xFF AND ISZERO PUSH2 0x657 JUMPI PUSH1 0x40 MLOAD PUSH32 0x8C379A000000000000000000000000000000000000000000000000000000000 DUP2 MSTORE PUSH1 0x4 ADD PUSH2 0x64E SWAP1 PUSH2 0x2EA1 JUMP JUMPDEST PUSH1 0x40 MLOAD DUP1 SWAP2 SUB SWAP1 REVERT JUMPDEST DUP1 PUSH1 0x6 ADD SLOAD TIMESTAMP GT PUSH2 0x69D JUMPI PUSH1 0x40 MLOAD PUSH32 0x8C379A000000000000000000000000000000000000000000000000000000000 DUP2 MSTORE PUSH1 0x4 ADD PUSH2 0x694 SWAP1 PUSH2 0x2F0D JUMP JUMPDEST PUSH1 0x40 MLOAD DUP1 SWAP2 SUB SWAP1 REVERT JUMPDEST DUP1 PUSH1 0x1 ADD PUSH1 0x0 SWAP1 SLOAD SWAP1 PUSH2 0x100 EXP SWAP1 DIV PUSH20 0xFFFFFFFFFFFFFFFFFFFFFFFFFFFFFFFFFFFFFFFF AND PUSH20 0xFFFFFFFFFFFFFFFFFFFFFFFFFFFFFFFFFFFFFFFF AND CALLER PUSH20 0xFFFFFFFFFFFFFFFFFFFFFFFFFFFFFFFFFFFFFFFF AND EQ PUSH2 0x72F JUMPI PUSH1 0x40 MLOAD PUSH32 0x8C379A000000000000000000000000000000000000000000000000000000000 DUP2 MSTORE PUSH1 0x4 ADD PUSH2 0x726 SWAP1 PUSH2 0x2F9F JUMP JUMPDEST PUSH1 0x40 MLOAD DUP1 SWAP2 SUB SWAP1 REVERT JUMPDEST PUSH1 0x1 DUP2 PUSH1 0x7 ADD PUSH1 0x0 PUSH2 0x100 EXP DUP2 SLOAD DUP2 PUSH1 0xFF MUL NOT AND SWAP1 DUP4 ISZERO ISZERO MUL OR SWAP1 SSTORE POP DUP2 PUSH32 0xB14E20043C98EF6452108C9D9477C2033A076DCC80324B977BF42BCB130A49A9 PUSH1 0x0 PUSH1 0x40 MLOAD PUSH2 0x77D SWAP2 SWAP1 PUSH2 0x3004 JUMP JUMPDEST PUSH1 0x40 MLOAD DUP1 SWAP2 SUB SWAP1 LOG2 POP POP JUMP JUMPDEST PUSH1 0x0 TIMESTAMP DUP3 GT PUSH2 0x7CD JUMPI PUSH1 0x40 MLOAD PUSH32 0x8C379A000000000000000000000000000000000000000000000000000000000 DUP2 MSTORE PUSH1 0x4 ADD PUSH2 0x7C4 SWAP1 PUSH2 0x306B JUMP JUMPDEST PUSH1 0x40 MLOAD DUP1 SWAP2 SUB SWAP1 REVERT JUMPDEST PUSH1 0x0 DUP4 GT PUSH2 0x810 JUMPI PUSH1 0x40 MLOAD PUSH32 0x8C379A000000000000000000000000000000000000000000000000000000000 DUP2 MSTORE PUSH1 0x4 ADD PUSH2 0x807 SWAP1 PUSH2 0x30D7 JUMP JUMPDEST PUSH1 0x40 MLOAD DUP1 SWAP2 SUB SWAP1 REVERT JUMPDEST DUP3 CALLVALUE EQ PUSH2 0x852 JUMPI PUSH1 0x40 MLOAD PUSH32 0x8C379A000000000000000000000000000000000000000000000000000000000 DUP2 MSTORE PUSH1 0x4 ADD PUSH2 0x849 SWAP1 PUSH2 0x3143 JUMP JUMPDEST PUSH1 0x40 MLOAD DUP1 SWAP2 SUB SWAP1 REVERT JUMPDEST PUSH1 0x0 PUSH1 0x2 PUSH1 0x0 DUP2 SLOAD DUP1 SWAP3 SWAP2 SWAP1 PUSH2 0x867 SWAP1 PUSH2 0x3192 JUMP JUMPDEST SWAP2 SWAP1 POP SSTORE SWAP1 POP PUSH1 0x0 PUSH1 0x3 PUSH1 0x0 DUP4 DUP2 MSTORE PUSH1 0x20 ADD SWAP1 DUP2 MSTORE PUSH1 0x20 ADD PUSH1 0x0 KECCAK256 SWAP1 POP DUP2 DUP2 PUSH1 0x0 ADD DUP2 SWAP1 SSTORE POP CALLER DUP2 PUSH1 0x1 ADD PUSH1 0x0 PUSH2 0x100 EXP DUP2 SLOAD DUP2 PUSH20 0xFFFFFFFFFFFFFFFFFFFFFFFFFFFFFFFFFFFFFFFF MUL NOT AND SWAP1 DUP4 PUSH20 0xFFFFFFFFFFFFFFFFFFFFFFFFFFFFFFFFFFFFFFFF AND MUL OR SWAP1 SSTORE POP DUP8 DUP2 PUSH1 0x2 ADD SWAP1 DUP1 MLOAD SWAP1 PUSH1 0x20 ADD SWAP1 PUSH2 0x8E8 SWAP3 SWAP2 SWAP1 PUSH2 0x2524 JUMP JUMPDEST POP DUP7 DUP2 PUSH1 0x3 ADD SWAP1 DUP1 MLOAD SWAP1 PUSH1 0x20 ADD SWAP1 PUSH2 0x901 SWAP3 SWAP2 SWAP1 PUSH2 0x2524 JUMP JUMPDEST POP DUP6 DUP2 PUSH1 0x4 ADD SWAP1 DUP1 MLOAD SWAP1 PUSH1 0x20 ADD SWAP1 PUSH2 0x91A SWAP3 SWAP2 SWAP1 PUSH2 0x2524 JUMP JUMPDEST POP DUP5 DUP2 PUSH1 0x5 ADD DUP2 SWAP1 SSTORE POP DUP4 DUP2 PUSH1 0x6 ADD DUP2 SWAP1 SSTORE POP PUSH1 0x0 DUP2 PUSH1 0x9 ADD DUP2 SWAP1 SSTORE POP PUSH1 0x0 DUP2 PUSH1 0x8 ADD DUP2 SWAP1 SSTORE POP PUSH1 0x5 PUSH1 0x0 CALLER PUSH20 0xFFFFFFFFFFFFFFFFFFFFFFFFFFFFFFFFFFFFFFFF AND PUSH20 0xFFFFFFFFFFFFFFFFFFFFFFFFFFFFFFFFFFFFFFFF AND DUP2 MSTORE PUSH1 0x20 ADD SWAP1 DUP2 MSTORE PUSH1 0x20 ADD PUSH1 0x0 KECCAK256 DUP3 SWAP1 DUP1 PUSH1 0x1 DUP2 SLOAD ADD DUP1 DUP3 SSTORE DUP1 SWAP2 POP POP PUSH1 0x1 SWAP1 SUB SWAP1 PUSH1 0x0 MSTORE PUSH1 0x20 PUSH1 0x0 KECCAK256 ADD PUSH1 0x0 SWAP1 SWAP2 SWAP1 SWAP2 SWAP1 SWAP2 POP SSTORE CALLER PUSH20 0xFFFFFFFFFFFFFFFFFFFFFFFFFFFFFFFFFFFFFFFF AND DUP3 PUSH32 0x64B439309954F148E681118E8F6556D39F6204A461E3307190A6928618FF2655 DUP11 DUP9 PUSH1 0x40 MLOAD PUSH2 0x9F0 SWAP3 SWAP2 SWAP1 PUSH2 0x31DB JUMP JUMPDEST PUSH1 0x40 MLOAD DUP1 SWAP2 SUB SWAP1 LOG3 DUP2 SWAP3 POP POP POP SWAP6 SWAP5 POP POP POP POP POP JUMP JUMPDEST PUSH1 0x0 PUSH1 0x3 PUSH1 0x0 DUP5 DUP2 MSTORE PUSH1 0x20 ADD SWAP1 DUP2 MSTORE PUSH1 0x20 ADD PUSH1 0x0 KECCAK256 SWAP1 POP DUP1 PUSH1 0x7 ADD PUSH1 0x0 SWAP1 SLOAD SWAP1 PUSH2 0x100 EXP SWAP1 DIV PUSH1 0xFF AND ISZERO PUSH2 0xA6F JUMPI PUSH1 0x40 MLOAD PUSH32 0x8C379A000000000000000000000000000000000000000000000000000000000 DUP2 MSTORE PUSH1 0x4 ADD PUSH2 0xA66 SWAP1 PUSH2 0x2EA1 JUMP JUMPDEST PUSH1 0x40 MLOAD DUP1 SWAP2 SUB SWAP1 REVERT JUMPDEST DUP1 PUSH1 0x6 ADD SLOAD TIMESTAMP GT ISZERO PUSH2 0xAB6 JUMPI PUSH1 0x40 MLOAD PUSH32 0x8C379A000000000000000000000000000000000000000000000000000000000 DUP2 MSTORE PUSH1 0x4 ADD PUSH2 0xAAD SWAP1 PUSH2 0x3257 JUMP JUMPDEST PUSH1 0x40 MLOAD DUP1 SWAP2 SUB SWAP1 REVERT JUMPDEST PUSH1 0x0 DUP3 MLOAD GT DUP1 ISZERO PUSH2 0xAC9 JUMPI POP PUSH1 0x64 DUP3 MLOAD GT ISZERO JUMPDEST PUSH2 0xB08 JUMPI PUSH1 0x40 MLOAD PUSH32 0x8C379A000000000000000000000000000000000000000000000000000000000 DUP2 MSTORE PUSH1 0x4 ADD PUSH2 0xAFF SWAP1 PUSH2 0x32C3 JUMP JUMPDEST PUSH1 0x40 MLOAD DUP1 SWAP2 SUB SWAP1 REVERT JUMPDEST PUSH1 0x9 PUSH1 0x0 DUP5 DUP2 MSTORE PUSH1 0x20 ADD SWAP1 DUP2 MSTORE PUSH1 0x20 ADD PUSH1 0x0 KECCAK256 PUSH1 0x0 CALLER PUSH20 0xFFFFFFFFFFFFFFFFFFFFFFFFFFFFFFFFFFFFFFFF AND PUSH20 0xFFFFFFFFFFFFFFFFFFFFFFFFFFFFFFFFFFFFFFFF AND DUP2 MSTORE PUSH1 0x20 ADD SWAP1 DUP2 MSTORE PUSH1 0x20 ADD PUSH1 0x0 KECCAK256 PUSH1 0x0 SWAP1 SLOAD SWAP1 PUSH2 0x100 EXP SWAP1 DIV PUSH1 0xFF AND ISZERO PUSH2 0xBA6 JUMPI PUSH1 0x40 MLOAD PUSH32 0x8C379A000000000000000000000000000000000000000000000000000000000 DUP2 MSTORE PUSH1 0x4 ADD PUSH2 0xB9D SWAP1 PUSH2 0x332F JUMP JUMPDEST PUSH1 0x40 MLOAD DUP1 SWAP2 SUB SWAP1 REVERT JUMPDEST PUSH1 0x0 DUP2 PUSH1 0x9 ADD PUSH1 0x0 DUP2 SLOAD DUP1 SWAP3 SWAP2 SWAP1 PUSH2 0xBBD SWAP1 PUSH2 0x3192 JUMP JUMPDEST SWAP2 SWAP1 POP SSTORE SWAP1 POP PUSH1 0x0 DUP3 PUSH1 0xA ADD PUSH1 0x0 DUP4 DUP2 MSTORE PUSH1 0x20 ADD SWAP1 DUP2 MSTORE PUSH1 0x20 ADD PUSH1 0x0 KECCAK256 SWAP1 POP CALLER DUP2 PUSH1 0x0 ADD PUSH1 0x0 PUSH2 0x100 EXP DUP2 SLOAD DUP2 PUSH20 0xFFFFFFFFFFFFFFFFFFFFFFFFFFFFFFFFFFFFFFFF MUL NOT AND SWAP1 DUP4 PUSH20 0xFFFFFFFFFFFFFFFFFFFFFFFFFFFFFFFFFFFFFFFF AND MUL OR SWAP1 SSTORE POP DUP4 DUP2 PUSH1 0x1 ADD SWAP1 DUP1 MLOAD SWAP1 PUSH1 0x20 ADD SWAP1 PUSH2 0xC37 SWAP3 SWAP2 SWAP1 PUSH2 0x2524 JUMP JUMPDEST POP TIMESTAMP DUP2 PUSH1 0x2 ADD DUP2 SWAP1 SSTORE POP PUSH1 0x0 DUP2 PUSH1 0x4 ADD DUP2 SWAP1 SSTORE POP PUSH1 0x0 DUP2 PUSH1 0x5 ADD DUP2 SWAP1 SSTORE POP PUSH1 0x0 DUP2 PUSH1 0x6 ADD PUSH1 0x0 PUSH2 0x100 EXP DUP2 SLOAD DUP2 PUSH1 0xFF MUL NOT AND SWAP1 DUP4 ISZERO ISZERO MUL OR SWAP1 SSTORE POP PUSH1 0x0 DUP2 PUSH1 0x7 ADD DUP2 SWAP1 SSTORE POP PUSH1 0x1 PUSH1 0x9 PUSH1 0x0 DUP8 DUP2 MSTORE PUSH1 0x20 ADD SWAP1 DUP2 MSTORE PUSH1 0x20 ADD PUSH1 0x0 KECCAK256 PUSH1 0x0 CALLER PUSH20 0xFFFFFFFFFFFFFFFFFFFFFFFFFFFFFFFFFFFFFFFF AND PUSH20 0xFFFFFFFFFFFFFFFFFFFFFFFFFFFFFFFFFFFFFFFF AND DUP2 MSTORE PUSH1 0x20 ADD SWAP1 DUP2 MSTORE PUSH1 0x20 ADD PUSH1 0x0 KECCAK256 PUSH1 0x0 PUSH2 0x100 EXP DUP2 SLOAD DUP2 PUSH1 0xFF MUL NOT AND SWAP1 DUP4 ISZERO ISZERO MUL OR SWAP1 SSTORE POP PUSH1 0x6 PUSH1 0x0 CALLER PUSH20 0xFFFFFFFFFFFFFFFFFFFFFFFFFFFFFFFFFFFFFFFF AND PUSH20 0xFFFFFFFFFFFFFFFFFFFFFFFFFFFFFFFFFFFFFFFF AND DUP2 MSTORE PUSH1 0x20 ADD SWAP1 DUP2 MSTORE PUSH1 0x20 ADD PUSH1 0x0 KECCAK256 DUP6 SWAP1 DUP1 PUSH1 0x1 DUP2 SLOAD ADD DUP1 DUP3 SSTORE DUP1 SWAP2 POP POP PUSH1 0x1 SWAP1 SUB SWAP1 PUSH1 0x0 MSTORE PUSH1 0x20 PUSH1 0x0 KECCAK256 ADD PUSH1 0x0 SWAP1 SWAP2 SWAP1 SWAP2 SWAP1 SWAP2 POP SSTORE CALLER PUSH20 0xFFFFFFFFFFFFFFFFFFFFFFFFFFFFFFFFFFFFFFFF AND DUP6 PUSH32 0xC0B04028E7B044E610E837C16AA829C3AC6EDA886999B98BE29A1449DB097014 DUP7 PUSH1 0x40 MLOAD PUSH2 0xD92 SWAP2 SWAP1 PUSH2 0x3375 JUMP JUMPDEST PUSH1 0x40 MLOAD DUP1 SWAP2 SUB SWAP1 LOG3 POP POP POP POP POP JUMP JUMPDEST PUSH2 0xDA9 PUSH2 0x21DF JUMP JUMPDEST PUSH1 0x0 PUSH1 0x3 PUSH1 0x0 DUP6 DUP2 MSTORE PUSH1 0x20 ADD SWAP1 DUP2 MSTORE PUSH1 0x20 ADD PUSH1 0x0 KECCAK256 SWAP1 POP DUP1 PUSH1 0x1 ADD PUSH1 0x0 SWAP1 SLOAD SWAP1 PUSH2 0x100 EXP SWAP1 DIV PUSH20 0xFFFFFFFFFFFFFFFFFFFFFFFFFFFFFFFFFFFFFFFF AND PUSH20 0xFFFFFFFFFFFFFFFFFFFFFFFFFFFFFFFFFFFFFFFF AND CALLER PUSH20 0xFFFFFFFFFFFFFFFFFFFFFFFFFFFFFFFFFFFFFFFF AND EQ PUSH2 0xE52 JUMPI PUSH1 0x40 MLOAD PUSH32 0x8C379A000000000000000000000000000000000000000000000000000000000 DUP2 MSTORE PUSH1 0x4 ADD PUSH2 0xE49 SWAP1 PUSH2 0x341C JUMP JUMPDEST PUSH1 0x40 MLOAD DUP1 SWAP2 SUB SWAP1 REVERT JUMPDEST DUP1 PUSH1 0x7 ADD PUSH1 0x0 SWAP1 SLOAD SWAP1 PUSH2 0x100 EXP SWAP1 DIV PUSH1 0xFF AND ISZERO PUSH2 0xEA4 JUMPI PUSH1 0x40 MLOAD PUSH32 0x8C379A000000000000000000000000000000000000000000000000000000000 DUP2 MSTORE PUSH1 0x4 ADD PUSH2 0xE9B SWAP1 PUSH2 0x2EA1 JUMP JUMPDEST PUSH1 0x40 MLOAD DUP1 SWAP2 SUB SWAP1 REVERT JUMPDEST DUP1 PUSH1 0x6 ADD SLOAD TIMESTAMP GT PUSH2 0xEEA JUMPI PUSH1 0x40 MLOAD PUSH32 0x8C379A000000000000000000000000000000000000000000000000000000000 DUP2 MSTORE PUSH1 0x4 ADD PUSH2 0xEE1 SWAP1 PUSH2 0x34AE JUMP JUMPDEST PUSH1 0x40 MLOAD DUP1 SWAP2 SUB SWAP1 REVERT JUMPDEST DUP1 PUSH1 0x9 ADD SLOAD DUP4 LT PUSH2 0xF30 JUMPI PUSH1 0x40 MLOAD PUSH32 0x8C379A000000000000000000000000000000000000000000000000000000000 DUP2 MSTORE PUSH1 0x4 ADD PUSH2 0xF27 SWAP1 PUSH2 0x351A JUMP JUMPDEST PUSH1 0x40 MLOAD DUP1 SWAP2 SUB SWAP1 REVERT JUMPDEST PUSH1 0x0 DUP3 GT PUSH2 0xF73 JUMPI PUSH1 0x40 MLOAD PUSH32 0x8C379A000000000000000000000000000000000000000000000000000000000 DUP2 MSTORE PUSH1 0x4 ADD PUSH2 0xF6A SWAP1 PUSH2 0x30D7 JUMP JUMPDEST PUSH1 0x40 MLOAD DUP1 SWAP2 SUB SWAP1 REVERT JUMPDEST DUP1 PUSH1 0x5 ADD SLOAD DUP3 GT ISZERO PUSH2 0xFBA JUMPI PUSH1 0x40 MLOAD PUSH32 0x8C379A000000000000000000000000000000000000000000000000000000000 DUP2 MSTORE PUSH1 0x4 ADD PUSH2 0xFB1 SWAP1 PUSH2 0x35AC JUMP JUMPDEST PUSH1 0x40 MLOAD DUP1 SWAP2 SUB SWAP1 REVERT JUMPDEST DUP2 CALLVALUE EQ PUSH2 0xFFC JUMPI PUSH1 0x40 MLOAD PUSH32 0x8C379A000000000000000000000000000000000000000000000000000000000 DUP2 MSTORE PUSH1 0x4 ADD PUSH2 0xFF3 SWAP1 PUSH2 0x3143 JUMP JUMPDEST PUSH1 0x40 MLOAD DUP1 SWAP2 SUB SWAP1 REVERT JUMPDEST PUSH1 0x0 DUP2 PUSH1 0xA ADD PUSH1 0x0 DUP6 DUP2 MSTORE PUSH1 0x20 ADD SWAP1 DUP2 MSTORE PUSH1 0x20 ADD PUSH1 0x0 KECCAK256 SWAP1 POP DUP1 PUSH1 0x3 ADD PUSH1 0x0 SWAP1 SLOAD SWAP1 PUSH2 0x100 EXP SWAP1 DIV PUSH1 0xFF AND PUSH2 0x1066 JUMPI PUSH1 0x40 MLOAD PUSH32 0x8C379A000000000000000000000000000000000000000000000000000000000 DUP2 MSTORE PUSH1 0x4 ADD PUSH2 0x105D SWAP1 PUSH2 0x363E JUMP JUMPDEST PUSH1 0x40 MLOAD DUP1 SWAP2 SUB SWAP1 REVERT JUMPDEST PUSH1 0x0 DUP2 PUSH1 0x7 ADD SLOAD EQ PUSH2 0x10AD JUMPI PUSH1 0x40 MLOAD PUSH32 0x8C379A000000000000000000000000000000000000000000000000000000000 DUP2 MSTORE PUSH1 0x4 ADD PUSH2 0x10A4 SWAP1 PUSH2 0x36D0 JUMP JUMPDEST PUSH1 0x40 MLOAD DUP1 SWAP2 SUB SWAP1 REVERT JUMPDEST DUP3 DUP2 PUSH1 0x7 ADD DUP2 SWAP1 SSTORE POP PUSH1 0x0 DUP2 PUSH1 0x0 ADD PUSH1 0x0 SWAP1 SLOAD SWAP1 PUSH2 0x100 EXP SWAP1 DIV PUSH20 0xFFFFFFFFFFFFFFFFFFFFFFFFFFFFFFFFFFFFFFFF AND PUSH20 0xFFFFFFFFFFFFFFFFFFFFFFFFFFFFFFFFFFFFFFFF AND DUP5 PUSH1 0x40 MLOAD PUSH2 0x1100 SWAP1 PUSH2 0x371E JUMP JUMPDEST PUSH1 0x0 PUSH1 0x40 MLOAD DUP1 DUP4 SUB DUP2 DUP6 DUP8 GAS CALL SWAP3 POP POP POP RETURNDATASIZE DUP1 PUSH1 0x0 DUP2 EQ PUSH2 0x113D JUMPI PUSH1 0x40 MLOAD SWAP2 POP PUSH1 0x1F NOT PUSH1 0x3F RETURNDATASIZE ADD AND DUP3 ADD PUSH1 0x40 MSTORE RETURNDATASIZE DUP3 MSTORE RETURNDATASIZE PUSH1 0x0 PUSH1 0x20 DUP5 ADD RETURNDATACOPY PUSH2 0x1142 JUMP JUMPDEST PUSH1 0x60 SWAP2 POP JUMPDEST POP POP SWAP1 POP DUP1 PUSH2 0x1186 JUMPI PUSH1 0x40 MLOAD PUSH32 0x8C379A000000000000000000000000000000000000000000000000000000000 DUP2 MSTORE PUSH1 0x4 ADD PUSH2 0x117D SWAP1 PUSH2 0x377F JUMP JUMPDEST PUSH1 0x40 MLOAD DUP1 SWAP2 SUB SWAP1 REVERT JUMPDEST DUP4 DUP4 PUSH1 0x5 ADD PUSH1 0x0 DUP3 DUP3 SLOAD PUSH2 0x119A SWAP2 SWAP1 PUSH2 0x379F JUMP JUMPDEST SWAP3 POP POP DUP2 SWAP1 SSTORE POP PUSH1 0x0 PUSH1 0x1 SWAP1 POP PUSH1 0x0 JUMPDEST DUP5 PUSH1 0x9 ADD SLOAD DUP2 LT ISZERO PUSH2 0x1214 JUMPI PUSH1 0x0 DUP6 PUSH1 0xA ADD PUSH1 0x0 DUP4 DUP2 MSTORE PUSH1 0x20 ADD SWAP1 DUP2 MSTORE PUSH1 0x20 ADD PUSH1 0x0 KECCAK256 SWAP1 POP DUP1 PUSH1 0x3 ADD PUSH1 0x0 SWAP1 SLOAD SWAP1 PUSH2 0x100 EXP SWAP1 DIV PUSH1 0xFF AND DUP1 ISZERO PUSH2 0x11F1 JUMPI POP PUSH1 0x0 DUP2 PUSH1 0x7 ADD SLOAD EQ JUMPDEST ISZERO PUSH2 0x1200 JUMPI PUSH1 0x0 SWAP3 POP POP PUSH2 0x1214 JUMP JUMPDEST POP DUP1 DUP1 PUSH2 0x120C SWAP1 PUSH2 0x3192 JUMP JUMPDEST SWAP2 POP POP PUSH2 0x11AA JUMP JUMPDEST POP DUP1 ISZERO PUSH2 0x135F JUMPI PUSH1 0x0 DUP5 PUSH1 0x5 ADD SLOAD GT ISZERO PUSH2 0x1308 JUMPI PUSH1 0x0 DUP5 PUSH1 0x1 ADD PUSH1 0x0 SWAP1 SLOAD SWAP1 PUSH2 0x100 EXP SWAP1 DIV PUSH20 0xFFFFFFFFFFFFFFFFFFFFFFFFFFFFFFFFFFFFFFFF AND PUSH20 0xFFFFFFFFFFFFFFFFFFFFFFFFFFFFFFFFFFFFFFFF AND DUP6 PUSH1 0x5 ADD SLOAD PUSH1 0x40 MLOAD PUSH2 0x1276 SWAP1 PUSH2 0x371E JUMP JUMPDEST PUSH1 0x0 PUSH1 0x40 MLOAD DUP1 DUP4 SUB DUP2 DUP6 DUP8 GAS CALL SWAP3 POP POP POP RETURNDATASIZE DUP1 PUSH1 0x0 DUP2 EQ PUSH2 0x12B3 JUMPI PUSH1 0x40 MLOAD SWAP2 POP PUSH1 0x1F NOT PUSH1 0x3F RETURNDATASIZE ADD AND DUP3 ADD PUSH1 0x40 MSTORE RETURNDATASIZE DUP3 MSTORE RETURNDATASIZE PUSH1 0x0 PUSH1 0x20 DUP5 ADD RETURNDATACOPY PUSH2 0x12B8 JUMP JUMPDEST PUSH1 0x60 SWAP2 POP JUMPDEST POP POP SWAP1 POP DUP1 PUSH2 0x12FC JUMPI PUSH1 0x40 MLOAD PUSH32 0x8C379A000000000000000000000000000000000000000000000000000000000 DUP2 MSTORE PUSH1 0x4 ADD PUSH2 0x12F3 SWAP1 PUSH2 0x381F JUMP JUMPDEST PUSH1 0x40 MLOAD DUP1 SWAP2 SUB SWAP1 REVERT JUMPDEST PUSH1 0x0 DUP6 PUSH1 0x5 ADD DUP2 SWAP1 SSTORE POP POP JUMPDEST PUSH1 0x1 DUP5 PUSH1 0x7 ADD PUSH1 0x0 PUSH2 0x100 EXP DUP2 SLOAD DUP2 PUSH1 0xFF MUL NOT AND SWAP1 DUP4 ISZERO ISZERO MUL OR SWAP1 SSTORE POP DUP7 PUSH32 0xB14E20043C98EF6452108C9D9477C2033A076DCC80324B977BF42BCB130A49A9 PUSH1 0x1 PUSH1 0x40 MLOAD PUSH2 0x1356 SWAP2 SWAP1 PUSH2 0x387A JUMP JUMPDEST PUSH1 0x40 MLOAD DUP1 SWAP2 SUB SWAP1 LOG2 JUMPDEST DUP3 PUSH1 0x0 ADD PUSH1 0x0 SWAP1 SLOAD SWAP1 PUSH2 0x100 EXP SWAP1 DIV PUSH20 0xFFFFFFFFFFFFFFFFFFFFFFFFFFFFFFFFFFFFFFFF AND PUSH20 0xFFFFFFFFFFFFFFFFFFFFFFFFFFFFFFFFFFFFFFFF AND DUP7 DUP9 PUSH32 0xC9A6981A3706821E95D9AD05F7921DEDE8F51B4B7A31DCA8C009F6C08615714D DUP9 PUSH1 0x40 MLOAD PUSH2 0x13CB SWAP2 SWAP1 PUSH2 0x3895 JUMP JUMPDEST PUSH1 0x40 MLOAD DUP1 SWAP2 SUB SWAP1 LOG4 POP POP POP POP PUSH2 0x13DF PUSH2 0x222F JUMP JUMPDEST POP POP POP JUMP JUMPDEST PUSH1 0x2 SLOAD DUP2 JUMP JUMPDEST PUSH1 0x0 PUSH1 0x3 PUSH1 0x0 DUP6 DUP2 MSTORE PUSH1 0x20 ADD SWAP1 DUP2 MSTORE PUSH1 0x20 ADD PUSH1 0x0 KECCAK256 SWAP1 POP DUP1 PUSH1 0x9 ADD SLOAD DUP4 LT PUSH2 0x1447 JUMPI PUSH1 0x40 MLOAD PUSH32 0x8C379A000000000000000000000000000000000000000000000000000000000 DUP2 MSTORE PUSH1 0x4 ADD PUSH2 0x143E SWAP1 PUSH2 0x351A JUMP JUMPDEST PUSH1 0x40 MLOAD DUP1 SWAP2 SUB SWAP1 REVERT JUMPDEST PUSH1 0x0 DUP2 PUSH1 0xA ADD PUSH1 0x0 DUP6 DUP2 MSTORE PUSH1 0x20 ADD SWAP1 DUP2 MSTORE PUSH1 0x20 ADD PUSH1 0x0 KECCAK256 SWAP1 POP DUP2 PUSH1 0x7 ADD PUSH1 0x0 SWAP1 SLOAD SWAP1 PUSH2 0x100 EXP SWAP1 DIV PUSH1 0xFF AND ISZERO PUSH2 0x14B2 JUMPI PUSH1 0x40 MLOAD PUSH32 0x8C379A000000000000000000000000000000000000000000000000000000000 DUP2 MSTORE PUSH1 0x4 ADD PUSH2 0x14A9 SWAP1 PUSH2 0x2EA1 JUMP JUMPDEST PUSH1 0x40 MLOAD DUP1 SWAP2 SUB SWAP1 REVERT JUMPDEST DUP1 PUSH1 0x8 ADD PUSH1 0x0 CALLER PUSH20 0xFFFFFFFFFFFFFFFFFFFFFFFFFFFFFFFFFFFFFFFF AND PUSH20 0xFFFFFFFFFFFFFFFFFFFFFFFFFFFFFFFFFFFFFFFF AND DUP2 MSTORE PUSH1 0x20 ADD SWAP1 DUP2 MSTORE PUSH1 0x20 ADD PUSH1 0x0 KECCAK256 PUSH1 0x0 SWAP1 SLOAD SWAP1 PUSH2 0x100 EXP SWAP1 DIV PUSH1 0xFF AND ISZERO PUSH2 0x1541 JUMPI PUSH1 0x40 MLOAD PUSH32 0x8C379A000000000000000000000000000000000000000000000000000000000 DUP2 MSTORE PUSH1 0x4 ADD PUSH2 0x1538 SWAP1 PUSH2 0x390F JUMP JUMPDEST PUSH1 0x40 MLOAD DUP1 SWAP2 SUB SWAP1 REVERT JUMPDEST DUP1 PUSH1 0x0 ADD PUSH1 0x0 SWAP1 SLOAD SWAP1 PUSH2 0x100 EXP SWAP1 DIV PUSH20 0xFFFFFFFFFFFFFFFFFFFFFFFFFFFFFFFFFFFFFFFF AND PUSH20 0xFFFFFFFFFFFFFFFFFFFFFFFFFFFFFFFFFFFFFFFF AND CALLER PUSH20 0xFFFFFFFFFFFFFFFFFFFFFFFFFFFFFFFFFFFFFFFF AND EQ ISZERO PUSH2 0x15D4 JUMPI PUSH1 0x40 MLOAD PUSH32 0x8C379A000000000000000000000000000000000000000000000000000000000 DUP2 MSTORE PUSH1 0x4 ADD PUSH2 0x15CB SWAP1 PUSH2 0x397B JUMP JUMPDEST PUSH1 0x40 MLOAD DUP1 SWAP2 SUB SWAP1 REVERT JUMPDEST PUSH1 0x1 DUP2 PUSH1 0x8 ADD PUSH1 0x0 CALLER PUSH20 0xFFFFFFFFFFFFFFFFFFFFFFFFFFFFFFFFFFFFFFFF AND PUSH20 0xFFFFFFFFFFFFFFFFFFFFFFFFFFFFFFFFFFFFFFFF AND DUP2 MSTORE PUSH1 0x20 ADD SWAP1 DUP2 MSTORE PUSH1 0x20 ADD PUSH1 0x0 KECCAK256 PUSH1 0x0 PUSH2 0x100 EXP DUP2 SLOAD DUP2 PUSH1 0xFF MUL NOT AND SWAP1 DUP4 ISZERO ISZERO MUL OR SWAP1 SSTORE POP DUP3 ISZERO PUSH2 0x16A4 JUMPI DUP1 PUSH1 0x4 ADD PUSH1 0x0 DUP2 SLOAD DUP1 SWAP3 SWAP2 SWAP1 PUSH2 0x1649 SWAP1 PUSH2 0x3192 JUMP JUMPDEST SWAP2 SWAP1 POP SSTORE POP CALLER PUSH20 0xFFFFFFFFFFFFFFFFFFFFFFFFFFFFFFFFFFFFFFFF AND DUP5 DUP7 PUSH32 0x3034D93886B61476962B74389D189A2C2EA99062E19C9C6226FFBAAACDCA1144 PUSH1 0x1 PUSH1 0x40 MLOAD PUSH2 0x1697 SWAP2 SWAP1 PUSH2 0x2C85 JUMP JUMPDEST PUSH1 0x40 MLOAD DUP1 SWAP2 SUB SWAP1 LOG4 PUSH2 0x1779 JUMP JUMPDEST DUP1 PUSH1 0x5 ADD PUSH1 0x0 DUP2 SLOAD DUP1 SWAP3 SWAP2 SWAP1 PUSH2 0x16B9 SWAP1 PUSH2 0x3192 JUMP JUMPDEST SWAP2 SWAP1 POP SSTORE POP CALLER PUSH20 0xFFFFFFFFFFFFFFFFFFFFFFFFFFFFFFFFFFFFFFFF AND DUP5 DUP7 PUSH32 0x3034D93886B61476962B74389D189A2C2EA99062E19C9C6226FFBAAACDCA1144 PUSH1 0x0 PUSH1 0x40 MLOAD PUSH2 0x1707 SWAP2 SWAP1 PUSH2 0x2C85 JUMP JUMPDEST PUSH1 0x40 MLOAD DUP1 SWAP2 SUB SWAP1 LOG4 DUP1 PUSH1 0x0 ADD PUSH1 0x0 SWAP1 SLOAD SWAP1 PUSH2 0x100 EXP SWAP1 DIV PUSH20 0xFFFFFFFFFFFFFFFFFFFFFFFFFFFFFFFFFFFFFFFF AND PUSH20 0xFFFFFFFFFFFFFFFFFFFFFFFFFFFFFFFFFFFFFFFF AND DUP5 DUP7 PUSH32 0xC85652D2AC95894ED3AA3311D30CEF8A307693957451A95F4B7ACE387907C2A PUSH1 0x40 MLOAD PUSH1 0x40 MLOAD DUP1 SWAP2 SUB SWAP1 LOG4 JUMPDEST DUP1 PUSH1 0x5 ADD SLOAD DUP2 PUSH1 0x4 ADD SLOAD GT ISZERO PUSH2 0x17C8 JUMPI PUSH1 0x1 DUP2 PUSH1 0x6 ADD PUSH1 0x0 PUSH2 0x100 EXP DUP2 SLOAD DUP2 PUSH1 0xFF MUL NOT AND SWAP1 DUP4 ISZERO ISZERO MUL OR SWAP1 SSTORE POP PUSH1 0x1 DUP2 PUSH1 0x3 ADD PUSH1 0x0 PUSH2 0x100 EXP DUP2 SLOAD DUP2 PUSH1 0xFF MUL NOT AND SWAP1 DUP4 ISZERO ISZERO MUL OR SWAP1 SSTORE POP PUSH2 0x1803 JUMP JUMPDEST PUSH1 0x0 DUP2 PUSH1 0x6 ADD PUSH1 0x0 PUSH2 0x100 EXP DUP2 SLOAD DUP2 PUSH1 0xFF MUL NOT AND SWAP1 DUP4 ISZERO ISZERO MUL OR SWAP1 SSTORE POP PUSH1 0x0 DUP2 PUSH1 0x3 ADD PUSH1 0x0 PUSH2 0x100 EXP DUP2 SLOAD DUP2 PUSH1 0xFF MUL NOT AND SWAP1 DUP4 ISZERO ISZERO MUL OR SWAP1 SSTORE POP JUMPDEST POP POP POP POP POP JUMP JUMPDEST PUSH1 0x60 PUSH1 0x7 PUSH1 0x0 DUP5 DUP2 MSTORE PUSH1 0x20 ADD SWAP1 DUP2 MSTORE PUSH1 0x20 ADD PUSH1 0x0 KECCAK256 PUSH1 0x0 DUP4 DUP2 MSTORE PUSH1 0x20 ADD SWAP1 DUP2 MSTORE PUSH1 0x20 ADD PUSH1 0x0 KECCAK256 DUP1 SLOAD PUSH2 0x183B SWAP1 PUSH2 0x39CA JUMP JUMPDEST DUP1 PUSH1 0x1F ADD PUSH1 0x20 DUP1 SWAP2 DIV MUL PUSH1 0x20 ADD PUSH1 0x40 MLOAD SWAP1 DUP2 ADD PUSH1 0x40 MSTORE DUP1 SWAP3 SWAP2 SWAP1 DUP2 DUP2 MSTORE PUSH1 0x20 ADD DUP3 DUP1 SLOAD PUSH2 0x1867 SWAP1 PUSH2 0x39CA JUMP JUMPDEST DUP1 ISZERO PUSH2 0x18B4 JUMPI DUP1 PUSH1 0x1F LT PUSH2 0x1889 JUMPI PUSH2 0x100 DUP1 DUP4 SLOAD DIV MUL DUP4 MSTORE SWAP2 PUSH1 0x20 ADD SWAP2 PUSH2 0x18B4 JUMP JUMPDEST DUP3 ADD SWAP2 SWAP1 PUSH1 0x0 MSTORE PUSH1 0x20 PUSH1 0x0 KECCAK256 SWAP1 JUMPDEST DUP2 SLOAD DUP2 MSTORE SWAP1 PUSH1 0x1 ADD SWAP1 PUSH1 0x20 ADD DUP1 DUP4 GT PUSH2 0x1897 JUMPI DUP3 SWAP1 SUB PUSH1 0x1F AND DUP3 ADD SWAP2 JUMPDEST POP POP POP POP POP SWAP1 POP SWAP3 SWAP2 POP POP JUMP JUMPDEST PUSH1 0x60 PUSH1 0x5 PUSH1 0x0 DUP4 PUSH20 0xFFFFFFFFFFFFFFFFFFFFFFFFFFFFFFFFFFFFFFFF AND PUSH20 0xFFFFFFFFFFFFFFFFFFFFFFFFFFFFFFFFFFFFFFFF AND DUP2 MSTORE PUSH1 0x20 ADD SWAP1 DUP2 MSTORE PUSH1 0x20 ADD PUSH1 0x0 KECCAK256 DUP1 SLOAD DUP1 PUSH1 0x20 MUL PUSH1 0x20 ADD PUSH1 0x40 MLOAD SWAP1 DUP2 ADD PUSH1 0x40 MSTORE DUP1 SWAP3 SWAP2 SWAP1 DUP2 DUP2 MSTORE PUSH1 0x20 ADD DUP3 DUP1 SLOAD DUP1 ISZERO PUSH2 0x194C JUMPI PUSH1 0x20 MUL DUP3 ADD SWAP2 SWAP1 PUSH1 0x0 MSTORE PUSH1 0x20 PUSH1 0x0 KECCAK256 SWAP1 JUMPDEST DUP2 SLOAD DUP2 MSTORE PUSH1 0x20 ADD SWAP1 PUSH1 0x1 ADD SWAP1 DUP1 DUP4 GT PUSH2 0x1938 JUMPI JUMPDEST POP POP POP POP POP SWAP1 POP SWAP2 SWAP1 POP JUMP JUMPDEST PUSH2 0x1C20 DUP2 JUMP JUMPDEST PUSH2 0x1966 PUSH2 0x2238 JUMP JUMPDEST PUSH2 0x1970 PUSH1 0x0 PUSH2 0x22B6 JUMP JUMPDEST JUMP JUMPDEST PUSH1 0x60 PUSH1 0x8 PUSH1 0x0 DUP5 DUP2 MSTORE PUSH1 0x20 ADD SWAP1 DUP2 MSTORE PUSH1 0x20 ADD PUSH1 0x0 KECCAK256 PUSH1 0x0 DUP4 DUP2 MSTORE PUSH1 0x20 ADD SWAP1 DUP2 MSTORE PUSH1 0x20 ADD PUSH1 0x0 KECCAK256 DUP1 SLOAD PUSH2 0x19A3 SWAP1 PUSH2 0x39CA JUMP JUMPDEST DUP1 PUSH1 0x1F ADD PUSH1 0x20 DUP1 SWAP2 DIV MUL PUSH1 0x20 ADD PUSH1 0x40 MLOAD SWAP1 DUP2 ADD PUSH1 0x40 MSTORE DUP1 SWAP3 SWAP2 SWAP1 DUP2 DUP2 MSTORE PUSH1 0x20 ADD DUP3 DUP1 SLOAD PUSH2 0x19CF SWAP1 PUSH2 0x39CA JUMP JUMPDEST DUP1 ISZERO PUSH2 0x1A1C JUMPI DUP1 PUSH1 0x1F LT PUSH2 0x19F1 JUMPI PUSH2 0x100 DUP1 DUP4 SLOAD DIV MUL DUP4 MSTORE SWAP2 PUSH1 0x20 ADD SWAP2 PUSH2 0x1A1C JUMP JUMPDEST DUP3 ADD SWAP2 SWAP1 PUSH1 0x0 MSTORE PUSH1 0x20 PUSH1 0x0 KECCAK256 SWAP1 JUMPDEST DUP2 SLOAD DUP2 MSTORE SWAP1 PUSH1 0x1 ADD SWAP1 PUSH1 0x20 ADD DUP1 DUP4 GT PUSH2 0x19FF JUMPI DUP3 SWAP1 SUB PUSH1 0x1F AND DUP3 ADD SWAP2 JUMPDEST POP POP POP POP POP SWAP1 POP SWAP3 SWAP2 POP POP JUMP JUMPDEST PUSH1 0x8 PUSH1 0x20 MSTORE DUP2 PUSH1 0x0 MSTORE PUSH1 0x40 PUSH1 0x0 KECCAK256 PUSH1 0x20 MSTORE DUP1 PUSH1 0x0 MSTORE PUSH1 0x40 PUSH1 0x0 KECCAK256 PUSH1 0x0 SWAP2 POP SWAP2 POP POP DUP1 SLOAD PUSH2 0x1A55 SWAP1 PUSH2 0x39CA JUMP JUMPDEST DUP1 PUSH1 0x1F ADD PUSH1 0x20 DUP1 SWAP2 DIV MUL PUSH1 0x20 ADD PUSH1 0x40 MLOAD SWAP1 DUP2 ADD PUSH1 0x40 MSTORE DUP1 SWAP3 SWAP2 SWAP1 DUP2 DUP2 MSTORE PUSH1 0x20 ADD DUP3 DUP1 SLOAD PUSH2 0x1A81 SWAP1 PUSH2 0x39CA JUMP JUMPDEST DUP1 ISZERO PUSH2 0x1ACE JUMPI DUP1 PUSH1 0x1F LT PUSH2 0x1AA3 JUMPI PUSH2 0x100 DUP1 DUP4 SLOAD DIV MUL DUP4 MSTORE SWAP2 PUSH1 0x20 ADD SWAP2 PUSH2 0x1ACE JUMP JUMPDEST DUP3 ADD SWAP2 SWAP1 PUSH1 0x0 MSTORE PUSH1 0x20 PUSH1 0x0 KECCAK256 SWAP1 JUMPDEST DUP2 SLOAD DUP2 MSTORE SWAP1 PUSH1 0x1 ADD SWAP1 PUSH1 0x20 ADD DUP1 DUP4 GT PUSH2 0x1AB1 JUMPI DUP3 SWAP1 SUB PUSH1 0x1F AND DUP3 ADD SWAP2 JUMPDEST POP POP POP POP POP DUP2 JUMP JUMPDEST PUSH1 0x0 PUSH1 0x3 PUSH1 0x0 DUP4 DUP2 MSTORE PUSH1 0x20 ADD SWAP1 DUP2 MSTORE PUSH1 0x20 ADD PUSH1 0x0 KECCAK256 PUSH1 0x9 ADD SLOAD SWAP1 POP SWAP2 SWAP1 POP JUMP JUMPDEST PUSH1 0x0 DUP1 PUSH1 0x0 SWAP1 SLOAD SWAP1 PUSH2 0x100 EXP SWAP1 DIV PUSH20 0xFFFFFFFFFFFFFFFFFFFFFFFFFFFFFFFFFFFFFFFF AND SWAP1 POP SWAP1 JUMP JUMPDEST PUSH1 0x7 PUSH1 0x20 MSTORE DUP2 PUSH1 0x0 MSTORE PUSH1 0x40 PUSH1 0x0 KECCAK256 PUSH1 0x20 MSTORE DUP1 PUSH1 0x0 MSTORE PUSH1 0x40 PUSH1 0x0 KECCAK256 PUSH1 0x0 SWAP2 POP SWAP2 POP POP DUP1 SLOAD PUSH2 0x1B4B SWAP1 PUSH2 0x39CA JUMP JUMPDEST DUP1 PUSH1 0x1F ADD PUSH1 0x20 DUP1 SWAP2 DIV MUL PUSH1 0x20 ADD PUSH1 0x40 MLOAD SWAP1 DUP2 ADD PUSH1 0x40 MSTORE DUP1 SWAP3 SWAP2 SWAP1 DUP2 DUP2 MSTORE PUSH1 0x20 ADD DUP3 DUP1 SLOAD PUSH2 0x1B77 SWAP1 PUSH2 0x39CA JUMP JUMPDEST DUP1 ISZERO PUSH2 0x1BC4 JUMPI DUP1 PUSH1 0x1F LT PUSH2 0x1B99 JUMPI PUSH2 0x100 DUP1 DUP4 SLOAD DIV MUL DUP4 MSTORE SWAP2 PUSH1 0x20 ADD SWAP2 PUSH2 0x1BC4 JUMP JUMPDEST DUP3 ADD SWAP2 SWAP1 PUSH1 0x0 MSTORE PUSH1 0x20 PUSH1 0x0 KECCAK256 SWAP1 JUMPDEST DUP2 SLOAD DUP2 MSTORE SWAP1 PUSH1 0x1 ADD SWAP1 PUSH1 0x20 ADD DUP1 DUP4 GT PUSH2 0x1BA7 JUMPI DUP3 SWAP1 SUB PUSH1 0x1F AND DUP3 ADD SWAP2 JUMPDEST POP POP POP POP POP DUP2 JUMP JUMPDEST PUSH1 0x9 PUSH1 0x20 MSTORE DUP2 PUSH1 0x0 MSTORE PUSH1 0x40 PUSH1 0x0 KECCAK256 PUSH1 0x20 MSTORE DUP1 PUSH1 0x0 MSTORE PUSH1 0x40 PUSH1 0x0 KECCAK256 PUSH1 0x0 SWAP2 POP SWAP2 POP SWAP1 SLOAD SWAP1 PUSH2 0x100 EXP SWAP1 DIV PUSH1 0xFF AND DUP2 JUMP JUMPDEST PUSH1 0x60 PUSH1 0x6 PUSH1 0x0 DUP4 PUSH20 0xFFFFFFFFFFFFFFFFFFFFFFFFFFFFFFFFFFFFFFFF AND PUSH20 0xFFFFFFFFFFFFFFFFFFFFFFFFFFFFFFFFFFFFFFFF AND DUP2 MSTORE PUSH1 0x20 ADD SWAP1 DUP2 MSTORE PUSH1 0x20 ADD PUSH1 0x0 KECCAK256 DUP1 SLOAD DUP1 PUSH1 0x20 MUL PUSH1 0x20 ADD PUSH1 0x40 MLOAD SWAP1 DUP2 ADD PUSH1 0x40 MSTORE DUP1 SWAP3 SWAP2 SWAP1 DUP2 DUP2 MSTORE PUSH1 0x20 ADD DUP3 DUP1 SLOAD DUP1 ISZERO PUSH2 0x1C86 JUMPI PUSH1 0x20 MUL DUP3 ADD SWAP2 SWAP1 PUSH1 0x0 MSTORE PUSH1 0x20 PUSH1 0x0 KECCAK256 SWAP1 JUMPDEST DUP2 SLOAD DUP2 MSTORE PUSH1 0x20 ADD SWAP1 PUSH1 0x1 ADD SWAP1 DUP1 DUP4 GT PUSH2 0x1C72 JUMPI JUMPDEST POP POP POP POP POP SWAP1 POP SWAP2 SWAP1 POP JUMP JUMPDEST PUSH1 0x3 DUP2 JUMP JUMPDEST PUSH1 0x0 PUSH1 0x60 PUSH1 0x0 DUP1 PUSH1 0x0 DUP1 PUSH1 0x0 DUP1 PUSH1 0x60 DUP1 PUSH1 0x3 PUSH1 0x0 DUP14 DUP2 MSTORE PUSH1 0x20 ADD SWAP1 DUP2 MSTORE PUSH1 0x20 ADD PUSH1 0x0 KECCAK256 PUSH1 0x9 ADD SLOAD DUP12 LT PUSH2 0x1CFF JUMPI PUSH1 0x40 MLOAD PUSH32 0x8C379A000000000000000000000000000000000000000000000000000000000 DUP2 MSTORE PUSH1 0x4 ADD PUSH2 0x1CF6 SWAP1 PUSH2 0x351A JUMP JUMPDEST PUSH1 0x40 MLOAD DUP1 SWAP2 SUB SWAP1 REVERT JUMPDEST PUSH2 0x1D09 DUP13 DUP13 PUSH2 0x237A JUMP JUMPDEST DUP1 SWAP11 POP DUP2 SWAP12 POP DUP3 SWAP13 POP POP POP POP PUSH2 0x1D1F DUP13 DUP13 PUSH2 0x2472 JUMP JUMPDEST DUP1 SWAP8 POP DUP2 SWAP9 POP DUP3 SWAP10 POP POP POP POP PUSH2 0x1D35 DUP13 DUP13 PUSH2 0x24CB JUMP JUMPDEST DUP1 SWAP5 POP DUP2 SWAP6 POP POP POP PUSH1 0x7 PUSH1 0x0 DUP14 DUP2 MSTORE PUSH1 0x20 ADD SWAP1 DUP2 MSTORE PUSH1 0x20 ADD PUSH1 0x0 KECCAK256 PUSH1 0x0 DUP13 DUP2 MSTORE PUSH1 0x20 ADD SWAP1 DUP2 MSTORE PUSH1 0x20 ADD PUSH1 0x0 KECCAK256 DUP1 SLOAD PUSH2 0x1D6C SWAP1 PUSH2 0x39CA JUMP JUMPDEST DUP1 PUSH1 0x1F ADD PUSH1 0x20 DUP1 SWAP2 DIV MUL PUSH1 0x20 ADD PUSH1 0x40 MLOAD SWAP1 DUP2 ADD PUSH1 0x40 MSTORE DUP1 SWAP3 SWAP2 SWAP1 DUP2 DUP2 MSTORE PUSH1 0x20 ADD DUP3 DUP1 SLOAD PUSH2 0x1D98 SWAP1 PUSH2 0x39CA JUMP JUMPDEST DUP1 ISZERO PUSH2 0x1DE5 JUMPI DUP1 PUSH1 0x1F LT PUSH2 0x1DBA JUMPI PUSH2 0x100 DUP1 DUP4 SLOAD DIV MUL DUP4 MSTORE SWAP2 PUSH1 0x20 ADD SWAP2 PUSH2 0x1DE5 JUMP JUMPDEST DUP3 ADD SWAP2 SWAP1 PUSH1 0x0 MSTORE PUSH1 0x20 PUSH1 0x0 KECCAK256 SWAP1 JUMPDEST DUP2 SLOAD DUP2 MSTORE SWAP1 PUSH1 0x1 ADD SWAP1 PUSH1 0x20 ADD DUP1 DUP4 GT PUSH2 0x1DC8 JUMPI DUP3 SWAP1 SUB PUSH1 0x1F AND DUP3 ADD SWAP2 JUMPDEST POP POP POP POP POP SWAP2 POP PUSH1 0x8 PUSH1 0x0 DUP14 DUP2 MSTORE PUSH1 0x20 ADD SWAP1 DUP2 MSTORE PUSH1 0x20 ADD PUSH1 0x0 KECCAK256 PUSH1 0x0 DUP13 DUP2 MSTORE PUSH1 0x20 ADD SWAP1 DUP2 MSTORE PUSH1 0x20 ADD PUSH1 0x0 KECCAK256 DUP1 SLOAD PUSH2 0x1E1B SWAP1 PUSH2 0x39CA JUMP JUMPDEST DUP1 PUSH1 0x1F ADD PUSH1 0x20 DUP1 SWAP2 DIV MUL PUSH1 0x20 ADD PUSH1 0x40 MLOAD SWAP1 DUP2 ADD PUSH1 0x40 MSTORE DUP1 SWAP3 SWAP2 SWAP1 DUP2 DUP2 MSTORE PUSH1 0x20 ADD DUP3 DUP1 SLOAD PUSH2 0x1E47 SWAP1 PUSH2 0x39CA JUMP JUMPDEST DUP1 ISZERO PUSH2 0x1E94 JUMPI DUP1 PUSH1 0x1F LT PUSH2 0x1E69 JUMPI PUSH2 0x100 DUP1 DUP4 SLOAD DIV MUL DUP4 MSTORE SWAP2 PUSH1 0x20 ADD SWAP2 PUSH2 0x1E94 JUMP JUMPDEST DUP3 ADD SWAP2 SWAP1 PUSH1 0x0 MSTORE PUSH1 0x20 PUSH1 0x0 KECCAK256 SWAP1 JUMPDEST DUP2 SLOAD DUP2 MSTORE SWAP1 PUSH1 0x1 ADD SWAP1 PUSH1 0x20 ADD DUP1 DUP4 GT PUSH2 0x1E77 JUMPI DUP3 SWAP1 SUB PUSH1 0x1F AND DUP3 ADD SWAP2 JUMPDEST POP POP POP POP POP SWAP1 POP SWAP3 SWAP6 SWAP9 SWAP12 SWAP2 SWAP5 SWAP8 SWAP11 POP SWAP3 SWAP6 SWAP9 POP JUMP JUMPDEST PUSH1 0x3 PUSH1 0x20 MSTORE DUP1 PUSH1 0x0 MSTORE PUSH1 0x40 PUSH1 0x0 KECCAK256 PUSH1 0x0 SWAP2 POP SWAP1 POP DUP1 PUSH1 0x0 ADD SLOAD SWAP1 DUP1 PUSH1 0x1 ADD PUSH1 0x0 SWAP1 SLOAD SWAP1 PUSH2 0x100 EXP SWAP1 DIV PUSH20 0xFFFFFFFFFFFFFFFFFFFFFFFFFFFFFFFFFFFFFFFF AND SWAP1 DUP1 PUSH1 0x2 ADD DUP1 SLOAD PUSH2 0x1EF9 SWAP1 PUSH2 0x39CA JUMP JUMPDEST DUP1 PUSH1 0x1F ADD PUSH1 0x20 DUP1 SWAP2 DIV MUL PUSH1 0x20 ADD PUSH1 0x40 MLOAD SWAP1 DUP2 ADD PUSH1 0x40 MSTORE DUP1 SWAP3 SWAP2 SWAP1 DUP2 DUP2 MSTORE PUSH1 0x20 ADD DUP3 DUP1 SLOAD PUSH2 0x1F25 SWAP1 PUSH2 0x39CA JUMP JUMPDEST DUP1 ISZERO PUSH2 0x1F72 JUMPI DUP1 PUSH1 0x1F LT PUSH2 0x1F47 JUMPI PUSH2 0x100 DUP1 DUP4 SLOAD DIV MUL DUP4 MSTORE SWAP2 PUSH1 0x20 ADD SWAP2 PUSH2 0x1F72 JUMP JUMPDEST DUP3 ADD SWAP2 SWAP1 PUSH1 0x0 MSTORE PUSH1 0x20 PUSH1 0x0 KECCAK256 SWAP1 JUMPDEST DUP2 SLOAD DUP2 MSTORE SWAP1 PUSH1 0x1 ADD SWAP1 PUSH1 0x20 ADD DUP1 DUP4 GT PUSH2 0x1F55 JUMPI DUP3 SWAP1 SUB PUSH1 0x1F AND DUP3 ADD SWAP2 JUMPDEST POP POP POP POP POP SWAP1 DUP1 PUSH1 0x3 ADD DUP1 SLOAD PUSH2 0x1F87 SWAP1 PUSH2 0x39CA JUMP JUMPDEST DUP1 PUSH1 0x1F ADD PUSH1 0x20 DUP1 SWAP2 DIV MUL PUSH1 0x20 ADD PUSH1 0x40 MLOAD SWAP1 DUP2 ADD PUSH1 0x40 MSTORE DUP1 SWAP3 SWAP2 SWAP1 DUP2 DUP2 MSTORE PUSH1 0x20 ADD DUP3 DUP1 SLOAD PUSH2 0x1FB3 SWAP1 PUSH2 0x39CA JUMP JUMPDEST DUP1 ISZERO PUSH2 0x2000 JUMPI DUP1 PUSH1 0x1F LT PUSH2 0x1FD5 JUMPI PUSH2 0x100 DUP1 DUP4 SLOAD DIV MUL DUP4 MSTORE SWAP2 PUSH1 0x20 ADD SWAP2 PUSH2 0x2000 JUMP JUMPDEST DUP3 ADD SWAP2 SWAP1 PUSH1 0x0 MSTORE PUSH1 0x20 PUSH1 0x0 KECCAK256 SWAP1 JUMPDEST DUP2 SLOAD DUP2 MSTORE SWAP1 PUSH1 0x1 ADD SWAP1 PUSH1 0x20 ADD DUP1 DUP4 GT PUSH2 0x1FE3 JUMPI DUP3 SWAP1 SUB PUSH1 0x1F AND DUP3 ADD SWAP2 JUMPDEST POP POP POP POP POP SWAP1 DUP1 PUSH1 0x4 ADD DUP1 SLOAD PUSH2 0x2015 SWAP1 PUSH2 0x39CA JUMP JUMPDEST DUP1 PUSH1 0x1F ADD PUSH1 0x20 DUP1 SWAP2 DIV MUL PUSH1 0x20 ADD PUSH1 0x40 MLOAD SWAP1 DUP2 ADD PUSH1 0x40 MSTORE DUP1 SWAP3 SWAP2 SWAP1 DUP2 DUP2 MSTORE PUSH1 0x20 ADD DUP3 DUP1 SLOAD PUSH2 0x2041 SWAP1 PUSH2 0x39CA JUMP JUMPDEST DUP1 ISZERO PUSH2 0x208E JUMPI DUP1 PUSH1 0x1F LT PUSH2 0x2063 JUMPI PUSH2 0x100 DUP1 DUP4 SLOAD DIV MUL DUP4 MSTORE SWAP2 PUSH1 0x20 ADD SWAP2 PUSH2 0x208E JUMP JUMPDEST DUP3 ADD SWAP2 SWAP1 PUSH1 0x0 MSTORE PUSH1 0x20 PUSH1 0x0 KECCAK256 SWAP1 JUMPDEST DUP2 SLOAD DUP2 MSTORE SWAP1 PUSH1 0x1 ADD SWAP1 PUSH1 0x20 ADD DUP1 DUP4 GT PUSH2 0x2071 JUMPI DUP3 SWAP1 SUB PUSH1 0x1F AND DUP3 ADD SWAP2 JUMPDEST POP POP POP POP POP SWAP1 DUP1 PUSH1 0x5 ADD SLOAD SWAP1 DUP1 PUSH1 0x6 ADD SLOAD SWAP1 DUP1 PUSH1 0x7 ADD PUSH1 0x0 SWAP1 SLOAD SWAP1 PUSH2 0x100 EXP SWAP1 DIV PUSH1 0xFF AND SWAP1 DUP1 PUSH1 0x8 ADD SLOAD SWAP1 DUP1 PUSH1 0x9 ADD SLOAD SWAP1 POP DUP11 JUMP JUMPDEST PUSH1 0x4 PUSH1 0x20 MSTORE DUP1 PUSH1 0x0 MSTORE PUSH1 0x40 PUSH1 0x0 KECCAK256 PUSH1 0x0 SWAP2 POP SWAP1 POP SLOAD DUP2 JUMP JUMPDEST PUSH2 0x20E3 PUSH2 0x2238 JUMP JUMPDEST PUSH1 0x0 PUSH20 0xFFFFFFFFFFFFFFFFFFFFFFFFFFFFFFFFFFFFFFFF AND DUP2 PUSH20 0xFFFFFFFFFFFFFFFFFFFFFFFFFFFFFFFFFFFFFFFF AND EQ ISZERO PUSH2 0x2153 JUMPI PUSH1 0x40 MLOAD PUSH32 0x8C379A000000000000000000000000000000000000000000000000000000000 DUP2 MSTORE PUSH1 0x4 ADD PUSH2 0x214A SWAP1 PUSH2 0x3A6E JUMP JUMPDEST PUSH1 0x40 MLOAD DUP1 SWAP2 SUB SWAP1 REVERT JUMPDEST PUSH2 0x215C DUP2 PUSH2 0x22B6 JUMP JUMPDEST POP JUMP JUMPDEST PUSH1 0x0 PUSH1 0x3 PUSH1 0x0 DUP6 DUP2 MSTORE PUSH1 0x20 ADD SWAP1 DUP2 MSTORE PUSH1 0x20 ADD PUSH1 0x0 KECCAK256 PUSH1 0xA ADD PUSH1 0x0 DUP5 DUP2 MSTORE PUSH1 0x20 ADD SWAP1 DUP2 MSTORE PUSH1 0x20 ADD PUSH1 0x0 KECCAK256 PUSH1 0x8 ADD PUSH1 0x0 DUP4 PUSH20 0xFFFFFFFFFFFFFFFFFFFFFFFFFFFFFFFFFFFFFFFF AND PUSH20 0xFFFFFFFFFFFFFFFFFFFFFFFFFFFFFFFFFFFFFFFF AND DUP2 MSTORE PUSH1 0x20 ADD SWAP1 DUP2 MSTORE PUSH1 0x20 ADD PUSH1 0x0 KECCAK256 PUSH1 0x0 SWAP1 SLOAD SWAP1 PUSH2 0x100 EXP SWAP1 DIV PUSH1 0xFF AND SWAP1 POP SWAP4 SWAP3 POP POP POP JUMP JUMPDEST PUSH1 0x2 PUSH1 0x1 SLOAD EQ ISZERO PUSH2 0x2225 JUMPI PUSH1 0x40 MLOAD PUSH32 0x8C379A000000000000000000000000000000000000000000000000000000000 DUP2 MSTORE PUSH1 0x4 ADD PUSH2 0x221C SWAP1 PUSH2 0x3ADA JUMP JUMPDEST PUSH1 0x40 MLOAD DUP1 SWAP2 SUB SWAP1 REVERT JUMPDEST PUSH1 0x2 PUSH1 0x1 DUP2 SWAP1 SSTORE POP JUMP JUMPDEST PUSH1 0x1 DUP1 DUP2 SWAP1 SSTORE POP JUMP JUMPDEST PUSH2 0x2240 PUSH2 0x251C JUMP JUMPDEST PUSH20 0xFFFFFFFFFFFFFFFFFFFFFFFFFFFFFFFFFFFFFFFF AND PUSH2 0x225E PUSH2 0x1AF6 JUMP JUMPDEST PUSH20 0xFFFFFFFFFFFFFFFFFFFFFFFFFFFFFFFFFFFFFFFF AND EQ PUSH2 0x22B4 JUMPI PUSH1 0x40 MLOAD PUSH32 0x8C379A000000000000000000000000000000000000000000000000000000000 DUP2 MSTORE PUSH1 0x4 ADD PUSH2 0x22AB SWAP1 PUSH2 0x3B46 JUMP JUMPDEST PUSH1 0x40 MLOAD DUP1 SWAP2 SUB SWAP1 REVERT JUMPDEST JUMP JUMPDEST PUSH1 0x0 DUP1 PUSH1 0x0 SWAP1 SLOAD SWAP1 PUSH2 0x100 EXP SWAP1 DIV PUSH20 0xFFFFFFFFFFFFFFFFFFFFFFFFFFFFFFFFFFFFFFFF AND SWAP1 POP DUP2 PUSH1 0x0 DUP1 PUSH2 0x100 EXP DUP2 SLOAD DUP2 PUSH20 0xFFFFFFFFFFFFFFFFFFFFFFFFFFFFFFFFFFFFFFFF MUL NOT AND SWAP1 DUP4 PUSH20 0xFFFFFFFFFFFFFFFFFFFFFFFFFFFFFFFFFFFFFFFF AND MUL OR SWAP1 SSTORE POP DUP2 PUSH20 0xFFFFFFFFFFFFFFFFFFFFFFFFFFFFFFFFFFFFFFFF AND DUP2 PUSH20 0xFFFFFFFFFFFFFFFFFFFFFFFFFFFFFFFFFFFFFFFF AND PUSH32 0x8BE0079C531659141344CD1FD0A4F28419497F9722A3DAAFE3B4186F6B6457E0 PUSH1 0x40 MLOAD PUSH1 0x40 MLOAD DUP1 SWAP2 SUB SWAP1 LOG3 POP POP JUMP JUMPDEST PUSH1 0x0 PUSH1 0x60 PUSH1 0x0 DUP1 PUSH1 0x3 PUSH1 0x0 DUP8 DUP2 MSTORE PUSH1 0x20 ADD SWAP1 DUP2 MSTORE PUSH1 0x20 ADD PUSH1 0x0 KECCAK256 PUSH1 0xA ADD PUSH1 0x0 DUP7 DUP2 MSTORE PUSH1 0x20 ADD SWAP1 DUP2 MSTORE PUSH1 0x20 ADD PUSH1 0x0 KECCAK256 SWAP1 POP DUP1 PUSH1 0x0 ADD PUSH1 0x0 SWAP1 SLOAD SWAP1 PUSH2 0x100 EXP SWAP1 DIV PUSH20 0xFFFFFFFFFFFFFFFFFFFFFFFFFFFFFFFFFFFFFFFF AND DUP2 PUSH1 0x1 ADD DUP3 PUSH1 0x2 ADD SLOAD DUP2 DUP1 SLOAD PUSH2 0x23E4 SWAP1 PUSH2 0x39CA JUMP JUMPDEST DUP1 PUSH1 0x1F ADD PUSH1 0x20 DUP1 SWAP2 DIV MUL PUSH1 0x20 ADD PUSH1 0x40 MLOAD SWAP1 DUP2 ADD PUSH1 0x40 MSTORE DUP1 SWAP3 SWAP2 SWAP1 DUP2 DUP2 MSTORE PUSH1 0x20 ADD DUP3 DUP1 SLOAD PUSH2 0x2410 SWAP1 PUSH2 0x39CA JUMP JUMPDEST DUP1 ISZERO PUSH2 0x245D JUMPI DUP1 PUSH1 0x1F LT PUSH2 0x2432 JUMPI PUSH2 0x100 DUP1 DUP4 SLOAD DIV MUL DUP4 MSTORE SWAP2 PUSH1 0x20 ADD SWAP2 PUSH2 0x245D JUMP JUMPDEST DUP3 ADD SWAP2 SWAP1 PUSH1 0x0 MSTORE PUSH1 0x20 PUSH1 0x0 KECCAK256 SWAP1 JUMPDEST DUP2 SLOAD DUP2 MSTORE SWAP1 PUSH1 0x1 ADD SWAP1 PUSH1 0x20 ADD DUP1 DUP4 GT PUSH2 0x2440 JUMPI DUP3 SWAP1 SUB PUSH1 0x1F AND DUP3 ADD SWAP2 JUMPDEST POP POP POP POP POP SWAP2 POP SWAP4 POP SWAP4 POP SWAP4 POP POP SWAP3 POP SWAP3 POP SWAP3 JUMP JUMPDEST PUSH1 0x0 DUP1 PUSH1 0x0 DUP1 PUSH1 0x3 PUSH1 0x0 DUP8 DUP2 MSTORE PUSH1 0x20 ADD SWAP1 DUP2 MSTORE PUSH1 0x20 ADD PUSH1 0x0 KECCAK256 PUSH1 0xA ADD PUSH1 0x0 DUP7 DUP2 MSTORE PUSH1 0x20 ADD SWAP1 DUP2 MSTORE PUSH1 0x20 ADD PUSH1 0x0 KECCAK256 SWAP1 POP DUP1 PUSH1 0x3 ADD PUSH1 0x0 SWAP1 SLOAD SWAP1 PUSH2 0x100 EXP SWAP1 DIV PUSH1 0xFF AND DUP2 PUSH1 0x4 ADD SLOAD DUP3 PUSH1 0x5 ADD SLOAD SWAP4 POP SWAP4 POP SWAP4 POP POP SWAP3 POP SWAP3 POP SWAP3 JUMP JUMPDEST PUSH1 0x0 DUP1 PUSH1 0x0 PUSH1 0x3 PUSH1 0x0 DUP7 DUP2 MSTORE PUSH1 0x20 ADD SWAP1 DUP2 MSTORE PUSH1 0x20 ADD PUSH1 0x0 KECCAK256 PUSH1 0xA ADD PUSH1 0x0 DUP6 DUP2 MSTORE PUSH1 0x20 ADD SWAP1 DUP2 MSTORE PUSH1 0x20 ADD PUSH1 0x0 KECCAK256 SWAP1 POP DUP1 PUSH1 0x6 ADD PUSH1 0x0 SWAP1 SLOAD SWAP1 PUSH2 0x100 EXP SWAP1 DIV PUSH1 0xFF AND DUP2 PUSH1 0x7 ADD SLOAD SWAP3 POP SWAP3 POP POP SWAP3 POP SWAP3 SWAP1 POP JUMP JUMPDEST PUSH1 0x0 CALLER SWAP1 POP SWAP1 JUMP JUMPDEST DUP3 DUP1 SLOAD PUSH2 0x2530 SWAP1 PUSH2 0x39CA JUMP JUMPDEST SWAP1 PUSH1 0x0 MSTORE PUSH1 0x20 PUSH1 0x0 KECCAK256 SWAP1 PUSH1 0x1F ADD PUSH1 0x20 SWAP1 DIV DUP2 ADD SWAP3 DUP3 PUSH2 0x2552 JUMPI PUSH1 0x0 DUP6 SSTORE PUSH2 0x2599 JUMP JUMPDEST DUP3 PUSH1 0x1F LT PUSH2 0x256B JUMPI DUP1 MLOAD PUSH1 0xFF NOT AND DUP4 DUP1 ADD OR DUP6 SSTORE PUSH2 0x2599 JUMP JUMPDEST DUP3 DUP1 ADD PUSH1 0x1 ADD DUP6 SSTORE DUP3 ISZERO PUSH2 0x2599 JUMPI SWAP2 DUP3 ADD JUMPDEST DUP3 DUP2 GT ISZERO PUSH2 0x2598 JUMPI DUP3 MLOAD DUP3 SSTORE SWAP2 PUSH1 0x20 ADD SWAP2 SWAP1 PUSH1 0x1 ADD SWAP1 PUSH2 0x257D JUMP JUMPDEST JUMPDEST POP SWAP1 POP PUSH2 0x25A6 SWAP2 SWAP1 PUSH2 0x25AA JUMP JUMPDEST POP SWAP1 JUMP JUMPDEST JUMPDEST DUP1 DUP3 GT ISZERO PUSH2 0x25C3 JUMPI PUSH1 0x0 DUP2 PUSH1 0x0 SWAP1 SSTORE POP PUSH1 0x1 ADD PUSH2 0x25AB JUMP JUMPDEST POP SWAP1 JUMP JUMPDEST PUSH1 0x0 PUSH1 0x40 MLOAD SWAP1 POP SWAP1 JUMP JUMPDEST PUSH1 0x0 DUP1 REVERT JUMPDEST PUSH1 0x0 DUP1 REVERT JUMPDEST PUSH1 0x0 DUP2 SWAP1 POP SWAP2 SWAP1 POP JUMP JUMPDEST PUSH2 0x25EE DUP2 PUSH2 0x25DB JUMP JUMPDEST DUP2 EQ PUSH2 0x25F9 JUMPI PUSH1 0x0 DUP1 REVERT JUMPDEST POP JUMP JUMPDEST PUSH1 0x0 DUP2 CALLDATALOAD SWAP1 POP PUSH2 0x260B DUP2 PUSH2 0x25E5 JUMP JUMPDEST SWAP3 SWAP2 POP POP JUMP JUMPDEST PUSH1 0x0 PUSH1 0x20 DUP3 DUP5 SUB SLT ISZERO PUSH2 0x2627 JUMPI PUSH2 0x2626 PUSH2 0x25D1 JUMP JUMPDEST JUMPDEST PUSH1 0x0 PUSH2 0x2635 DUP5 DUP3 DUP6 ADD PUSH2 0x25FC JUMP JUMPDEST SWAP2 POP POP SWAP3 SWAP2 POP POP JUMP JUMPDEST PUSH1 0x0 DUP1 REVERT JUMPDEST PUSH1 0x0 DUP1 REVERT JUMPDEST PUSH1 0x0 PUSH1 0x1F NOT PUSH1 0x1F DUP4 ADD AND SWAP1 POP SWAP2 SWAP1 POP JUMP JUMPDEST PUSH32 0x4E487B7100000000000000000000000000000000000000000000000000000000 PUSH1 0x0 MSTORE PUSH1 0x41 PUSH1 0x4 MSTORE PUSH1 0x24 PUSH1 0x0 REVERT JUMPDEST PUSH2 0x2691 DUP3 PUSH2 0x2648 JUMP JUMPDEST DUP2 ADD DUP2 DUP2 LT PUSH8 0xFFFFFFFFFFFFFFFF DUP3 GT OR ISZERO PUSH2 0x26B0 JUMPI PUSH2 0x26AF PUSH2 0x2659 JUMP JUMPDEST JUMPDEST DUP1 PUSH1 0x40 MSTORE POP POP POP JUMP JUMPDEST PUSH1 0x0 PUSH2 0x26C3 PUSH2 0x25C7 JUMP JUMPDEST SWAP1 POP PUSH2 0x26CF DUP3 DUP3 PUSH2 0x2688 JUMP JUMPDEST SWAP2 SWAP1 POP JUMP JUMPDEST PUSH1 0x0 PUSH8 0xFFFFFFFFFFFFFFFF DUP3 GT ISZERO PUSH2 0x26EF JUMPI PUSH2 0x26EE PUSH2 0x2659 JUMP JUMPDEST JUMPDEST PUSH2 0x26F8 DUP3 PUSH2 0x2648 JUMP JUMPDEST SWAP1 POP PUSH1 0x20 DUP2 ADD SWAP1 POP SWAP2 SWAP1 POP JUMP JUMPDEST DUP3 DUP2 DUP4 CALLDATACOPY PUSH1 0x0 DUP4 DUP4 ADD MSTORE POP POP POP JUMP JUMPDEST PUSH1 0x0 PUSH2 0x2727 PUSH2 0x2722 DUP5 PUSH2 0x26D4 JUMP JUMPDEST PUSH2 0x26B9 JUMP JUMPDEST SWAP1 POP DUP3 DUP2 MSTORE PUSH1 0x20 DUP2 ADD DUP5 DUP5 DUP5 ADD GT ISZERO PUSH2 0x2743 JUMPI PUSH2 0x2742 PUSH2 0x2643 JUMP JUMPDEST JUMPDEST PUSH2 0x274E DUP5 DUP3 DUP6 PUSH2 0x2705 JUMP JUMPDEST POP SWAP4 SWAP3 POP POP POP JUMP JUMPDEST PUSH1 0x0 DUP3 PUSH1 0x1F DUP4 ADD SLT PUSH2 0x276B JUMPI PUSH2 0x276A PUSH2 0x263E JUMP JUMPDEST JUMPDEST DUP2 CALLDATALOAD PUSH2 0x277B DUP5 DUP3 PUSH1 0x20 DUP7 ADD PUSH2 0x2714 JUMP JUMPDEST SWAP2 POP POP SWAP3 SWAP2 POP POP JUMP JUMPDEST PUSH1 0x0 DUP1 PUSH1 0x0 DUP1 PUSH1 0x0 PUSH1 0xA0 DUP7 DUP9 SUB SLT ISZERO PUSH2 0x27A0 JUMPI PUSH2 0x279F PUSH2 0x25D1 JUMP JUMPDEST JUMPDEST PUSH1 0x0 DUP7 ADD CALLDATALOAD PUSH8 0xFFFFFFFFFFFFFFFF DUP2 GT ISZERO PUSH2 0x27BE JUMPI PUSH2 0x27BD PUSH2 0x25D6 JUMP JUMPDEST JUMPDEST PUSH2 0x27CA DUP9 DUP3 DUP10 ADD PUSH2 0x2756 JUMP JUMPDEST SWAP6 POP POP PUSH1 0x20 DUP7 ADD CALLDATALOAD PUSH8 0xFFFFFFFFFFFFFFFF DUP2 GT ISZERO PUSH2 0x27EB JUMPI PUSH2 0x27EA PUSH2 0x25D6 JUMP JUMPDEST JUMPDEST PUSH2 0x27F7 DUP9 DUP3 DUP10 ADD PUSH2 0x2756 JUMP JUMPDEST SWAP5 POP POP PUSH1 0x40 DUP7 ADD CALLDATALOAD PUSH8 0xFFFFFFFFFFFFFFFF DUP2 GT ISZERO PUSH2 0x2818 JUMPI PUSH2 0x2817 PUSH2 0x25D6 JUMP JUMPDEST JUMPDEST PUSH2 0x2824 DUP9 DUP3 DUP10 ADD PUSH2 0x2756 JUMP JUMPDEST SWAP4 POP POP PUSH1 0x60 PUSH2 0x2835 DUP9 DUP3 DUP10 ADD PUSH2 0x25FC JUMP JUMPDEST SWAP3 POP POP PUSH1 0x80 PUSH2 0x2846 DUP9 DUP3 DUP10 ADD PUSH2 0x25FC JUMP JUMPDEST SWAP2 POP POP SWAP3 SWAP6 POP SWAP3 SWAP6 SWAP1 SWAP4 POP JUMP JUMPDEST PUSH2 0x285C DUP2 PUSH2 0x25DB JUMP JUMPDEST DUP3 MSTORE POP POP JUMP JUMPDEST PUSH1 0x0 PUSH1 0x20 DUP3 ADD SWAP1 POP PUSH2 0x2877 PUSH1 0x0 DUP4 ADD DUP5 PUSH2 0x2853 JUMP JUMPDEST SWAP3 SWAP2 POP POP JUMP JUMPDEST PUSH1 0x0 DUP1 PUSH1 0x40 DUP4 DUP6 SUB SLT ISZERO PUSH2 0x2894 JUMPI PUSH2 0x2893 PUSH2 0x25D1 JUMP JUMPDEST JUMPDEST PUSH1 0x0 PUSH2 0x28A2 DUP6 DUP3 DUP7 ADD PUSH2 0x25FC JUMP JUMPDEST SWAP3 POP POP PUSH1 0x20 DUP4 ADD CALLDATALOAD PUSH8 0xFFFFFFFFFFFFFFFF DUP2 GT ISZERO PUSH2 0x28C3 JUMPI PUSH2 0x28C2 PUSH2 0x25D6 JUMP JUMPDEST JUMPDEST PUSH2 0x28CF DUP6 DUP3 DUP7 ADD PUSH2 0x2756 JUMP JUMPDEST SWAP2 POP POP SWAP3 POP SWAP3 SWAP1 POP JUMP JUMPDEST PUSH1 0x0 DUP1 PUSH1 0x0 PUSH1 0x60 DUP5 DUP7 SUB SLT ISZERO PUSH2 0x28F2 JUMPI PUSH2 0x28F1 PUSH2 0x25D1 JUMP JUMPDEST JUMPDEST PUSH1 0x0 PUSH2 0x2900 DUP7 DUP3 DUP8 ADD PUSH2 0x25FC JUMP JUMPDEST SWAP4 POP POP PUSH1 0x20 PUSH2 0x2911 DUP7 DUP3 DUP8 ADD PUSH2 0x25FC JUMP JUMPDEST SWAP3 POP POP PUSH1 0x40 PUSH2 0x2922 DUP7 DUP3 DUP8 ADD PUSH2 0x25FC JUMP JUMPDEST SWAP2 POP POP SWAP3 POP SWAP3 POP SWAP3 JUMP JUMPDEST PUSH1 0x0 DUP2 ISZERO ISZERO SWAP1 POP SWAP2 SWAP1 POP JUMP JUMPDEST PUSH2 0x2941 DUP2 PUSH2 0x292C JUMP JUMPDEST DUP2 EQ PUSH2 0x294C JUMPI PUSH1 0x0 DUP1 REVERT JUMPDEST POP JUMP JUMPDEST PUSH1 0x0 DUP2 CALLDATALOAD SWAP1 POP PUSH2 0x295E DUP2 PUSH2 0x2938 JUMP JUMPDEST SWAP3 SWAP2 POP POP JUMP JUMPDEST PUSH1 0x0 DUP1 PUSH1 0x0 PUSH1 0x60 DUP5 DUP7 SUB SLT ISZERO PUSH2 0x297D JUMPI PUSH2 0x297C PUSH2 0x25D1 JUMP JUMPDEST JUMPDEST PUSH1 0x0 PUSH2 0x298B DUP7 DUP3 DUP8 ADD PUSH2 0x25FC JUMP JUMPDEST SWAP4 POP POP PUSH1 0x20 PUSH2 0x299C DUP7 DUP3 DUP8 ADD PUSH2 0x25FC JUMP JUMPDEST SWAP3 POP POP PUSH1 0x40 PUSH2 0x29AD DUP7 DUP3 DUP8 ADD PUSH2 0x294F JUMP JUMPDEST SWAP2 POP POP SWAP3 POP SWAP3 POP SWAP3 JUMP JUMPDEST PUSH1 0x0 DUP1 PUSH1 0x40 DUP4 DUP6 SUB SLT ISZERO PUSH2 0x29CE JUMPI PUSH2 0x29CD PUSH2 0x25D1 JUMP JUMPDEST JUMPDEST PUSH1 0x0 PUSH2 0x29DC DUP6 DUP3 DUP7 ADD PUSH2 0x25FC JUMP JUMPDEST SWAP3 POP POP PUSH1 0x20 PUSH2 0x29ED DUP6 DUP3 DUP7 ADD PUSH2 0x25FC JUMP JUMPDEST SWAP2 POP POP SWAP3 POP SWAP3 SWAP1 POP JUMP JUMPDEST PUSH1 0x0 DUP2 MLOAD SWAP1 POP SWAP2 SWAP1 POP JUMP JUMPDEST PUSH1 0x0 DUP3 DUP3 MSTORE PUSH1 0x20 DUP3 ADD SWAP1 POP SWAP3 SWAP2 POP POP JUMP JUMPDEST PUSH1 0x0 JUMPDEST DUP4 DUP2 LT ISZERO PUSH2 0x2A31 JUMPI DUP1 DUP3 ADD MLOAD DUP2 DUP5 ADD MSTORE PUSH1 0x20 DUP2 ADD SWAP1 POP PUSH2 0x2A16 JUMP JUMPDEST DUP4 DUP2 GT ISZERO PUSH2 0x2A40 JUMPI PUSH1 0x0 DUP5 DUP5 ADD MSTORE JUMPDEST POP POP POP POP JUMP JUMPDEST PUSH1 0x0 PUSH2 0x2A51 DUP3 PUSH2 0x29F7 JUMP JUMPDEST PUSH2 0x2A5B DUP2 DUP6 PUSH2 0x2A02 JUMP JUMPDEST SWAP4 POP PUSH2 0x2A6B DUP2 DUP6 PUSH1 0x20 DUP7 ADD PUSH2 0x2A13 JUMP JUMPDEST PUSH2 0x2A74 DUP2 PUSH2 0x2648 JUMP JUMPDEST DUP5 ADD SWAP2 POP POP SWAP3 SWAP2 POP POP JUMP JUMPDEST PUSH1 0x0 PUSH1 0x20 DUP3 ADD SWAP1 POP DUP2 DUP2 SUB PUSH1 0x0 DUP4 ADD MSTORE PUSH2 0x2A99 DUP2 DUP5 PUSH2 0x2A46 JUMP JUMPDEST SWAP1 POP SWAP3 SWAP2 POP POP JUMP JUMPDEST PUSH1 0x0 PUSH20 0xFFFFFFFFFFFFFFFFFFFFFFFFFFFFFFFFFFFFFFFF DUP3 AND SWAP1 POP SWAP2 SWAP1 POP JUMP JUMPDEST PUSH1 0x0 PUSH2 0x2ACC DUP3 PUSH2 0x2AA1 JUMP JUMPDEST SWAP1 POP SWAP2 SWAP1 POP JUMP JUMPDEST PUSH2 0x2ADC DUP2 PUSH2 0x2AC1 JUMP JUMPDEST DUP2 EQ PUSH2 0x2AE7 JUMPI PUSH1 0x0 DUP1 REVERT JUMPDEST POP JUMP JUMPDEST PUSH1 0x0 DUP2 CALLDATALOAD SWAP1 POP PUSH2 0x2AF9 DUP2 PUSH2 0x2AD3 JUMP JUMPDEST SWAP3 SWAP2 POP POP JUMP JUMPDEST PUSH1 0x0 PUSH1 0x20 DUP3 DUP5 SUB SLT ISZERO PUSH2 0x2B15 JUMPI PUSH2 0x2B14 PUSH2 0x25D1 JUMP JUMPDEST JUMPDEST PUSH1 0x0 PUSH2 0x2B23 DUP5 DUP3 DUP6 ADD PUSH2 0x2AEA JUMP JUMPDEST SWAP2 POP POP SWAP3 SWAP2 POP POP JUMP JUMPDEST PUSH1 0x0 DUP2 MLOAD SWAP1 POP SWAP2 SWAP1 POP JUMP JUMPDEST PUSH1 0x0 DUP3 DUP3 MSTORE PUSH1 0x20 DUP3 ADD SWAP1 POP SWAP3 SWAP2 POP POP JUMP JUMPDEST PUSH1 0x0 DUP2 SWAP1 POP PUSH1 0x20 DUP3 ADD SWAP1 POP SWAP2 SWAP1 POP JUMP JUMPDEST PUSH2 0x2B61 DUP2 PUSH2 0x25DB JUMP JUMPDEST DUP3 MSTORE POP POP JUMP JUMPDEST PUSH1 0x0 PUSH2 0x2B73 DUP4 DUP4 PUSH2 0x2B58 JUMP JUMPDEST PUSH1 0x20 DUP4 ADD SWAP1 POP SWAP3 SWAP2 POP POP JUMP JUMPDEST PUSH1 0x0 PUSH1 0x20 DUP3 ADD SWAP1 POP SWAP2 SWAP1 POP JUMP JUMPDEST PUSH1 0x0 PUSH2 0x2B97 DUP3 PUSH2 0x2B2C JUMP JUMPDEST PUSH2 0x2BA1 DUP2 DUP6 PUSH2 0x2B37 JUMP JUMPDEST SWAP4 POP PUSH2 0x2BAC DUP4 PUSH2 0x2B48 JUMP JUMPDEST DUP1 PUSH1 0x0 JUMPDEST DUP4 DUP2 LT ISZERO PUSH2 0x2BDD JUMPI DUP2 MLOAD PUSH2 0x2BC4 DUP9 DUP3 PUSH2 0x2B67 JUMP JUMPDEST SWAP8 POP PUSH2 0x2BCF DUP4 PUSH2 0x2B7F JUMP JUMPDEST SWAP3 POP POP PUSH1 0x1 DUP2 ADD SWAP1 POP PUSH2 0x2BB0 JUMP JUMPDEST POP DUP6 SWAP4 POP POP POP POP SWAP3 SWAP2 POP POP JUMP JUMPDEST PUSH1 0x0 PUSH1 0x20 DUP3 ADD SWAP1 POP DUP2 DUP2 SUB PUSH1 0x0 DUP4 ADD MSTORE PUSH2 0x2C04 DUP2 DUP5 PUSH2 0x2B8C JUMP JUMPDEST SWAP1 POP SWAP3 SWAP2 POP POP JUMP JUMPDEST PUSH2 0x2C15 DUP2 PUSH2 0x2AC1 JUMP JUMPDEST DUP3 MSTORE POP POP JUMP JUMPDEST PUSH1 0x0 PUSH1 0x20 DUP3 ADD SWAP1 POP PUSH2 0x2C30 PUSH1 0x0 DUP4 ADD DUP5 PUSH2 0x2C0C JUMP JUMPDEST SWAP3 SWAP2 POP POP JUMP JUMPDEST PUSH1 0x0 DUP1 PUSH1 0x40 DUP4 DUP6 SUB SLT ISZERO PUSH2 0x2C4D JUMPI PUSH2 0x2C4C PUSH2 0x25D1 JUMP JUMPDEST JUMPDEST PUSH1 0x0 PUSH2 0x2C5B DUP6 DUP3 DUP7 ADD PUSH2 0x25FC JUMP JUMPDEST SWAP3 POP POP PUSH1 0x20 PUSH2 0x2C6C DUP6 DUP3 DUP7 ADD PUSH2 0x2AEA JUMP JUMPDEST SWAP2 POP POP SWAP3 POP SWAP3 SWAP1 POP JUMP JUMPDEST PUSH2 0x2C7F DUP2 PUSH2 0x292C JUMP JUMPDEST DUP3 MSTORE POP POP JUMP JUMPDEST PUSH1 0x0 PUSH1 0x20 DUP3 ADD SWAP1 POP PUSH2 0x2C9A PUSH1 0x0 DUP4 ADD DUP5 PUSH2 0x2C76 JUMP JUMPDEST SWAP3 SWAP2 POP POP JUMP JUMPDEST PUSH1 0x0 PUSH2 0x140 DUP3 ADD SWAP1 POP PUSH2 0x2CB6 PUSH1 0x0 DUP4 ADD DUP14 PUSH2 0x2C0C JUMP JUMPDEST DUP2 DUP2 SUB PUSH1 0x20 DUP4 ADD MSTORE PUSH2 0x2CC8 DUP2 DUP13 PUSH2 0x2A46 JUMP JUMPDEST SWAP1 POP PUSH2 0x2CD7 PUSH1 0x40 DUP4 ADD DUP12 PUSH2 0x2853 JUMP JUMPDEST PUSH2 0x2CE4 PUSH1 0x60 DUP4 ADD DUP11 PUSH2 0x2C76 JUMP JUMPDEST PUSH2 0x2CF1 PUSH1 0x80 DUP4 ADD DUP10 PUSH2 0x2853 JUMP JUMPDEST PUSH2 0x2CFE PUSH1 0xA0 DUP4 ADD DUP9 PUSH2 0x2853 JUMP JUMPDEST PUSH2 0x2D0B PUSH1 0xC0 DUP4 ADD DUP8 PUSH2 0x2C76 JUMP JUMPDEST PUSH2 0x2D18 PUSH1 0xE0 DUP4 ADD DUP7 PUSH2 0x2853 JUMP JUMPDEST DUP2 DUP2 SUB PUSH2 0x100 DUP4 ADD MSTORE PUSH2 0x2D2B DUP2 DUP6 PUSH2 0x2A46 JUMP JUMPDEST SWAP1 POP DUP2 DUP2 SUB PUSH2 0x120 DUP4 ADD MSTORE PUSH2 0x2D40 DUP2 DUP5 PUSH2 0x2A46 JUMP JUMPDEST SWAP1 POP SWAP12 SWAP11 POP POP POP POP POP POP POP POP POP POP POP JUMP JUMPDEST PUSH1 0x0 PUSH2 0x140 DUP3 ADD SWAP1 POP PUSH2 0x2D67 PUSH1 0x0 DUP4 ADD DUP14 PUSH2 0x2853 JUMP JUMPDEST PUSH2 0x2D74 PUSH1 0x20 DUP4 ADD DUP13 PUSH2 0x2C0C JUMP JUMPDEST DUP2 DUP2 SUB PUSH1 0x40 DUP4 ADD MSTORE PUSH2 0x2D86 DUP2 DUP12 PUSH2 0x2A46 JUMP JUMPDEST SWAP1 POP DUP2 DUP2 SUB PUSH1 0x60 DUP4 ADD MSTORE PUSH2 0x2D9A DUP2 DUP11 PUSH2 0x2A46 JUMP JUMPDEST SWAP1 POP DUP2 DUP2 SUB PUSH1 0x80 DUP4 ADD MSTORE PUSH2 0x2DAE DUP2 DUP10 PUSH2 0x2A46 JUMP JUMPDEST SWAP1 POP PUSH2 0x2DBD PUSH1 0xA0 DUP4 ADD DUP9 PUSH2 0x2853 JUMP JUMPDEST PUSH2 0x2DCA PUSH1 0xC0 DUP4 ADD DUP8 PUSH2 0x2853 JUMP JUMPDEST PUSH2 0x2DD7 PUSH1 0xE0 DUP4 ADD DUP7 PUSH2 0x2C76 JUMP JUMPDEST PUSH2 0x2DE5 PUSH2 0x100 DUP4 ADD DUP6 PUSH2 0x2853 JUMP JUMPDEST PUSH2 0x2DF3 PUSH2 0x120 DUP4 ADD DUP5 PUSH2 0x2853 JUMP JUMPDEST SWAP12 SWAP11 POP POP POP POP POP POP POP POP POP POP POP JUMP JUMPDEST PUSH1 0x0 DUP1 PUSH1 0x0 PUSH1 0x60 DUP5 DUP7 SUB SLT ISZERO PUSH2 0x2E1B JUMPI PUSH2 0x2E1A PUSH2 0x25D1 JUMP JUMPDEST JUMPDEST PUSH1 0x0 PUSH2 0x2E29 DUP7 DUP3 DUP8 ADD PUSH2 0x25FC JUMP JUMPDEST SWAP4 POP POP PUSH1 0x20 PUSH2 0x2E3A DUP7 DUP3 DUP8 ADD PUSH2 0x25FC JUMP JUMPDEST SWAP3 POP POP PUSH1 0x40 PUSH2 0x2E4B DUP7 DUP3 DUP8 ADD PUSH2 0x2AEA JUMP JUMPDEST SWAP2 POP POP SWAP3 POP SWAP3 POP SWAP3 JUMP JUMPDEST PUSH32 0x426F756E747920616C726561647920636F6D706C657465640000000000000000 PUSH1 0x0 DUP3 ADD MSTORE POP JUMP JUMPDEST PUSH1 0x0 PUSH2 0x2E8B PUSH1 0x18 DUP4 PUSH2 0x2A02 JUMP JUMPDEST SWAP2 POP PUSH2 0x2E96 DUP3 PUSH2 0x2E55 JUMP JUMPDEST PUSH1 0x20 DUP3 ADD SWAP1 POP SWAP2 SWAP1 POP JUMP JUMPDEST PUSH1 0x0 PUSH1 0x20 DUP3 ADD SWAP1 POP DUP2 DUP2 SUB PUSH1 0x0 DUP4 ADD MSTORE PUSH2 0x2EBA DUP2 PUSH2 0x2E7E JUMP JUMPDEST SWAP1 POP SWAP2 SWAP1 POP JUMP JUMPDEST PUSH32 0x426F756E747920646561646C696E65206E6F7420726561636865640000000000 PUSH1 0x0 DUP3 ADD MSTORE POP JUMP JUMPDEST PUSH1 0x0 PUSH2 0x2EF7 PUSH1 0x1B DUP4 PUSH2 0x2A02 JUMP JUMPDEST SWAP2 POP PUSH2 0x2F02 DUP3 PUSH2 0x2EC1 JUMP JUMPDEST PUSH1 0x20 DUP3 ADD SWAP1 POP SWAP2 SWAP1 POP JUMP JUMPDEST PUSH1 0x0 PUSH1 0x20 DUP3 ADD SWAP1 POP DUP2 DUP2 SUB PUSH1 0x0 DUP4 ADD MSTORE PUSH2 0x2F26 DUP2 PUSH2 0x2EEA JUMP JUMPDEST SWAP1 POP SWAP2 SWAP1 POP JUMP JUMPDEST PUSH32 0x4F6E6C7920626F756E74792063726561746F722063616E20636F6D706C657465 PUSH1 0x0 DUP3 ADD MSTORE PUSH32 0x20626F756E747900000000000000000000000000000000000000000000000000 PUSH1 0x20 DUP3 ADD MSTORE POP JUMP JUMPDEST PUSH1 0x0 PUSH2 0x2F89 PUSH1 0x27 DUP4 PUSH2 0x2A02 JUMP JUMPDEST SWAP2 POP PUSH2 0x2F94 DUP3 PUSH2 0x2F2D JUMP JUMPDEST PUSH1 0x40 DUP3 ADD SWAP1 POP SWAP2 SWAP1 POP JUMP JUMPDEST PUSH1 0x0 PUSH1 0x20 DUP3 ADD SWAP1 POP DUP2 DUP2 SUB PUSH1 0x0 DUP4 ADD MSTORE PUSH2 0x2FB8 DUP2 PUSH2 0x2F7C JUMP JUMPDEST SWAP1 POP SWAP2 SWAP1 POP JUMP JUMPDEST PUSH1 0x0 DUP2 SWAP1 POP SWAP2 SWAP1 POP JUMP JUMPDEST PUSH1 0x0 DUP2 SWAP1 POP SWAP2 SWAP1 POP JUMP JUMPDEST PUSH1 0x0 PUSH2 0x2FEE PUSH2 0x2FE9 PUSH2 0x2FE4 DUP5 PUSH2 0x2FBF JUMP JUMPDEST PUSH2 0x2FC9 JUMP JUMPDEST PUSH2 0x25DB JUMP JUMPDEST SWAP1 POP SWAP2 SWAP1 POP JUMP JUMPDEST PUSH2 0x2FFE DUP2 PUSH2 0x2FD3 JUMP JUMPDEST DUP3 MSTORE POP POP JUMP JUMPDEST PUSH1 0x0 PUSH1 0x20 DUP3 ADD SWAP1 POP PUSH2 0x3019 PUSH1 0x0 DUP4 ADD DUP5 PUSH2 0x2FF5 JUMP JUMPDEST SWAP3 SWAP2 POP POP JUMP JUMPDEST PUSH32 0x446561646C696E65206D75737420626520696E20746865206675747572650000 PUSH1 0x0 DUP3 ADD MSTORE POP JUMP JUMPDEST PUSH1 0x0 PUSH2 0x3055 PUSH1 0x1E DUP4 PUSH2 0x2A02 JUMP JUMPDEST SWAP2 POP PUSH2 0x3060 DUP3 PUSH2 0x301F JUMP JUMPDEST PUSH1 0x20 DUP3 ADD SWAP1 POP SWAP2 SWAP1 POP JUMP JUMPDEST PUSH1 0x0 PUSH1 0x20 DUP3 ADD SWAP1 POP DUP2 DUP2 SUB PUSH1 0x0 DUP4 ADD MSTORE PUSH2 0x3084 DUP2 PUSH2 0x3048 JUMP JUMPDEST SWAP1 POP SWAP2 SWAP1 POP JUMP JUMPDEST PUSH32 0x526577617264206D7573742062652067726561746572207468616E2030000000 PUSH1 0x0 DUP3 ADD MSTORE POP JUMP JUMPDEST PUSH1 0x0 PUSH2 0x30C1 PUSH1 0x1D DUP4 PUSH2 0x2A02 JUMP JUMPDEST SWAP2 POP PUSH2 0x30CC DUP3 PUSH2 0x308B JUMP JUMPDEST PUSH1 0x20 DUP3 ADD SWAP1 POP SWAP2 SWAP1 POP JUMP JUMPDEST PUSH1 0x0 PUSH1 0x20 DUP3 ADD SWAP1 POP DUP2 DUP2 SUB PUSH1 0x0 DUP4 ADD MSTORE PUSH2 0x30F0 DUP2 PUSH2 0x30B4 JUMP JUMPDEST SWAP1 POP SWAP2 SWAP1 POP JUMP JUMPDEST PUSH32 0x4D7573742073656E642065786163742072657761726420616D6F756E74000000 PUSH1 0x0 DUP3 ADD MSTORE POP JUMP JUMPDEST PUSH1 0x0 PUSH2 0x312D PUSH1 0x1D DUP4 PUSH2 0x2A02 JUMP JUMPDEST SWAP2 POP PUSH2 0x3138 DUP3 PUSH2 0x30F7 JUMP JUMPDEST PUSH1 0x20 DUP3 ADD SWAP1 POP SWAP2 SWAP1 POP JUMP JUMPDEST PUSH1 0x0 PUSH1 0x20 DUP3 ADD SWAP1 POP DUP2 DUP2 SUB PUSH1 0x0 DUP4 ADD MSTORE PUSH2 0x315C DUP2 PUSH2 0x3120 JUMP JUMPDEST SWAP1 POP SWAP2 SWAP1 POP JUMP JUMPDEST PUSH32 0x4E487B7100000000000000000000000000000000000000000000000000000000 PUSH1 0x0 MSTORE PUSH1 0x11 PUSH1 0x4 MSTORE PUSH1 0x24 PUSH1 0x0 REVERT JUMPDEST PUSH1 0x0 PUSH2 0x319D DUP3 PUSH2 0x25DB JUMP JUMPDEST SWAP2 POP PUSH32 0xFFFFFFFFFFFFFFFFFFFFFFFFFFFFFFFFFFFFFFFFFFFFFFFFFFFFFFFFFFFFFFFF DUP3 EQ ISZERO PUSH2 0x31D0 JUMPI PUSH2 0x31CF PUSH2 0x3163 JUMP JUMPDEST JUMPDEST PUSH1 0x1 DUP3 ADD SWAP1 POP SWAP2 SWAP1 POP JUMP JUMPDEST PUSH1 0x0 PUSH1 0x40 DUP3 ADD SWAP1 POP DUP2 DUP2 SUB PUSH1 0x0 DUP4 ADD MSTORE PUSH2 0x31F5 DUP2 DUP6 PUSH2 0x2A46 JUMP JUMPDEST SWAP1 POP PUSH2 0x3204 PUSH1 0x20 DUP4 ADD DUP5 PUSH2 0x2853 JUMP JUMPDEST SWAP4 SWAP3 POP POP POP JUMP JUMPDEST PUSH32 0x426F756E747920646561646C696E652068617320706173736564000000000000 PUSH1 0x0 DUP3 ADD MSTORE POP JUMP JUMPDEST PUSH1 0x0 PUSH2 0x3241 PUSH1 0x1A DUP4 PUSH2 0x2A02 JUMP JUMPDEST SWAP2 POP PUSH2 0x324C DUP3 PUSH2 0x320B JUMP JUMPDEST PUSH1 0x20 DUP3 ADD SWAP1 POP SWAP2 SWAP1 POP JUMP JUMPDEST PUSH1 0x0 PUSH1 0x20 DUP3 ADD SWAP1 POP DUP2 DUP2 SUB PUSH1 0x0 DUP4 ADD MSTORE PUSH2 0x3270 DUP2 PUSH2 0x3234 JUMP JUMPDEST SWAP1 POP SWAP2 SWAP1 POP JUMP JUMPDEST PUSH32 0x496E76616C69642070726F6F662068617368206C656E67746800000000000000 PUSH1 0x0 DUP3 ADD MSTORE POP JUMP JUMPDEST PUSH1 0x0 PUSH2 0x32AD PUSH1 0x19 DUP4 PUSH2 0x2A02 JUMP JUMPDEST SWAP2 POP PUSH2 0x32B8 DUP3 PUSH2 0x3277 JUMP JUMPDEST PUSH1 0x20 DUP3 ADD SWAP1 POP SWAP2 SWAP1 POP JUMP JUMPDEST PUSH1 0x0 PUSH1 0x20 DUP3 ADD SWAP1 POP DUP2 DUP2 SUB PUSH1 0x0 DUP4 ADD MSTORE PUSH2 0x32DC DUP2 PUSH2 0x32A0 JUMP JUMPDEST SWAP1 POP SWAP2 SWAP1 POP JUMP JUMPDEST PUSH32 0x416C7265616479207375626D697474656420612070726F6F6600000000000000 PUSH1 0x0 DUP3 ADD MSTORE POP JUMP JUMPDEST PUSH1 0x0 PUSH2 0x3319 PUSH1 0x19 DUP4 PUSH2 0x2A02 JUMP JUMPDEST SWAP2 POP PUSH2 0x3324 DUP3 PUSH2 0x32E3 JUMP JUMPDEST PUSH1 0x20 DUP3 ADD SWAP1 POP SWAP2 SWAP1 POP JUMP JUMPDEST PUSH1 0x0 PUSH1 0x20 DUP3 ADD SWAP1 POP DUP2 DUP2 SUB PUSH1 0x0 DUP4 ADD MSTORE PUSH2 0x3348 DUP2 PUSH2 0x330C JUMP JUMPDEST SWAP1 POP SWAP2 SWAP1 POP JUMP JUMPDEST POP JUMP JUMPDEST PUSH1 0x0 PUSH2 0x335F PUSH1 0x0 DUP4 PUSH2 0x2A02 JUMP JUMPDEST SWAP2 POP PUSH2 0x336A DUP3 PUSH2 0x334F JUMP JUMPDEST PUSH1 0x0 DUP3 ADD SWAP1 POP SWAP2 SWAP1 POP JUMP JUMPDEST PUSH1 0x0 PUSH1 0x40 DUP3 ADD SWAP1 POP DUP2 DUP2 SUB PUSH1 0x0 DUP4 ADD MSTORE PUSH2 0x338F DUP2 DUP5 PUSH2 0x2A46 JUMP JUMPDEST SWAP1 POP DUP2 DUP2 SUB PUSH1 0x20 DUP4 ADD MSTORE PUSH2 0x33A2 DUP2 PUSH2 0x3352 JUMP JUMPDEST SWAP1 POP SWAP3 SWAP2 POP POP JUMP JUMPDEST PUSH32 0x4F6E6C7920626F756E74792063726561746F722063616E207365742072657761 PUSH1 0x0 DUP3 ADD MSTORE PUSH32 0x7264730000000000000000000000000000000000000000000000000000000000 PUSH1 0x20 DUP3 ADD MSTORE POP JUMP JUMPDEST PUSH1 0x0 PUSH2 0x3406 PUSH1 0x23 DUP4 PUSH2 0x2A02 JUMP JUMPDEST SWAP2 POP PUSH2 0x3411 DUP3 PUSH2 0x33AA JUMP JUMPDEST PUSH1 0x40 DUP3 ADD SWAP1 POP SWAP2 SWAP1 POP JUMP JUMPDEST PUSH1 0x0 PUSH1 0x20 DUP3 ADD SWAP1 POP DUP2 DUP2 SUB PUSH1 0x0 DUP4 ADD MSTORE PUSH2 0x3435 DUP2 PUSH2 0x33F9 JUMP JUMPDEST SWAP1 POP SWAP2 SWAP1 POP JUMP JUMPDEST PUSH32 0x43616E6E6F742073657420726577617264206265666F726520646561646C696E PUSH1 0x0 DUP3 ADD MSTORE PUSH32 0x6500000000000000000000000000000000000000000000000000000000000000 PUSH1 0x20 DUP3 ADD MSTORE POP JUMP JUMPDEST PUSH1 0x0 PUSH2 0x3498 PUSH1 0x21 DUP4 PUSH2 0x2A02 JUMP JUMPDEST SWAP2 POP PUSH2 0x34A3 DUP3 PUSH2 0x343C JUMP JUMPDEST PUSH1 0x40 DUP3 ADD SWAP1 POP SWAP2 SWAP1 POP JUMP JUMPDEST PUSH1 0x0 PUSH1 0x20 DUP3 ADD SWAP1 POP DUP2 DUP2 SUB PUSH1 0x0 DUP4 ADD MSTORE PUSH2 0x34C7 DUP2 PUSH2 0x348B JUMP JUMPDEST SWAP1 POP SWAP2 SWAP1 POP JUMP JUMPDEST PUSH32 0x496E76616C6964207375626D697373696F6E2049440000000000000000000000 PUSH1 0x0 DUP3 ADD MSTORE POP JUMP JUMPDEST PUSH1 0x0 PUSH2 0x3504 PUSH1 0x15 DUP4 PUSH2 0x2A02 JUMP JUMPDEST SWAP2 POP PUSH2 0x350F DUP3 PUSH2 0x34CE JUMP JUMPDEST PUSH1 0x20 DUP3 ADD SWAP1 POP SWAP2 SWAP1 POP JUMP JUMPDEST PUSH1 0x0 PUSH1 0x20 DUP3 ADD SWAP1 POP DUP2 DUP2 SUB PUSH1 0x0 DUP4 ADD MSTORE PUSH2 0x3533 DUP2 PUSH2 0x34F7 JUMP JUMPDEST SWAP1 POP SWAP2 SWAP1 POP JUMP JUMPDEST PUSH32 0x5265776172642063616E6E6F742065786365656420626F756E747920616D6F75 PUSH1 0x0 DUP3 ADD MSTORE PUSH32 0x6E74000000000000000000000000000000000000000000000000000000000000 PUSH1 0x20 DUP3 ADD MSTORE POP JUMP JUMPDEST PUSH1 0x0 PUSH2 0x3596 PUSH1 0x22 DUP4 PUSH2 0x2A02 JUMP JUMPDEST SWAP2 POP PUSH2 0x35A1 DUP3 PUSH2 0x353A JUMP JUMPDEST PUSH1 0x40 DUP3 ADD SWAP1 POP SWAP2 SWAP1 POP JUMP JUMPDEST PUSH1 0x0 PUSH1 0x20 DUP3 ADD SWAP1 POP DUP2 DUP2 SUB PUSH1 0x0 DUP4 ADD MSTORE PUSH2 0x35C5 DUP2 PUSH2 0x3589 JUMP JUMPDEST SWAP1 POP SWAP2 SWAP1 POP JUMP JUMPDEST PUSH32 0x43616E206F6E6C79207365742072657761726420666F7220617070726F766564 PUSH1 0x0 DUP3 ADD MSTORE PUSH32 0x207375626D697373696F6E730000000000000000000000000000000000000000 PUSH1 0x20 DUP3 ADD MSTORE POP JUMP JUMPDEST PUSH1 0x0 PUSH2 0x3628 PUSH1 0x2C DUP4 PUSH2 0x2A02 JUMP JUMPDEST SWAP2 POP PUSH2 0x3633 DUP3 PUSH2 0x35CC JUMP JUMPDEST PUSH1 0x40 DUP3 ADD SWAP1 POP SWAP2 SWAP1 POP JUMP JUMPDEST PUSH1 0x0 PUSH1 0x20 DUP3 ADD SWAP1 POP DUP2 DUP2 SUB PUSH1 0x0 DUP4 ADD MSTORE PUSH2 0x3657 DUP2 PUSH2 0x361B JUMP JUMPDEST SWAP1 POP SWAP2 SWAP1 POP JUMP JUMPDEST PUSH32 0x52657761726420616C72656164792073657420666F722074686973207375626D PUSH1 0x0 DUP3 ADD MSTORE PUSH32 0x697373696F6E0000000000000000000000000000000000000000000000000000 PUSH1 0x20 DUP3 ADD MSTORE POP JUMP JUMPDEST PUSH1 0x0 PUSH2 0x36BA PUSH1 0x26 DUP4 PUSH2 0x2A02 JUMP JUMPDEST SWAP2 POP PUSH2 0x36C5 DUP3 PUSH2 0x365E JUMP JUMPDEST PUSH1 0x40 DUP3 ADD SWAP1 POP SWAP2 SWAP1 POP JUMP JUMPDEST PUSH1 0x0 PUSH1 0x20 DUP3 ADD SWAP1 POP DUP2 DUP2 SUB PUSH1 0x0 DUP4 ADD MSTORE PUSH2 0x36E9 DUP2 PUSH2 0x36AD JUMP JUMPDEST SWAP1 POP SWAP2 SWAP1 POP JUMP JUMPDEST PUSH1 0x0 DUP2 SWAP1 POP SWAP3 SWAP2 POP POP JUMP JUMPDEST PUSH1 0x0 PUSH2 0x3708 PUSH1 0x0 DUP4 PUSH2 0x36F0 JUMP JUMPDEST SWAP2 POP PUSH2 0x3713 DUP3 PUSH2 0x334F JUMP JUMPDEST PUSH1 0x0 DUP3 ADD SWAP1 POP SWAP2 SWAP1 POP JUMP JUMPDEST PUSH1 0x0 PUSH2 0x3729 DUP3 PUSH2 0x36FB JUMP JUMPDEST SWAP2 POP DUP2 SWAP1 POP SWAP2 SWAP1 POP JUMP JUMPDEST PUSH32 0x5472616E73666572206661696C65640000000000000000000000000000000000 PUSH1 0x0 DUP3 ADD MSTORE POP JUMP JUMPDEST PUSH1 0x0 PUSH2 0x3769 PUSH1 0xF DUP4 PUSH2 0x2A02 JUMP JUMPDEST SWAP2 POP PUSH2 0x3774 DUP3 PUSH2 0x3733 JUMP JUMPDEST PUSH1 0x20 DUP3 ADD SWAP1 POP SWAP2 SWAP1 POP JUMP JUMPDEST PUSH1 0x0 PUSH1 0x20 DUP3 ADD SWAP1 POP DUP2 DUP2 SUB PUSH1 0x0 DUP4 ADD MSTORE PUSH2 0x3798 DUP2 PUSH2 0x375C JUMP JUMPDEST SWAP1 POP SWAP2 SWAP1 POP JUMP JUMPDEST PUSH1 0x0 PUSH2 0x37AA DUP3 PUSH2 0x25DB JUMP JUMPDEST SWAP2 POP PUSH2 0x37B5 DUP4 PUSH2 0x25DB JUMP JUMPDEST SWAP3 POP DUP3 DUP3 LT ISZERO PUSH2 0x37C8 JUMPI PUSH2 0x37C7 PUSH2 0x3163 JUMP JUMPDEST JUMPDEST DUP3 DUP3 SUB SWAP1 POP SWAP3 SWAP2 POP POP JUMP JUMPDEST PUSH32 0x52657475726E207472616E73666572206661696C656400000000000000000000 PUSH1 0x0 DUP3 ADD MSTORE POP JUMP JUMPDEST PUSH1 0x0 PUSH2 0x3809 PUSH1 0x16 DUP4 PUSH2 0x2A02 JUMP JUMPDEST SWAP2 POP PUSH2 0x3814 DUP3 PUSH2 0x37D3 JUMP JUMPDEST PUSH1 0x20 DUP3 ADD SWAP1 POP SWAP2 SWAP1 POP JUMP JUMPDEST PUSH1 0x0 PUSH1 0x20 DUP3 ADD SWAP1 POP DUP2 DUP2 SUB PUSH1 0x0 DUP4 ADD MSTORE PUSH2 0x3838 DUP2 PUSH2 0x37FC JUMP JUMPDEST SWAP1 POP SWAP2 SWAP1 POP JUMP JUMPDEST PUSH1 0x0 DUP2 SWAP1 POP SWAP2 SWAP1 POP JUMP JUMPDEST PUSH1 0x0 PUSH2 0x3864 PUSH2 0x385F PUSH2 0x385A DUP5 PUSH2 0x383F JUMP JUMPDEST PUSH2 0x2FC9 JUMP JUMPDEST PUSH2 0x25DB JUMP JUMPDEST SWAP1 POP SWAP2 SWAP1 POP JUMP JUMPDEST PUSH2 0x3874 DUP2 PUSH2 0x3849 JUMP JUMPDEST DUP3 MSTORE POP POP JUMP JUMPDEST PUSH1 0x0 PUSH1 0x20 DUP3 ADD SWAP1 POP PUSH2 0x388F PUSH1 0x0 DUP4 ADD DUP5 PUSH2 0x386B JUMP JUMPDEST SWAP3 SWAP2 POP POP JUMP JUMPDEST PUSH1 0x0 PUSH1 0x40 DUP3 ADD SWAP1 POP PUSH2 0x38AA PUSH1 0x0 DUP4 ADD DUP5 PUSH2 0x2853 JUMP JUMPDEST DUP2 DUP2 SUB PUSH1 0x20 DUP4 ADD MSTORE PUSH2 0x38BB DUP2 PUSH2 0x3352 JUMP JUMPDEST SWAP1 POP SWAP3 SWAP2 POP POP JUMP JUMPDEST PUSH32 0x416C726561647920766F74656400000000000000000000000000000000000000 PUSH1 0x0 DUP3 ADD MSTORE POP JUMP JUMPDEST PUSH1 0x0 PUSH2 0x38F9 PUSH1 0xD DUP4 PUSH2 0x2A02 JUMP JUMPDEST SWAP2 POP PUSH2 0x3904 DUP3 PUSH2 0x38C3 JUMP JUMPDEST PUSH1 0x20 DUP3 ADD SWAP1 POP SWAP2 SWAP1 POP JUMP JUMPDEST PUSH1 0x0 PUSH1 0x20 DUP3 ADD SWAP1 POP DUP2 DUP2 SUB PUSH1 0x0 DUP4 ADD MSTORE PUSH2 0x3928 DUP2 PUSH2 0x38EC JUMP JUMPDEST SWAP1 POP SWAP2 SWAP1 POP JUMP JUMPDEST PUSH32 0x43616E6E6F7420766F7465206F6E206F776E207375626D697373696F6E000000 PUSH1 0x0 DUP3 ADD MSTORE POP JUMP JUMPDEST PUSH1 0x0 PUSH2 0x3965 PUSH1 0x1D DUP4 PUSH2 0x2A02 JUMP JUMPDEST SWAP2 POP PUSH2 0x3970 DUP3 PUSH2 0x392F JUMP JUMPDEST PUSH1 0x20 DUP3 ADD SWAP1 POP SWAP2 SWAP1 POP JUMP JUMPDEST PUSH1 0x0 PUSH1 0x20 DUP3 ADD SWAP1 POP DUP2 DUP2 SUB PUSH1 0x0 DUP4 ADD MSTORE PUSH2 0x3994 DUP2 PUSH2 0x3958 JUMP JUMPDEST SWAP1 POP SWAP2 SWAP1 POP JUMP JUMPDEST PUSH32 0x4E487B7100000000000000000000000000000000000000000000000000000000 PUSH1 0x0 MSTORE PUSH1 0x22 PUSH1 0x4 MSTORE PUSH1 0x24 PUSH1 0x0 REVERT JUMPDEST PUSH1 0x0 PUSH1 0x2 DUP3 DIV SWAP1 POP PUSH1 0x1 DUP3 AND DUP1 PUSH2 0x39E2 JUMPI PUSH1 0x7F DUP3 AND SWAP2 POP JUMPDEST PUSH1 0x20 DUP3 LT DUP2 EQ ISZERO PUSH2 0x39F6 JUMPI PUSH2 0x39F5 PUSH2 0x399B JUMP JUMPDEST JUMPDEST POP SWAP2 SWAP1 POP JUMP JUMPDEST PUSH32 0x4F776E61626C653A206E6577206F776E657220697320746865207A65726F2061 PUSH1 0x0 DUP3 ADD MSTORE PUSH32 0x6464726573730000000000000000000000000000000000000000000000000000 PUSH1 0x20 DUP3 ADD MSTORE POP JUMP JUMPDEST PUSH1 0x0 PUSH2 0x3A58 PUSH1 0x26 DUP4 PUSH2 0x2A02 JUMP JUMPDEST SWAP2 POP PUSH2 0x3A63 DUP3 PUSH2 0x39FC JUMP JUMPDEST PUSH1 0x40 DUP3 ADD SWAP1 POP SWAP2 SWAP1 POP JUMP JUMPDEST PUSH1 0x0 PUSH1 0x20 DUP3 ADD SWAP1 POP DUP2 DUP2 SUB PUSH1 0x0 DUP4 ADD MSTORE PUSH2 0x3A87 DUP2 PUSH2 0x3A4B JUMP JUMPDEST SWAP1 POP SWAP2 SWAP1 POP JUMP JUMPDEST PUSH32 0x5265656E7472616E637947756172643A207265656E7472616E742063616C6C00 PUSH1 0x0 DUP3 ADD MSTORE POP JUMP JUMPDEST PUSH1 0x0 PUSH2 0x3AC4 PUSH1 0x1F DUP4 PUSH2 0x2A02 JUMP JUMPDEST SWAP2 POP PUSH2 0x3ACF DUP3 PUSH2 0x3A8E JUMP JUMPDEST PUSH1 0x20 DUP3 ADD SWAP1 POP SWAP2 SWAP1 POP JUMP JUMPDEST PUSH1 0x0 PUSH1 0x20 DUP3 ADD SWAP1 POP DUP2 DUP2 SUB PUSH1 0x0 DUP4 ADD MSTORE PUSH2 0x3AF3 DUP2 PUSH2 0x3AB7 JUMP JUMPDEST SWAP1 POP SWAP2 SWAP1 POP JUMP JUMPDEST PUSH32 0x4F776E61626C653A2063616C6C6572206973206E6F7420746865206F776E6572 PUSH1 0x0 DUP3 ADD MSTORE POP JUMP JUMPDEST PUSH1 0x0 PUSH2 0x3B30 PUSH1 0x20 DUP4 PUSH2 0x2A02 JUMP JUMPDEST SWAP2 POP PUSH2 0x3B3B DUP3 PUSH2 0x3AFA JUMP JUMPDEST PUSH1 0x20 DUP3 ADD SWAP1 POP SWAP2 SWAP1 POP JUMP JUMPDEST PUSH1 0x0 PUSH1 0x20 DUP3 ADD SWAP1 POP DUP2 DUP2 SUB PUSH1 0x0 DUP4 ADD MSTORE PUSH2 0x3B5F DUP2 PUSH2 0x3B23 JUMP JUMPDEST SWAP1 POP SWAP2 SWAP1 POP JUMP INVALID LOG2 PUSH5 0x6970667358 0x22 SLT KECCAK256 CREATE2 0xE4 PUSH26 0xA89F9BEA15253A5DD0DC82E345305F3613CD867BB838FDA0C963 PUSH32 0xBD3764736F6C634300080A003300000000000000000000000000000000000000 "},"methodIdentifiers":{"BLOCKS_PER_DAY()":"6bb987fe","TOTAL_VOTES()":"ab515883","bounties(uint256)":"dc2f8744","bountyCount()":"3e362c96","completeBounty(uint256)":"139005ab","createBounty(string,string,string,uint256,uint256)":"1524e11b","getPayoutTxHash(uint256,uint256)":"77016ea3","getSubmission(uint256,uint256)":"b7ed7071","getSubmissionCount(uint256)":"7be24cb8","getSubmissionTxHash(uint256,uint256)":"60b8ab57","getUserBounties(address)":"6591a185","getUserSubmissions(address)":"a7b8614d","hasSubmitted(uint256,address)":"a57d3806","hasVotedOnSubmission(uint256,uint256,address)":"fc40d6e7","owner()":"8da5cb5b","payoutTxHashes(uint256,uint256)":"7b7e41dc","renounceOwnership()":"715018a6","setSubmissionReward(uint256,uint256,uint256)":"395c2a0c","submissionTxHashes(uint256,uint256)":"91e4d9ea","submitProof(uint256,string)":"2af00510","transferOwnership(address)":"f2fde38b","userReputation(address)":"e503bb05","voteOnSubmission(uint256,uint256,bool)":"4bdf9084"}}}}}