{
  "_format": "hh-sol-artifact-1",
  "contractName": "CommunityBountyBoard",
  "sourceName": "contracts/CommuntyBoard.sol",
  "abi": [
    {
      "inputs": [],
      "stateMutability": "nonpayable",
      "type": "constructor"
    },
    {
      "anonymous": false,
      "inputs": [
        {
          "indexed": true,
          "internalType": "uint256",
          "name": "bountyId",
          "type": "uint256"
        },
        {
          "indexed": true,
          "internalType": "address",
          "name": "creator",
          "type": "address"
        }
      ],
      "name": "BountyCanceled",
      "type": "event"
    },
    {
      "anonymous": false,
      "inputs": [
        {
          "indexed": true,
          "internalType": "uint256",
          "name": "bountyId",
          "type": "uint256"
        },
        {
          "indexed": false,
          "internalType": "uint256",
          "name": "winnerCount",
          "type": "uint256"
        }
      ],
      "name": "BountyCompleted",
      "type": "event"
    },
    {
      "anonymous": false,
      "inputs": [
        {
          "indexed": true,
          "internalType": "uint256",
          "name": "bountyId",
          "type": "uint256"
        },
        {
          "indexed": true,
          "internalType": "address",
          "name": "creator",
          "type": "address"
        },
        {
          "indexed": false,
          "internalType": "string",
          "name": "title",
          "type": "string"
        },
        {
          "indexed": false,
          "internalType": "uint256",
          "name": "reward",
          "type": "uint256"
        }
      ],
      "name": "BountyCreated",
      "type": "event"
    },
    {
      "anonymous": false,
      "inputs": [
        {
          "indexed": true,
          "internalType": "uint256",
          "name": "bountyId",
          "type": "uint256"
        },
        {
          "indexed": true,
          "internalType": "uint256",
          "name": "submissionId",
          "type": "uint256"
        },
        {
          "indexed": true,
          "internalType": "address",
          "name": "voter",
          "type": "address"
        },
        {
          "indexed": false,
          "internalType": "bool",
          "name": "approve",
          "type": "bool"
        }
      ],
      "name": "BountyVoted",
      "type": "event"
    },
    {
      "anonymous": false,
      "inputs": [
        {
          "indexed": true,
          "internalType": "address",
          "name": "previousOwner",
          "type": "address"
        },
        {
          "indexed": true,
          "internalType": "address",
          "name": "newOwner",
          "type": "address"
        }
      ],
      "name": "OwnershipTransferred",
      "type": "event"
    },
    {
      "anonymous": false,
      "inputs": [
        {
          "indexed": true,
          "internalType": "uint256",
          "name": "bountyId",
          "type": "uint256"
        },
        {
          "indexed": true,
          "internalType": "uint256",
          "name": "submissionId",
          "type": "uint256"
        },
        {
          "indexed": true,
          "internalType": "address",
          "name": "winner",
          "type": "address"
        },
        {
          "indexed": false,
          "internalType": "uint256",
          "name": "amount",
          "type": "uint256"
        },
        {
          "indexed": false,
          "internalType": "string",
          "name": "txHash",
          "type": "string"
        }
      ],
      "name": "PayoutSent",
      "type": "event"
    },
    {
      "anonymous": false,
      "inputs": [
        {
          "indexed": true,
          "internalType": "uint256",
          "name": "bountyId",
          "type": "uint256"
        },
        {
          "indexed": true,
          "internalType": "address",
          "name": "submitter",
          "type": "address"
        },
        {
          "indexed": false,
          "internalType": "string",
          "name": "ipfsProofHash",
          "type": "string"
        },
        {
          "indexed": false,
          "internalType": "string",
          "name": "txHash",
          "type": "string"
        }
      ],
      "name": "ProofSubmitted",
      "type": "event"
    },
    {
      "anonymous": false,
      "inputs": [
        {
          "indexed": true,
          "internalType": "address",
          "name": "user",
          "type": "address"
        },
        {
          "indexed": false,
          "internalType": "uint256",
          "name": "newReputation",
          "type": "uint256"
        }
      ],
      "name": "ReputationUpdated",
      "type": "event"
    },
    {
      "anonymous": false,
      "inputs": [
        {
          "indexed": true,
          "internalType": "uint256",
          "name": "bountyId",
          "type": "uint256"
        },
        {
          "indexed": true,
          "internalType": "uint256",
          "name": "submissionId",
          "type": "uint256"
        },
        {
          "indexed": true,
          "internalType": "address",
          "name": "submitter",
          "type": "address"
        }
      ],
      "name": "SubmissionRejected",
      "type": "event"
    },
    {
      "stateMutability": "payable",
      "type": "fallback"
    },
    {
      "inputs": [],
      "name": "BLOCKS_PER_DAY",
      "outputs": [
        {
          "internalType": "uint256",
          "name": "",
          "type": "uint256"
        }
      ],
      "stateMutability": "view",
      "type": "function"
    },
    {
      "inputs": [],
      "name": "TOTAL_VOTES",
      "outputs": [
        {
          "internalType": "uint256",
          "name": "",
          "type": "uint256"
        }
      ],
      "stateMutability": "view",
      "type": "function"
    },
    {
      "inputs": [
        {
          "internalType": "uint256",
          "name": "",
          "type": "uint256"
        }
      ],
      "name": "bounties",
      "outputs": [
        {
          "internalType": "uint256",
          "name": "id",
          "type": "uint256"
        },
        {
          "internalType": "address",
          "name": "creator",
          "type": "address"
        },
        {
          "internalType": "string",
          "name": "title",
          "type": "string"
        },
        {
          "internalType": "string",
          "name": "description",
          "type": "string"
        },
        {
          "internalType": "string",
          "name": "proofRequirements",
          "type": "string"
        },
        {
          "internalType": "uint256",
          "name": "reward",
          "type": "uint256"
        },
        {
          "internalType": "uint256",
          "name": "deadline",
          "type": "uint256"
        },
        {
          "internalType": "bool",
          "name": "completed",
          "type": "bool"
        },
        {
          "internalType": "uint256",
          "name": "winnerCount",
          "type": "uint256"
        },
        {
          "internalType": "uint256",
          "name": "submissionCount",
          "type": "uint256"
        }
      ],
      "stateMutability": "view",
      "type": "function"
    },
    {
      "inputs": [],
      "name": "bountyCount",
      "outputs": [
        {
          "internalType": "uint256",
          "name": "",
          "type": "uint256"
        }
      ],
      "stateMutability": "view",
      "type": "function"
    },
    {
      "inputs": [
        {
          "internalType": "uint256",
          "name": "_bountyId",
          "type": "uint256"
        }
      ],
      "name": "completeBounty",
      "outputs": [],
      "stateMutability": "nonpayable",
      "type": "function"
    },
    {
      "inputs": [
        {
          "internalType": "string",
          "name": "_title",
          "type": "string"
        },
        {
          "internalType": "string",
          "name": "_description",
          "type": "string"
        },
        {
          "internalType": "string",
          "name": "_proofRequirements",
          "type": "string"
        },
        {
          "internalType": "uint256",
          "name": "_reward",
          "type": "uint256"
        },
        {
          "internalType": "uint256",
          "name": "_deadline",
          "type": "uint256"
        }
      ],
      "name": "createBounty",
      "outputs": [
        {
          "internalType": "uint256",
          "name": "",
          "type": "uint256"
        }
      ],
      "stateMutability": "payable",
      "type": "function"
    },
    {
      "inputs": [
        {
          "internalType": "uint256",
          "name": "_bountyId",
          "type": "uint256"
        },
        {
          "internalType": "uint256",
          "name": "_submissionId",
          "type": "uint256"
        }
      ],
      "name": "getPayoutTxHash",
      "outputs": [
        {
          "internalType": "string",
          "name": "",
          "type": "string"
        }
      ],
      "stateMutability": "view",
      "type": "function"
    },
    {
      "inputs": [
        {
          "internalType": "uint256",
          "name": "_bountyId",
          "type": "uint256"
        },
        {
          "internalType": "uint256",
          "name": "_submissionId",
          "type": "uint256"
        }
      ],
      "name": "getSubmission",
      "outputs": [
        {
          "internalType": "address",
          "name": "submitter",
          "type": "address"
        },
        {
          "internalType": "string",
          "name": "ipfsProofHash",
          "type": "string"
        },
        {
          "internalType": "uint256",
          "name": "timestamp",
          "type": "uint256"
        },
        {
          "internalType": "bool",
          "name": "approved",
          "type": "bool"
        },
        {
          "internalType": "uint256",
          "name": "approvalCount",
          "type": "uint256"
        },
        {
          "internalType": "uint256",
          "name": "rejectCount",
          "type": "uint256"
        },
        {
          "internalType": "bool",
          "name": "isWinner",
          "type": "bool"
        },
        {
          "internalType": "uint256",
          "name": "rewardAmount",
          "type": "uint256"
        },
        {
          "internalType": "string",
          "name": "txHash",
          "type": "string"
        },
        {
          "internalType": "string",
          "name": "payoutTxHash",
          "type": "string"
        }
      ],
      "stateMutability": "view",
      "type": "function"
    },
    {
      "inputs": [
        {
          "internalType": "uint256",
          "name": "_bountyId",
          "type": "uint256"
        }
      ],
      "name": "getSubmissionCount",
      "outputs": [
        {
          "internalType": "uint256",
          "name": "",
          "type": "uint256"
        }
      ],
      "stateMutability": "view",
      "type": "function"
    },
    {
      "inputs": [
        {
          "internalType": "uint256",
          "name": "_bountyId",
          "type": "uint256"
        },
        {
          "internalType": "uint256",
          "name": "_submissionId",
          "type": "uint256"
        }
      ],
      "name": "getSubmissionTxHash",
      "outputs": [
        {
          "internalType": "string",
          "name": "",
          "type": "string"
        }
      ],
      "stateMutability": "view",
      "type": "function"
    },
    {
      "inputs": [
        {
          "internalType": "address",
          "name": "_user",
          "type": "address"
        }
      ],
      "name": "getUserBounties",
      "outputs": [
        {
          "internalType": "uint256[]",
          "name": "",
          "type": "uint256[]"
        }
      ],
      "stateMutability": "view",
      "type": "function"
    },
    {
      "inputs": [
        {
          "internalType": "address",
          "name": "_user",
          "type": "address"
        }
      ],
      "name": "getUserSubmissions",
      "outputs": [
        {
          "internalType": "uint256[]",
          "name": "",
          "type": "uint256[]"
        }
      ],
      "stateMutability": "view",
      "type": "function"
    },
    {
      "inputs": [
        {
          "internalType": "uint256",
          "name": "",
          "type": "uint256"
        },
        {
          "internalType": "address",
          "name": "",
          "type": "address"
        }
      ],
      "name": "hasSubmitted",
      "outputs": [
        {
          "internalType": "bool",
          "name": "",
          "type": "bool"
        }
      ],
      "stateMutability": "view",
      "type": "function"
    },
    {
      "inputs": [
        {
          "internalType": "uint256",
          "name": "_bountyId",
          "type": "uint256"
        },
        {
          "internalType": "uint256",
          "name": "_submissionId",
          "type": "uint256"
        },
        {
          "internalType": "address",
          "name": "_user",
          "type": "address"
        }
      ],
      "name": "hasVotedOnSubmission",
      "outputs": [
        {
          "internalType": "bool",
          "name": "",
          "type": "bool"
        }
      ],
      "stateMutability": "view",
      "type": "function"
    },
    {
      "inputs": [],
      "name": "owner",
      "outputs": [
        {
          "internalType": "address",
          "name": "",
          "type": "address"
        }
      ],
      "stateMutability": "view",
      "type": "function"
    },
    {
      "inputs": [
        {
          "internalType": "uint256",
          "name": "",
          "type": "uint256"
        },
        {
          "internalType": "uint256",
          "name": "",
          "type": "uint256"
        }
      ],
      "name": "payoutTxHashes",
      "outputs": [
        {
          "internalType": "string",
          "name": "",
          "type": "string"
        }
      ],
      "stateMutability": "view",
      "type": "function"
    },
    {
      "inputs": [],
      "name": "renounceOwnership",
      "outputs": [],
      "stateMutability": "nonpayable",
      "type": "function"
    },
    {
      "inputs": [
        {
          "internalType": "uint256",
          "name": "_bountyId",
          "type": "uint256"
        },
        {
          "internalType": "uint256",
          "name": "_submissionId",
          "type": "uint256"
        },
        {
          "internalType": "uint256",
          "name": "_rewardAmount",
          "type": "uint256"
        }
      ],
      "name": "setSubmissionReward",
      "outputs": [],
      "stateMutability": "payable",
      "type": "function"
    },
    {
      "inputs": [
        {
          "internalType": "uint256",
          "name": "",
          "type": "uint256"
        },
        {
          "internalType": "uint256",
          "name": "",
          "type": "uint256"
        }
      ],
      "name": "submissionTxHashes",
      "outputs": [
        {
          "internalType": "string",
          "name": "",
          "type": "string"
        }
      ],
      "stateMutability": "view",
      "type": "function"
    },
    {
      "inputs": [
        {
          "internalType": "uint256",
          "name": "_bountyId",
          "type": "uint256"
        },
        {
          "internalType": "string",
          "name": "_ipfsProofHash",
          "type": "string"
        }
      ],
      "name": "submitProof",
      "outputs": [],
      "stateMutability": "nonpayable",
      "type": "function"
    },
    {
      "inputs": [
        {
          "internalType": "address",
          "name": "newOwner",
          "type": "address"
        }
      ],
      "name": "transferOwnership",
      "outputs": [],
      "stateMutability": "nonpayable",
      "type": "function"
    },
    {
      "inputs": [
        {
          "internalType": "address",
          "name": "",
          "type": "address"
        }
      ],
      "name": "userReputation",
      "outputs": [
        {
          "internalType": "uint256",
          "name": "",
          "type": "uint256"
        }
      ],
      "stateMutability": "view",
      "type": "function"
    },
    {
      "inputs": [
        {
          "internalType": "uint256",
          "name": "_bountyId",
          "type": "uint256"
        },
        {
          "internalType": "uint256",
          "name": "_submissionId",
          "type": "uint256"
        },
        {
          "internalType": "bool",
          "name": "_approve",
          "type": "bool"
        }
      ],
      "name": "voteOnSubmission",
      "outputs": [],
      "stateMutability": "nonpayable",
      "type": "function"
    },
    {
      "stateMutability": "payable",
      "type": "receive"
    }
  ],
  "bytecode": "0x60806040523480156200001157600080fd5b5062000032620000266200003f60201b60201c565b6200004760201b60201c565b600180819055506200010b565b600033905090565b60008060009054906101000a900473ffffffffffffffffffffffffffffffffffffffff169050816000806101000a81548173ffffffffffffffffffffffffffffffffffffffff021916908373ffffffffffffffffffffffffffffffffffffffff1602179055508173ffffffffffffffffffffffffffffffffffffffff168173ffffffffffffffffffffffffffffffffffffffff167f8be0079c531659141344cd1fd0a4f28419497f9722a3daafe3b4186f6b6457e060405160405180910390a35050565b613b9c806200011b6000396000f3fe6080604052600436106101445760003560e01c80637b7e41dc116100b6578063ab5158831161006f578063ab51588314610494578063b7ed7071146104bf578063dc2f874414610505578063e503bb051461054b578063f2fde38b14610588578063fc40d6e7146105b15761014b565b80637b7e41dc146103385780637be24cb8146103755780638da5cb5b146103b257806391e4d9ea146103dd578063a57d38061461041a578063a7b8614d146104575761014b565b80634bdf9084116101085780634bdf90841461021657806360b8ab571461023f5780636591a1851461027c5780636bb987fe146102b9578063715018a6146102e457806377016ea3146102fb5761014b565b8063139005ab1461014d5780631524e11b146101765780632af00510146101a6578063395c2a0c146101cf5780633e362c96146101eb5761014b565b3661014b57005b005b34801561015957600080fd5b50610174600480360381019061016f9190612611565b6105ee565b005b610190600480360381019061018b9190612784565b610789565b60405161019d9190612862565b60405180910390f35b3480156101b257600080fd5b506101cd60048036038101906101c8919061287d565b610a06565b005b6101e960048036038101906101e491906128d9565b610da1565b005b3480156101f757600080fd5b506102006113e4565b60405161020d9190612862565b60405180910390f35b34801561022257600080fd5b5061023d60048036038101906102389190612964565b6113ea565b005b34801561024b57600080fd5b50610266600480360381019061026191906129b7565b61180a565b6040516102739190612a7f565b60405180910390f35b34801561028857600080fd5b506102a3600480360381019061029e9190612aff565b6118c1565b6040516102b09190612bea565b60405180910390f35b3480156102c557600080fd5b506102ce611958565b6040516102db9190612862565b60405180910390f35b3480156102f057600080fd5b506102f961195e565b005b34801561030757600080fd5b50610322600480360381019061031d91906129b7565b611972565b60405161032f9190612a7f565b60405180910390f35b34801561034457600080fd5b5061035f600480360381019061035a91906129b7565b611a29565b60405161036c9190612a7f565b60405180910390f35b34801561038157600080fd5b5061039c60048036038101906103979190612611565b611ad6565b6040516103a99190612862565b60405180910390f35b3480156103be57600080fd5b506103c7611af6565b6040516103d49190612c1b565b60405180910390f35b3480156103e957600080fd5b5061040460048036038101906103ff91906129b7565b611b1f565b6040516104119190612a7f565b60405180910390f35b34801561042657600080fd5b50610441600480360381019061043c9190612c36565b611bcc565b60405161044e9190612c85565b60405180910390f35b34801561046357600080fd5b5061047e60048036038101906104799190612aff565b611bfb565b60405161048b9190612bea565b60405180910390f35b3480156104a057600080fd5b506104a9611c92565b6040516104b69190612862565b60405180910390f35b3480156104cb57600080fd5b506104e660048036038101906104e191906129b7565b611c97565b6040516104fc9a99989796959493929190612ca0565b60405180910390f35b34801561051157600080fd5b5061052c60048036038101906105279190612611565b611eaa565b6040516105429a99989796959493929190612d51565b60405180910390f35b34801561055757600080fd5b50610572600480360381019061056d9190612aff565b6120c3565b60405161057f9190612862565b60405180910390f35b34801561059457600080fd5b506105af60048036038101906105aa9190612aff565b6120db565b005b3480156105bd57600080fd5b506105d860048036038101906105d39190612e02565b61215f565b6040516105e59190612c85565b60405180910390f35b60006003600083815260200190815260200160002090508060070160009054906101000a900460ff1615610657576040517f08c379a000000000000000000000000000000000000000000000000000000000815260040161064e90612ea1565b60405180910390fd5b8060060154421161069d576040517f08c379a000000000000000000000000000000000000000000000000000000000815260040161069490612f0d565b60405180910390fd5b8060010160009054906101000a900473ffffffffffffffffffffffffffffffffffffffff1673ffffffffffffffffffffffffffffffffffffffff163373ffffffffffffffffffffffffffffffffffffffff161461072f576040517f08c379a000000000000000000000000000000000000000000000000000000000815260040161072690612f9f565b60405180910390fd5b60018160070160006101000a81548160ff021916908315150217905550817fb14e20043c98ef6452108c9d9477c2033a076dcc80324b977bf42bcb130a49a9600060405161077d9190613004565b60405180910390a25050565b60004282116107cd576040517f08c379a00000000000000000000000000000000000000000000000000000000081526004016107c49061306b565b60405180910390fd5b60008311610810576040517f08c379a0000000000000000000000000000000000000000000000000000000008152600401610807906130d7565b60405180910390fd5b823414610852576040517f08c379a000000000000000000000000000000000000000000000000000000000815260040161084990613143565b60405180910390fd5b60006002600081548092919061086790613192565b9190505590506000600360008381526020019081526020016000209050818160000181905550338160010160006101000a81548173ffffffffffffffffffffffffffffffffffffffff021916908373ffffffffffffffffffffffffffffffffffffffff160217905550878160020190805190602001906108e8929190612524565b5086816003019080519060200190610901929190612524565b508581600401908051906020019061091a929190612524565b508481600501819055508381600601819055506000816009018190555060008160080181905550600560003373ffffffffffffffffffffffffffffffffffffffff1673ffffffffffffffffffffffffffffffffffffffff1681526020019081526020016000208290806001815401808255809150506001900390600052602060002001600090919091909150553373ffffffffffffffffffffffffffffffffffffffff16827f64b439309954f148e681118e8f6556d39f6204a461e3307190a6928618ff26558a886040516109f09291906131db565b60405180910390a3819250505095945050505050565b60006003600084815260200190815260200160002090508060070160009054906101000a900460ff1615610a6f576040517f08c379a0000000000000000000000000000000000000000000000000000000008152600401610a6690612ea1565b60405180910390fd5b8060060154421115610ab6576040517f08c379a0000000000000000000000000000000000000000000000000000000008152600401610aad90613257565b60405180910390fd5b60008251118015610ac957506064825111155b610b08576040517f08c379a0000000000000000000000000000000000000000000000000000000008152600401610aff906132c3565b60405180910390fd5b6009600084815260200190815260200160002060003373ffffffffffffffffffffffffffffffffffffffff1673ffffffffffffffffffffffffffffffffffffffff16815260200190815260200160002060009054906101000a900460ff1615610ba6576040517f08c379a0000000000000000000000000000000000000000000000000000000008152600401610b9d9061332f565b60405180910390fd5b6000816009016000815480929190610bbd90613192565b919050559050600082600a0160008381526020019081526020016000209050338160000160006101000a81548173ffffffffffffffffffffffffffffffffffffffff021916908373ffffffffffffffffffffffffffffffffffffffff16021790555083816001019080519060200190610c37929190612524565b50428160020181905550600081600401819055506000816005018190555060008160060160006101000a81548160ff0219169083151502179055506000816007018190555060016009600087815260200190815260200160002060003373ffffffffffffffffffffffffffffffffffffffff1673ffffffffffffffffffffffffffffffffffffffff16815260200190815260200160002060006101000a81548160ff021916908315150217905550600660003373ffffffffffffffffffffffffffffffffffffffff1673ffffffffffffffffffffffffffffffffffffffff1681526020019081526020016000208590806001815401808255809150506001900390600052602060002001600090919091909150553373ffffffffffffffffffffffffffffffffffffffff16857fc0b04028e7b044e610e837c16aa829c3ac6eda886999b98be29a1449db09701486604051610d929190613375565b60405180910390a35050505050565b610da96121df565b60006003600085815260200190815260200160002090508060010160009054906101000a900473ffffffffffffffffffffffffffffffffffffffff1673ffffffffffffffffffffffffffffffffffffffff163373ffffffffffffffffffffffffffffffffffffffff1614610e52576040517f08c379a0000000000000000000000000000000000000000000000000000000008152600401610e499061341c565b60405180910390fd5b8060070160009054906101000a900460ff1615610ea4576040517f08c379a0000000000000000000000000000000000000000000000000000000008152600401610e9b90612ea1565b60405180910390fd5b80600601544211610eea576040517f08c379a0000000000000000000000000000000000000000000000000000000008152600401610ee1906134ae565b60405180910390fd5b80600901548310610f30576040517f08c379a0000000000000000000000000000000000000000000000000000000008152600401610f279061351a565b60405180910390fd5b60008211610f73576040517f08c379a0000000000000000000000000000000000000000000000000000000008152600401610f6a906130d7565b60405180910390fd5b8060050154821115610fba576040517f08c379a0000000000000000000000000000000000000000000000000000000008152600401610fb1906135ac565b60405180910390fd5b813414610ffc576040517f08c379a0000000000000000000000000000000000000000000000000000000008152600401610ff390613143565b60405180910390fd5b600081600a01600085815260200190815260200160002090508060030160009054906101000a900460ff16611066576040517f08c379a000000000000000000000000000000000000000000000000000000000815260040161105d9061363e565b60405180910390fd5b60008160070154146110ad576040517f08c379a00000000000000000000000000000000000000000000000000000000081526004016110a4906136d0565b60405180910390fd5b82816007018190555060008160000160009054906101000a900473ffffffffffffffffffffffffffffffffffffffff1673ffffffffffffffffffffffffffffffffffffffff16846040516111009061371e565b60006040518083038185875af1925050503d806000811461113d576040519150601f19603f3d011682016040523d82523d6000602084013e611142565b606091505b5050905080611186576040517f08c379a000000000000000000000000000000000000000000000000000000000815260040161117d9061377f565b60405180910390fd5b8383600501600082825461119a919061379f565b9250508190555060006001905060005b846009015481101561121457600085600a01600083815260200190815260200160002090508060030160009054906101000a900460ff1680156111f1575060008160070154145b15611200576000925050611214565b50808061120c90613192565b9150506111aa565b50801561135f576000846005015411156113085760008460010160009054906101000a900473ffffffffffffffffffffffffffffffffffffffff1673ffffffffffffffffffffffffffffffffffffffff1685600501546040516112769061371e565b60006040518083038185875af1925050503d80600081146112b3576040519150601f19603f3d011682016040523d82523d6000602084013e6112b8565b606091505b50509050806112fc576040517f08c379a00000000000000000000000000000000000000000000000000000000081526004016112f39061381f565b60405180910390fd5b60008560050181905550505b60018460070160006101000a81548160ff021916908315150217905550867fb14e20043c98ef6452108c9d9477c2033a076dcc80324b977bf42bcb130a49a96001604051611356919061387a565b60405180910390a25b8260000160009054906101000a900473ffffffffffffffffffffffffffffffffffffffff1673ffffffffffffffffffffffffffffffffffffffff1686887fc9a6981a3706821e95d9ad05f7921dede8f51b4b7a31dca8c009f6c08615714d886040516113cb9190613895565b60405180910390a4505050506113df61222f565b505050565b60025481565b600060036000858152602001908152602001600020905080600901548310611447576040517f08c379a000000000000000000000000000000000000000000000000000000000815260040161143e9061351a565b60405180910390fd5b600081600a01600085815260200190815260200160002090508160070160009054906101000a900460ff16156114b2576040517f08c379a00000000000000000000000000000000000000000000000000000000081526004016114a990612ea1565b60405180910390fd5b8060080160003373ffffffffffffffffffffffffffffffffffffffff1673ffffffffffffffffffffffffffffffffffffffff16815260200190815260200160002060009054906101000a900460ff1615611541576040517f08c379a00000000000000000000000000000000000000000000000000000000081526004016115389061390f565b60405180910390fd5b8060000160009054906101000a900473ffffffffffffffffffffffffffffffffffffffff1673ffffffffffffffffffffffffffffffffffffffff163373ffffffffffffffffffffffffffffffffffffffff1614156115d4576040517f08c379a00000000000000000000000000000000000000000000000000000000081526004016115cb9061397b565b60405180910390fd5b60018160080160003373ffffffffffffffffffffffffffffffffffffffff1673ffffffffffffffffffffffffffffffffffffffff16815260200190815260200160002060006101000a81548160ff02191690831515021790555082156116a45780600401600081548092919061164990613192565b91905055503373ffffffffffffffffffffffffffffffffffffffff1684867f3034d93886b61476962b74389d189a2c2ea99062e19c9c6226ffbaaacdca114460016040516116979190612c85565b60405180910390a4611779565b8060050160008154809291906116b990613192565b91905055503373ffffffffffffffffffffffffffffffffffffffff1684867f3034d93886b61476962b74389d189a2c2ea99062e19c9c6226ffbaaacdca114460006040516117079190612c85565b60405180910390a48060000160009054906101000a900473ffffffffffffffffffffffffffffffffffffffff1673ffffffffffffffffffffffffffffffffffffffff1684867f0c85652d2ac95894ed3aa3311d30cef8a307693957451a95f4b7ace387907c2a60405160405180910390a45b8060050154816004015411156117c85760018160060160006101000a81548160ff02191690831515021790555060018160030160006101000a81548160ff021916908315150217905550611803565b60008160060160006101000a81548160ff02191690831515021790555060008160030160006101000a81548160ff0219169083151502179055505b5050505050565b6060600760008481526020019081526020016000206000838152602001908152602001600020805461183b906139ca565b80601f0160208091040260200160405190810160405280929190818152602001828054611867906139ca565b80156118b45780601f10611889576101008083540402835291602001916118b4565b820191906000526020600020905b81548152906001019060200180831161189757829003601f168201915b5050505050905092915050565b6060600560008373ffffffffffffffffffffffffffffffffffffffff1673ffffffffffffffffffffffffffffffffffffffff16815260200190815260200160002080548060200260200160405190810160405280929190818152602001828054801561194c57602002820191906000526020600020905b815481526020019060010190808311611938575b50505050509050919050565b611c2081565b611966612238565b61197060006122b6565b565b606060086000848152602001908152602001600020600083815260200190815260200160002080546119a3906139ca565b80601f01602080910402602001604051908101604052809291908181526020018280546119cf906139ca565b8015611a1c5780601f106119f157610100808354040283529160200191611a1c565b820191906000526020600020905b8154815290600101906020018083116119ff57829003601f168201915b5050505050905092915050565b6008602052816000526040600020602052806000526040600020600091509150508054611a55906139ca565b80601f0160208091040260200160405190810160405280929190818152602001828054611a81906139ca565b8015611ace5780601f10611aa357610100808354040283529160200191611ace565b820191906000526020600020905b815481529060010190602001808311611ab157829003601f168201915b505050505081565b600060036000838152602001908152602001600020600901549050919050565b60008060009054906101000a900473ffffffffffffffffffffffffffffffffffffffff16905090565b6007602052816000526040600020602052806000526040600020600091509150508054611b4b906139ca565b80601f0160208091040260200160405190810160405280929190818152602001828054611b77906139ca565b8015611bc45780601f10611b9957610100808354040283529160200191611bc4565b820191906000526020600020905b815481529060010190602001808311611ba757829003601f168201915b505050505081565b60096020528160005260406000206020528060005260406000206000915091509054906101000a900460ff1681565b6060600660008373ffffffffffffffffffffffffffffffffffffffff1673ffffffffffffffffffffffffffffffffffffffff168152602001908152602001600020805480602002602001604051908101604052809291908181526020018280548015611c8657602002820191906000526020600020905b815481526020019060010190808311611c72575b50505050509050919050565b600381565b60006060600080600080600080606080600360008d8152602001908152602001600020600901548b10611cff576040517f08c379a0000000000000000000000000000000000000000000000000000000008152600401611cf69061351a565b60405180910390fd5b611d098c8c61237a565b809a50819b50829c50505050611d1f8c8c612472565b809750819850829950505050611d358c8c6124cb565b8094508195505050600760008d815260200190815260200160002060008c81526020019081526020016000208054611d6c906139ca565b80601f0160208091040260200160405190810160405280929190818152602001828054611d98906139ca565b8015611de55780601f10611dba57610100808354040283529160200191611de5565b820191906000526020600020905b815481529060010190602001808311611dc857829003601f168201915b50505050509150600860008d815260200190815260200160002060008c81526020019081526020016000208054611e1b906139ca565b80601f0160208091040260200160405190810160405280929190818152602001828054611e47906139ca565b8015611e945780601f10611e6957610100808354040283529160200191611e94565b820191906000526020600020905b815481529060010190602001808311611e7757829003601f168201915b505050505090509295989b9194979a5092959850565b60036020528060005260406000206000915090508060000154908060010160009054906101000a900473ffffffffffffffffffffffffffffffffffffffff1690806002018054611ef9906139ca565b80601f0160208091040260200160405190810160405280929190818152602001828054611f25906139ca565b8015611f725780601f10611f4757610100808354040283529160200191611f72565b820191906000526020600020905b815481529060010190602001808311611f5557829003601f168201915b505050505090806003018054611f87906139ca565b80601f0160208091040260200160405190810160405280929190818152602001828054611fb3906139ca565b80156120005780601f10611fd557610100808354040283529160200191612000565b820191906000526020600020905b815481529060010190602001808311611fe357829003601f168201915b505050505090806004018054612015906139ca565b80601f0160208091040260200160405190810160405280929190818152602001828054612041906139ca565b801561208e5780601f106120635761010080835404028352916020019161208e565b820191906000526020600020905b81548152906001019060200180831161207157829003601f168201915b5050505050908060050154908060060154908060070160009054906101000a900460ff1690806008015490806009015490508a565b60046020528060005260406000206000915090505481565b6120e3612238565b600073ffffffffffffffffffffffffffffffffffffffff168173ffffffffffffffffffffffffffffffffffffffff161415612153576040517f08c379a000000000000000000000000000000000000000000000000000000000815260040161214a90613a6e565b60405180910390fd5b61215c816122b6565b50565b600060036000858152602001908152602001600020600a01600084815260200190815260200160002060080160008373ffffffffffffffffffffffffffffffffffffffff1673ffffffffffffffffffffffffffffffffffffffff16815260200190815260200160002060009054906101000a900460ff1690509392505050565b60026001541415612225576040517f08c379a000000000000000000000000000000000000000000000000000000000815260040161221c90613ada565b60405180910390fd5b6002600181905550565b60018081905550565b61224061251c565b73ffffffffffffffffffffffffffffffffffffffff1661225e611af6565b73ffffffffffffffffffffffffffffffffffffffff16146122b4576040517f08c379a00000000000000000000000000000000000000000000000000000000081526004016122ab90613b46565b60405180910390fd5b565b60008060009054906101000a900473ffffffffffffffffffffffffffffffffffffffff169050816000806101000a81548173ffffffffffffffffffffffffffffffffffffffff021916908373ffffffffffffffffffffffffffffffffffffffff1602179055508173ffffffffffffffffffffffffffffffffffffffff168173ffffffffffffffffffffffffffffffffffffffff167f8be0079c531659141344cd1fd0a4f28419497f9722a3daafe3b4186f6b6457e060405160405180910390a35050565b6000606060008060036000878152602001908152602001600020600a01600086815260200190815260200160002090508060000160009054906101000a900473ffffffffffffffffffffffffffffffffffffffff168160010182600201548180546123e4906139ca565b80601f0160208091040260200160405190810160405280929190818152602001828054612410906139ca565b801561245d5780601f106124325761010080835404028352916020019161245d565b820191906000526020600020905b81548152906001019060200180831161244057829003601f168201915b50505050509150935093509350509250925092565b60008060008060036000878152602001908152602001600020600a01600086815260200190815260200160002090508060030160009054906101000a900460ff1681600401548260050154935093509350509250925092565b600080600060036000868152602001908152602001600020600a01600085815260200190815260200160002090508060060160009054906101000a900460ff16816007015492509250509250929050565b600033905090565b828054612530906139ca565b90600052602060002090601f0160209004810192826125525760008555612599565b82601f1061256b57805160ff1916838001178555612599565b82800160010185558215612599579182015b8281111561259857825182559160200191906001019061257d565b5b5090506125a691906125aa565b5090565b5b808211156125c35760008160009055506001016125ab565b5090565b6000604051905090565b600080fd5b600080fd5b6000819050919050565b6125ee816125db565b81146125f957600080fd5b50565b60008135905061260b816125e5565b92915050565b600060208284031215612627576126266125d1565b5b6000612635848285016125fc565b91505092915050565b600080fd5b600080fd5b6000601f19601f8301169050919050565b7f4e487b7100000000000000000000000000000000000000000000000000000000600052604160045260246000fd5b61269182612648565b810181811067ffffffffffffffff821117156126b0576126af612659565b5b80604052505050565b60006126c36125c7565b90506126cf8282612688565b919050565b600067ffffffffffffffff8211156126ef576126ee612659565b5b6126f882612648565b9050602081019050919050565b82818337600083830152505050565b6000612727612722846126d4565b6126b9565b90508281526020810184848401111561274357612742612643565b5b61274e848285612705565b509392505050565b600082601f83011261276b5761276a61263e565b5b813561277b848260208601612714565b91505092915050565b600080600080600060a086880312156127a05761279f6125d1565b5b600086013567ffffffffffffffff8111156127be576127bd6125d6565b5b6127ca88828901612756565b955050602086013567ffffffffffffffff8111156127eb576127ea6125d6565b5b6127f788828901612756565b945050604086013567ffffffffffffffff811115612818576128176125d6565b5b61282488828901612756565b9350506060612835888289016125fc565b9250506080612846888289016125fc565b9150509295509295909350565b61285c816125db565b82525050565b60006020820190506128776000830184612853565b92915050565b60008060408385031215612894576128936125d1565b5b60006128a2858286016125fc565b925050602083013567ffffffffffffffff8111156128c3576128c26125d6565b5b6128cf85828601612756565b9150509250929050565b6000806000606084860312156128f2576128f16125d1565b5b6000612900868287016125fc565b9350506020612911868287016125fc565b9250506040612922868287016125fc565b9150509250925092565b60008115159050919050565b6129418161292c565b811461294c57600080fd5b50565b60008135905061295e81612938565b92915050565b60008060006060848603121561297d5761297c6125d1565b5b600061298b868287016125fc565b935050602061299c868287016125fc565b92505060406129ad8682870161294f565b9150509250925092565b600080604083850312156129ce576129cd6125d1565b5b60006129dc858286016125fc565b92505060206129ed858286016125fc565b9150509250929050565b600081519050919050565b600082825260208201905092915050565b60005b83811015612a31578082015181840152602081019050612a16565b83811115612a40576000848401525b50505050565b6000612a51826129f7565b612a5b8185612a02565b9350612a6b818560208601612a13565b612a7481612648565b840191505092915050565b60006020820190508181036000830152612a998184612a46565b905092915050565b600073ffffffffffffffffffffffffffffffffffffffff82169050919050565b6000612acc82612aa1565b9050919050565b612adc81612ac1565b8114612ae757600080fd5b50565b600081359050612af981612ad3565b92915050565b600060208284031215612b1557612b146125d1565b5b6000612b2384828501612aea565b91505092915050565b600081519050919050565b600082825260208201905092915050565b6000819050602082019050919050565b612b61816125db565b82525050565b6000612b738383612b58565b60208301905092915050565b6000602082019050919050565b6000612b9782612b2c565b612ba18185612b37565b9350612bac83612b48565b8060005b83811015612bdd578151612bc48882612b67565b9750612bcf83612b7f565b925050600181019050612bb0565b5085935050505092915050565b60006020820190508181036000830152612c048184612b8c565b905092915050565b612c1581612ac1565b82525050565b6000602082019050612c306000830184612c0c565b92915050565b60008060408385031215612c4d57612c4c6125d1565b5b6000612c5b858286016125fc565b9250506020612c6c85828601612aea565b9150509250929050565b612c7f8161292c565b82525050565b6000602082019050612c9a6000830184612c76565b92915050565b600061014082019050612cb6600083018d612c0c565b8181036020830152612cc8818c612a46565b9050612cd7604083018b612853565b612ce4606083018a612c76565b612cf16080830189612853565b612cfe60a0830188612853565b612d0b60c0830187612c76565b612d1860e0830186612853565b818103610100830152612d2b8185612a46565b9050818103610120830152612d408184612a46565b90509b9a5050505050505050505050565b600061014082019050612d67600083018d612853565b612d74602083018c612c0c565b8181036040830152612d86818b612a46565b90508181036060830152612d9a818a612a46565b90508181036080830152612dae8189612a46565b9050612dbd60a0830188612853565b612dca60c0830187612853565b612dd760e0830186612c76565b612de5610100830185612853565b612df3610120830184612853565b9b9a5050505050505050505050565b600080600060608486031215612e1b57612e1a6125d1565b5b6000612e29868287016125fc565b9350506020612e3a868287016125fc565b9250506040612e4b86828701612aea565b9150509250925092565b7f426f756e747920616c726561647920636f6d706c657465640000000000000000600082015250565b6000612e8b601883612a02565b9150612e9682612e55565b602082019050919050565b60006020820190508181036000830152612eba81612e7e565b9050919050565b7f426f756e747920646561646c696e65206e6f7420726561636865640000000000600082015250565b6000612ef7601b83612a02565b9150612f0282612ec1565b602082019050919050565b60006020820190508181036000830152612f2681612eea565b9050919050565b7f4f6e6c7920626f756e74792063726561746f722063616e20636f6d706c65746560008201527f20626f756e747900000000000000000000000000000000000000000000000000602082015250565b6000612f89602783612a02565b9150612f9482612f2d565b604082019050919050565b60006020820190508181036000830152612fb881612f7c565b9050919050565b6000819050919050565b6000819050919050565b6000612fee612fe9612fe484612fbf565b612fc9565b6125db565b9050919050565b612ffe81612fd3565b82525050565b60006020820190506130196000830184612ff5565b92915050565b7f446561646c696e65206d75737420626520696e20746865206675747572650000600082015250565b6000613055601e83612a02565b91506130608261301f565b602082019050919050565b6000602082019050818103600083015261308481613048565b9050919050565b7f526577617264206d7573742062652067726561746572207468616e2030000000600082015250565b60006130c1601d83612a02565b91506130cc8261308b565b602082019050919050565b600060208201905081810360008301526130f0816130b4565b9050919050565b7f4d7573742073656e642065786163742072657761726420616d6f756e74000000600082015250565b600061312d601d83612a02565b9150613138826130f7565b602082019050919050565b6000602082019050818103600083015261315c81613120565b9050919050565b7f4e487b7100000000000000000000000000000000000000000000000000000000600052601160045260246000fd5b600061319d826125db565b91507fffffffffffffffffffffffffffffffffffffffffffffffffffffffffffffffff8214156131d0576131cf613163565b5b600182019050919050565b600060408201905081810360008301526131f58185612a46565b90506132046020830184612853565b9392505050565b7f426f756e747920646561646c696e652068617320706173736564000000000000600082015250565b6000613241601a83612a02565b915061324c8261320b565b602082019050919050565b6000602082019050818103600083015261327081613234565b9050919050565b7f496e76616c69642070726f6f662068617368206c656e67746800000000000000600082015250565b60006132ad601983612a02565b91506132b882613277565b602082019050919050565b600060208201905081810360008301526132dc816132a0565b9050919050565b7f416c7265616479207375626d697474656420612070726f6f6600000000000000600082015250565b6000613319601983612a02565b9150613324826132e3565b602082019050919050565b600060208201905081810360008301526133488161330c565b9050919050565b50565b600061335f600083612a02565b915061336a8261334f565b600082019050919050565b6000604082019050818103600083015261338f8184612a46565b905081810360208301526133a281613352565b905092915050565b7f4f6e6c7920626f756e74792063726561746f722063616e20736574207265776160008201527f7264730000000000000000000000000000000000000000000000000000000000602082015250565b6000613406602383612a02565b9150613411826133aa565b604082019050919050565b60006020820190508181036000830152613435816133f9565b9050919050565b7f43616e6e6f742073657420726577617264206265666f726520646561646c696e60008201527f6500000000000000000000000000000000000000000000000000000000000000602082015250565b6000613498602183612a02565b91506134a38261343c565b604082019050919050565b600060208201905081810360008301526134c78161348b565b9050919050565b7f496e76616c6964207375626d697373696f6e2049440000000000000000000000600082015250565b6000613504601583612a02565b915061350f826134ce565b602082019050919050565b60006020820190508181036000830152613533816134f7565b9050919050565b7f5265776172642063616e6e6f742065786365656420626f756e747920616d6f7560008201527f6e74000000000000000000000000000000000000000000000000000000000000602082015250565b6000613596602283612a02565b91506135a18261353a565b604082019050919050565b600060208201905081810360008301526135c581613589565b9050919050565b7f43616e206f6e6c79207365742072657761726420666f7220617070726f76656460008201527f207375626d697373696f6e730000000000000000000000000000000000000000602082015250565b6000613628602c83612a02565b9150613633826135cc565b604082019050919050565b600060208201905081810360008301526136578161361b565b9050919050565b7f52657761726420616c72656164792073657420666f722074686973207375626d60008201527f697373696f6e0000000000000000000000000000000000000000000000000000602082015250565b60006136ba602683612a02565b91506136c58261365e565b604082019050919050565b600060208201905081810360008301526136e9816136ad565b9050919050565b600081905092915050565b60006137086000836136f0565b91506137138261334f565b600082019050919050565b6000613729826136fb565b9150819050919050565b7f5472616e73666572206661696c65640000000000000000000000000000000000600082015250565b6000613769600f83612a02565b915061377482613733565b602082019050919050565b600060208201905081810360008301526137988161375c565b9050919050565b60006137aa826125db565b91506137b5836125db565b9250828210156137c8576137c7613163565b5b828203905092915050565b7f52657475726e207472616e73666572206661696c656400000000000000000000600082015250565b6000613809601683612a02565b9150613814826137d3565b602082019050919050565b60006020820190508181036000830152613838816137fc565b9050919050565b6000819050919050565b600061386461385f61385a8461383f565b612fc9565b6125db565b9050919050565b61387481613849565b82525050565b600060208201905061388f600083018461386b565b92915050565b60006040820190506138aa6000830184612853565b81810360208301526138bb81613352565b905092915050565b7f416c726561647920766f74656400000000000000000000000000000000000000600082015250565b60006138f9600d83612a02565b9150613904826138c3565b602082019050919050565b60006020820190508181036000830152613928816138ec565b9050919050565b7f43616e6e6f7420766f7465206f6e206f776e207375626d697373696f6e000000600082015250565b6000613965601d83612a02565b91506139708261392f565b602082019050919050565b6000602082019050818103600083015261399481613958565b9050919050565b7f4e487b7100000000000000000000000000000000000000000000000000000000600052602260045260246000fd5b600060028204905060018216806139e257607f821691505b602082108114156139f6576139f561399b565b5b50919050565b7f4f776e61626c653a206e6577206f776e657220697320746865207a65726f206160008201527f6464726573730000000000000000000000000000000000000000000000000000602082015250565b6000613a58602683612a02565b9150613a63826139fc565b604082019050919050565b60006020820190508181036000830152613a8781613a4b565b9050919050565b7f5265656e7472616e637947756172643a207265656e7472616e742063616c6c00600082015250565b6000613ac4601f83612a02565b9150613acf82613a8e565b602082019050919050565b60006020820190508181036000830152613af381613ab7565b9050919050565b7f4f776e61626c653a2063616c6c6572206973206e6f7420746865206f776e6572600082015250565b6000613b30602083612a02565b9150613b3b82613afa565b602082019050919050565b60006020820190508181036000830152613b5f81613b23565b905091905056fea2646970667358221220f5e479a89f9bea15253a5dd0dc82e345305f3613cd867bb838fda0c9637fbd3764736f6c634300080a0033",
  "linkReferences": {},
  "deployedLinkReferences": {}
}